:020000040200F8
:100000004024012203A00202499E02020DA0020226
:100010000DA002020DA002020DA002020DA002021C
:1000200000000000000000000000000085820102C6
:100030000DA00202000000009D8201020583010262
:100040004D7F02028580020265810202198202024E
:100050002D8902022D920102599101029992010209
:10006000D1920102F19102025D9202029592020286
:10007000C1940202418D0102E58D01025D6C020214
:10008000E16C0202416D0202796D0202AD6D020265
:10009000E5880102597802029179020291790202FF
:1000A0000A00000000000200CD3F00020000000036
:1000B00000000000010001006275696C74696E0047
:1000C0006275696C74696E00000000000000000039
:1000D0002D000000000000000000000000000000F3
:1000E0000000000000000000000000000000000010
:1000F0003E2F0702C44D070276970602CB75070212
:10010000D2D00602A755070282970602DDD006026A
:1001100053A806022E91060279B6060297780602C7
:10012000321607023E160702D80707028B9706020F
:10013000BE460702E2D00602CC3D0702EBF70602FC
:100140006C6E0702786E070265A006023691060201
:100150009CFE06028FC806029EDA06023E91060247
:100160008FC806029AC80602EBE00602F9EE060204
:1001700046AE060270A00602AADA060268BF0602B0
:10018000A17806027BA00602741E0702B45507027E
:1001900057A8060242910602AA78060203EF060259
:1001A00003EF0602441607023736070257A8060275
:1001B00043600702DD8706027D6E0702811E07028B
:1001C000A2C80602442F0702E6D0060251600702C9
:1001D0005116070252AE06024B910602E7070702CC
:1001E000E60E0702C2550702D25507025D600702FC
:1001F00061A80602F20E0702DE550702F327070286
:10020000F4E00602B0C80602532F0702A5FE06025C
:10021000F2070702FC0E0702F2070702A880060297
:100220005E2F0702CD4D0702B078060273BF0602AB
:100230006DA80602FFE00602919706029F9706024C
:10024000B48006027AA80602B1DA060200080702A4
:10025000BC8006028D1E0702C2800602FF2707022D
:1002600009E1060283B60602D7750702B5780602D1
:10027000AEFE060244360702F5F7060280A8060223
:10028000D33D070213E10602E78706027DBF06029F
:10029000B5FE060286BF0602BBDA06021AE10602B6
:1002A0008CBF060286A00602D94D0702BAC8060214
:1002B0005FAE0602C5460702080F07025791060205
:1002C00086A80602F4D00602417F0702609106026A
:1002D0008CB60602C2DA0602961E070224E1060266
:1002E000CCDA0602507F0702FDD006026A600702E0
:1002F00092A00602DE3D0702EB550702FFF7060259
:10030000682F07029EA006025C7F0702BD780602E6
:10031000BDFE06025C16070299B60602E83D07021A
:1003200098BF0602F23D07028DA8060205F80602F4
:1003300013F806020AEF060204D10602627F0702E2
:10034000CB460702AF97060265AE060217EF06021C
:1003500032E106026A160702876E07026D7F070206
:1003600032E1060297A80602E24D070221EF0602DB
:100370000D0F0702C57806021A0F0702A1B6060282
:10038000210F070276600702FB3D07026EAE0602F0
:100390003AE106022A0F0702D5DA0602EE4D0702FD
:1003A000EF8706020D080702083E070242E1060237
:1003B0001BF806029E1E070213080702A2BF0602D0
:1003C000C3C80602C3C80602C3C80602C3C80602E1
:1003D000C3C80602C3C80602C3C80602C3C80602D1
:1003E000C3C80602C3C80602C3C806024A360702CB
:1003F000C7FE0602C3C80602A81E0702CB8006027B
:10040000113E0702113E0702113E0702C3C8060251
:10041000C3C80602C3C80602C3C80602C3C8060290
:10042000761607028060070280600702806007027C
:100430008060070280600702AEBF0602B697060220
:10044000A6A00602062807027C16070232E1060271
:10045000BD970602B01E070232E1060232E1060233
:1004600032E1060232E10602310F0702CBC8060272
:10047000D08006028A600702F84D07021E080702B4
:10048000533607028A1607028A1607022BEF060266
:100490002BEF0602936007025C360702250807026D
:1004A000DC800602F4550702380F0702380F0702F6
:1004B000E37507020ED106029C60070222F80602CD
:1004C00022F80602B91E07023C0F07021328070292
:1004D00032EF0602ACB60602F7870602B5B6060290
:1004E0001B3E07022AF80602CC78060277AE060207
:1004F000906E0702C11E07026A910602FF4D0702B5
:10050000DFDA0602D01E0702767F0702B6BF0602B8
:1005100080AE0602BFBF0602E5800602E580060245
:1005200072910602CABF0602C5970602D09706025C
:10053000E4DA0602D91E07020A4E0702380F070244
:10054000A0A8060293160702673607023DEF0602CF
:10055000DF1E0702EBDA0602470F0702772F0702BA
:10056000BFB60602D0780602293E0702EF750702E1
:100570001B280702D8460702303E0702232807023D
:10058000E5460702DD7806027B910602E578060261
:10059000F1DA0602EC8006027E7F0702373E070290
:1005A00032F806023FF80602D99706024DE106022C
:1005B000E81E0702D6BF06024DE106029B1607029F
:1005C000CBB6060248EF0602EB4607021AD1060236
:1005D0003F3E0702F41E070286910602A6A8060205
:1005E000473E0702104E0702A2160702A26007024A
:1005F000CFB606024CEF0602CDFE0602FD550702FD
:10060000B5A00602B5A00602D9B606021B4E070227
:1006100054E106022E080702877F0702EF46070211
:10062000E2B60602D5FE060226D106023B08070204
:10063000F7800602480807029D6E070290910602A5
:10064000A86E070289AE0602AE6E0702244E0702AC
:10065000F4460702ADA806024F080702E797060214
:1006600097910602B86E070230D10602F4750702B0
:10067000FE800602FF750702FADA06025FE1060253
:1006800001470702ED970602F0780602B0A80602BD
:1006900047F8060265E10602C06E0702055607022A
:1006A000510F0702937F07020776070235D1060232
:1006B000282807024DF80602E2BF06020F5607027D
:1006C0002C4E0702334E0702084707021556070251
:1006D000BFA006028DAE0602C6A0060254EF0602B7
:1006E0006BE106029D7F0702BFA006020688060294
:1006F00040D10602F29706020F7607021D56070246
:10070000DDFE0602E9FE0602832F07020A880602C2
:10071000021F07025D0807020F4707020F88060243
:100720009B910602C76E0702A4910602F4FE060220
:10073000D6C806022A5607026F3607023B4E07024A
:10074000FAFE06024C4E070208DB060262EF0602C2
:10075000AC6007020E1F07022F2807027F36070230
:100760001388060270E10602CFA00602CE6E0702D1
:100770001B1F0702E4C806021A88060296AE06028C
:10078000D56E070234560702058106024E3E070267
:100790008536070203FF06023E560702544E070243
:1007A0007EE1060224880602E9B60602872F0702C8
:1007B000AB9106025B4E0702570F0702281F070284
:1007C000485607025B3E0702F878060208FF060259
:1007D00020760702B66007029FAE06025456070253
:1007E000674E070285E1060202980602902F070273
:1007F0006A08070209980602301F0702C160070253
:1008000090360702AB7F0702620F07026B0F0702E9
:100810008CE106022D88060290E10602ECC8060271
:1008200011FF060255F80602740807026CEF060273
:10083000A9AE0602F6C80602CA60070236280702F9
:1008400097360702381F070261F806020D8106027B
:100850009B2F0702B0AE0602FBC8060296E1060215
:10086000734E0702401F07021CFF0602B7A80602CC
:10087000F4B60602623E070273EF0602750F070226
:1008800004C90602B391060223FF0602441F0702B1
:1008900001B70602A12F07022C7607024E1F07029E
:1008A0006B3E0702C1A806020EDB0602B47F0702F8
:1008B0007C0F0702AB160702A1E10602C27F070206
:1008C0000EC90602BD910602CA7F0702CF7F07024A
:1008D000BBAE060246D10602D76007027AEF0602D7
:1008E00043280702C3910602A8E10602DB6E070255
:1008F000E9BF0602A72F0702F3BF0602B2160702DE
:10090000FF7806025C7F070213980602D191060267
:10091000E76E070207B70602713E07023776070245
:10092000F8BF060268F80602ADE10602850F07026D
:10093000441F070258560702763E070250D10602AE
:100940009B360702AE2F0702067906027A080702D5
:100950004C280702A83607025128070229FF060281
:10096000CCA80602D8A00602B62F0702EC6E07023A
:100970007C4E0702DDA006028E0F0702C02F070281
:1009800031FF06026CF80602117906022079060290
:100990005F560702F56E07027C3E07026B560702A0
:1009A000E1A006027FEF0602C6AE0602CCAE06024A
:1009B000D791060214810602D67F0702D5A8060247
:1009C000581F070214DB0602E2A8060211B706024E
:1009D000950F0702358806022C79060200C0060230
:1009E00020DB06021D810602874E0702DC6007023B
:1009F00027DB06022FDB060234DB0602853E0702F8
:100A00004388060225810602FA6E0702B61607021F
:100A1000E79106021A98060256280702DF7F0702AE
:100A200056D106024E880602850F070238FF0602DD
:100A3000913E0702E67F0702DAAE0602914E0702F8
:100A40009B4E0702F07F0702DFAE060239DB06028B
:100A50005DD10602086F0702B0360702F291060266
:100A60002C81060262D106022598060267D1060291
:100A70002A980602ECAE060245FF060209C00602ED
:100A8000126F0702612807023E760702F87F07020D
:100A9000E56007021CB70602457607025A8806027F
:100AA000FD9106028508070225B706022EB7060249
:100AB0003479060217C0060236810602F1AE06023C
:100AC0004B760702EDA0060204920602CB2F070226
:100AD0001D6F07024CFF06020B9206021847070221
:100AE0001692060277560702BF360702BF36070284
:100AF000F6A006023E81060275F806026A28070281
:100B00007DF80602EEA8060251760702FBAE060249
:100B100009AF060252FF0602EA600702F56007020B
:100B2000A34E07029B3E07022047070217C9060291
:100B3000018007029E0F0702284707023CB7060202
:100B400043DB0602296F070204A10602098007029F
:100B5000458106022F9806020AA1060276D10602F6
:100B60007F56070282D10602A60F070290080702ED
:100B70004FDB060248B70602567607023C790602AA
:100B800095080702D22F070211A1060220C0060213
:100B9000AB4E0702641F070247790602A43E070214
:100BA000865607024D81060288EF060254DB0602D4
:100BB00056810602316F0702C7360702A93E0702B7
:100BC000359806028E560702AE0F0702F6A80602F7
:100BD0005ADB06021CA106029556070265DB0602D7
:100BE000648806023C9806029C560702B24E070231
:100BF00029C006021E920602638106026076070281
:100C0000CE3607026DDB0602AA56070288F80602F6
:100C100078DB06022C9206026F280702469806022D
:100C20004F79060237C0060218AF06026A7607023D
:100C30003EC006023892060213800702FEA8060292
:100C400093EF060286D1060223A1060275760702FB
:100C5000B456070270880602D72F07021DAF06029E
:100C60003F9206024AC00602B2E1060225AF060222
:100C700022800702BA0F07023B6F07029C08070297
:100C80003F6F07029AEF0602C50F070290F80602AF
:100C90007B88060207A9060297F80602B53E0702FE
:100CA00021C90602529806022D8007028688060294
:100CB000A9080702A5EF0602AEEF06025898060241
:100CC000338007022F470702B4EF06024EB7060231
:100CD000C11607024FC006025BFF0602FF60070253
:100CE0005EC006022CAF06024B6F070229A1060266
:100CF00066FF0602B00807028ED106023F80070297
:100D0000C0560702C23E0702BDE10602566F070247
:100D100064C0060271FF06029BD1060283DB060255
:100D2000817607028EDB06026898060299DB0602CE
:100D300068C0060211A906028C88060274C0060269
:100D40005C79060227C906023AAF06027428070238
:100D500041AF06027AFF06025CB70602DC2F0702EB
:100D60006F98060237A10602792807026D1F070255
:100D7000086107026BB706028A7607024F920602E5
:100D8000CD3E0702698106029CF80602842807020C
:100D900048AF06025D6F070285FF060251AF0602EB
:100DA000CB560702BD4E07027BC00602676F0702E3
:100DB0009FDB0602E02F0702DC3E0702726F07028C
:100DC000C02F0702B5080702D8A00602D9560702AD
:100DD00044A10602B9EF06027581060244470702E4
:100DE00066790602E55607028F2807025892060226
:100DF00095760702CD0F0702A7DB06027F81060268
:100E00007A1F0702D7360702C10807028781060248
:100E1000ACDB0602D70F0702C54E07026592060239
:100E20005EAF06027898060265AF06020D61070202
:100E3000809806029B760702126107026B920602F7
:100E4000CB080702CC4E0702D34E0702D708070291
:100E50004AA10602831F07024A470702C4EF06029F
:100E6000186107021BA90602EB2F070285C00602C4
:100E700070AF0602EF5607024480070225610702A1
:100E800073B70602CE1607027AAF0602DB4E0702E0
:100E90008E810602786F07028C9806023361070282
:100EA0003C61070290C0060243280702A1D1060256
:100EB00040610702CCEF060254470702A1F8060280
:100EC000E23607022DC906025B4707029B8806022D
:100ED00053A10602E63E070283AF0602ED3E07027B
:100EE000C4E1060295810602E44E0702A6F8060256
:100EF000F93E07026F790602AFF8060278B70602DC
:100F0000E836070234C90602876F070240C90602A5
:100F1000F43607029AC0060299280702DF08070282
:100F20007679060297980602BCF80602AAD1060254
:100F3000A2760702F756070276920602033F0702DF
:100F40007B7906027B9206024C800702FD5607025F
:100F5000023707028EAF0602A4880602083F070286
:100F6000A5280702AF28070210370702538007029F
:100F700027A906028A1F07029B9806021837070254
:100F800084790602EB0807021E3707020957070299
:100F9000634707020E3F07028FFF0602B1DB06021E
:100FA00031A90602173F070231A90602C9F8060255
:100FB0009BFF0602F8080702A5FF0602B8280702F1
:100FC000704707028C790602D2F806025A8007029F
:100FD000D9F80602ED4E0702BADB06029AAF060206
:100FE00086920602243F0702608007022537070227
:100FF000DA160702F74E0702ADFF0602DDF8060219
:10100000A7C00602B7FF060282B70602AEC00602FC
:101010005BA106027D470702A7980602D4EF0602ED
:10102000B7C00602E3F80602C12807029C81060247
:1010300004090702CFE10602E20F0702C8280702EF
:101040008BB70602A4AF06025FA10602C1DB06024F
:101050008F6F0702EA160702303F07024961070255
:10106000D7E10602CDDB0602FD4E0702986F0702AC
:10107000AB9806022F370702054F070239370702E0
:10108000D1DB0602B2980602F12F070238A9060248
:10109000C0A847DEFFFFFC00C0A8440108080808FC
:1010A000028A9B7104D20000000018880000000032
:1010B0000000000001004000028A9B7104D2028AF5
:1010C0009B7104D2181000220100000064A00E22BF
:1010D0000000000000000000000000001E100022C0
:1010E0000100000074A00E220000000000000000BB
:1010F00000000000028A9B7104D20000020100007F
:1011000000000000D8A80E22000000000800000027
:1011100002000000000000000101000058A90E229A
:1011200000000000000000000500000002000000B8
:101130000000000001010000A8A90E22000000002C
:101140000000000005000000020000000000000098
:1011500001000000F8A90E220000000000000000BD
:101160000500000002000000000000000100000077
:1011700048AA0E2200000000000000000500000048
:101180000200000000000000B8AB0E22B8B10E2231
:10119000B8B70E22B8BD0E22B8C30E22B8C90E22AF
:1011A000B8CF0E22B8D50E22B8DB0E22B8E10E223F
:1011B000B8E70E22B8ED0E22B8F30E22B8F90E22CF
:1011C000B8FF0E22B8050F22B80B0F22B8110F225C
:1011D000B8170F22B81D0F22B8230F22B8290F22EB
:1011E000B82F0F22B8350F22403C0F225411002295
:1011F00048110022C4430F020F00000080000000CD
:101200000F00000080000000E80300000000000064
:1012100000000000503C0F22000000000000000011
:10122000000000000100000000000000101F00008E
:10123000ACAD06020000000000000000000000004D
:10124000000000000000000000000000000000009E
:10125000000000000044657669636520507269767D
:1012600020544C53204B6579000000000000000022
:1012700000000000000044657669636520507562D7
:1012800020544C53204B6579000000000000000002
:101290000000000000000044657669636520436536
:1012A0007274000000000000000000000000000058
:1012B0000000000000000000436F64652056657266
:1012C000696679204B65790000000000000000008D
:1012D000000000000000000000526F6F74204365A2
:1012E0007274000000000000000000000000000018
:1012F00000000000000000000000000001010000EC
:1013000000203440002834400228000049D0020266
:10131000C1D002020000000009D102021DD1020268
:101320000000000051D102020000000055D102026D
:1013300089D1020200000000000000008DD10202ED
:1013400039D202020000000000000000000000008E
:1013500000000000A9D2020200000000ADD202028B
:101360000000000061D5020200000000B5D50202B5
:101370000000000079D9020231DA0202F5DA020235
:10138000000000000000000000000000000000005D
:10139000000000000000000000000000000000004D
:1013A00031DB02020000000095DB020200000000B9
:1013B000FDDB020299DC020231DE020200000000C5
:1013C000000000000000000000000000F5DF020245
:1013D0008DE102020000000000000000000000009B
:1013E00000000000000000000000000000000000FD
:1013F000000000000000000075E302020000000091
:1014000000000000000000000000000009E60202E9
:101410000000000000000000000000001027000095
:101420000606010002000000BA020702714B030227
:10143000994B0302A14B0302DD4B030200000000A5
:1014400000000000914D0302354E0302574E030287
:101450006D4E030201000000BA020702954E03021E
:10146000BD4E0302CD4E0302094F030200000000EF
:1014700000000000495003027D5003029F50030208
:10148000B55003023126060251260602679B04026C
:10149000679B0402699B0402699B040259270602A8
:1014A000512606029D2806025927060251260602E9
:1014B000A17405026D7505020DC7060260AC0F022E
:0814C000760707027607070218
:0814D000010000000000000013
:10150000B0B507488568D0E9004120462A68904771
:10151000696820468847034800210160B0BD00BFCC
:1015200064470F0270240122B0B5074800F02AF882
:101530000648002101602046E9688847696820461E
:10154000BDE8B040084700BF64470F027024012285
:1015500001480068704700BF70240122081A0A2160
:10156000B0FBF1F070474FF47A71B1FBF0F07047C7
:10157000007900B17047024801680131016070478D
:1015800070240122856804682046A9680847D4D4DD
:10159000F0B500224FF0FF34094B8A420DD0855C34
:1015A0006C4008253DB183EA5406E70708BF66088A
:1015B000013D3446F6E70132EFE7E043F0BD00BFFE
:1015C0002083B8ED10B520293CBF144810BD044657
:1015D0000068144A90421CBF114810BDA088012821
:1015E0001CBF114810BDA268114B10489A4213D875
:1015F00002F120038B420FD8606A0F4988421CBF5A
:101600000C4810BD04F120001146FFF7C1FFE1684E
:101610000A4A401A52EA108010BD00BF873C0702F8
:10162000B7740702494F5456DA7D07023A1D070284
:10163000E0FF3F00262E070254464C3331D7060206
:10164000B0B505468160C28001201C46A8800A48CA
:10165000286005F12000FFF79BFF002145F8101FCF
:101660000F2245F8040C6960A960E960284621460C
:10167000BDE8B04061F06EBA494F54562DE9F84FBD
:101680008946804602F092F840464946FFF79AFFA5
:1016900010B16FF0150764E04FF6FF7009EB000121
:1016A00021EA000402F000F92F480027324E0025FD
:1016B000D0F800B0D0F808A097B9A54210D2A5F193
:1016C000D945DAF8183058464FF480322946984701
:1016D00020B9354400F052F80746EDE76FF00407F3
:1016E00000264C46CDF80080BFB94E4515D2A6F174
:1016F000D9472346402C5846414628BF4023DAF8B4
:1017000014503A46A84740BB1A4808F14008403CEC
:101710003E1800F033F80746E6E707BB0099134888
:10172000B9F1010F10DBA9F101030122BFF34F8FC3
:1017300002EB531E0E4B02461A6020320FF005C01A
:10174000BFF34F8FBFF36F8F4A4661F0BDF9074675
:10175000002818BF6FF0530701E06FF0040702F094
:10176000ADF83846BDE8F88FD8410F0200008093ED
:101770005CEF00E04000806C0000816CF8B5002058
:101780008DF803000D4F0DF103050B4804688668C2
:10179000013F0AD0F26920462946904740B99DF89A
:1017A00003000028F4D10020F8BD6FF06D00F8BDF3
:1017B0006FF00400F8BD00BFD8410F0201093D00E1
:1017C000F8B514460F46054601F0F0FF02F06CF83C
:1017D0002148BFF34F8F2149214B0160BFF34F8F49
:1017E000BFF36F8F0A689A4210D18A681D4B9A42E4
:1017F00007D802F12006202E334628BF2023BE4200
:1018000009D902F05BF86FF00B00F8BD02F056F852
:101810006FF00100F8BDD21A0123BFF34F8F3F32A2
:1018200003EB521E016020310FF005C0BFF34F8F54
:101830000A4928463246BFF36F8F60F0CAFE02F0B5
:101840003DF828463146FFF7BDFE0028E0D104B13F
:1018500026600020F8BD00BF5CEF00E00000809330
:10186000494F5456E0FF3F0010B501F09FFF02F0D2
:101870001BF809494FF48052086889688B69074949
:10188000984710B16FF0040402E0FFF777FF0446B9
:1018900002F014F8204610BDD8410F0200008093DA
:1018A000014801210170704714250122D4D4D4D4F9
:1018B0002DE9F0412DED048BA0B0DFF89C830446A8
:1018C00098F80000C00725D0002588F8005002F0E5
:1018D0005FFDA8F80150002C00F02B8108F11804DE
:1018E000204600F0C2FE204600F070FE002800F006
:1018F000BE8098F80200002840F01B810120D84CDF
:1019000088F80200DFF8C0137222204660F061FE02
:101910002046A5E098F80100032800F08680022800
:1019200002D00028D7D004E102F030FD002800F0FA
:10193000C08098F8030020B9012088F8030001F066
:1019400005F998F80400C00729D0C54CC6492B22D8
:10195000204660F03EFE00F062FB02AE60213046A1
:1019600002F0A6F90546C14A2046A021334662F09E
:1019700051FB00F054FBD8F80C0068B1012102AA19
:10198000002D51EA119153F0A7FED8F80C0053F046
:101990007BFC0020C8F80C00002088F804002AF026
:1019A000C5FCB3494FF47A7209685143D8F808204E
:1019B000801A8842C0F0BD802AF0B8FCC8F8080040
:1019C00054F0D6F9002800F0B480044605F0F8F988
:1019D00000260546029648B102A81CA9CDE90010D0
:1019E0001FA91EAA1DAB002005F0F0F91FA81DA914
:1019F0001EAA1CAB05F096FBCDE91A661BA81AA916
:101A000005F0A6FB002800F099809A499FED900B05
:101A1000204654F045FA9DED1A0A98492046B8EE42
:101A2000C00B54F03DFA1B9A9EE0D8F810402AF003
:101A30007DFC002C45D0D8F81010401A44F62061E7
:101A4000884276D30024C8F8104002F0A1FC8448F4
:101A5000824988F80140024678C978C20978117035
:101A600020B0BDEC048BBDE8F04103F029BAD8F8F2
:101A7000200096497A4C012688F80160D8F8183081
:101A8000CDE90001924A2046A02162F0C3FA00F09D
:101A9000C6FA904842F2107102F0B2FAA0B1704C4E
:101AA0008D492922204660F094FD00F0B8FA00200C
:101AB0003DE06C496A480246F8C9F8C209781170DD
:101AC00032E0C8F8100034E002F026FB644CCDE9A7
:101AD0000001824AA021204662F09CFA00F09FFAA1
:101AE00002AD284602F02FFB8DF81C607C4808F1FF
:101AF000180611907B4810904FCE03AF0C930E96B2
:101B000007C7284602F028FB18B15548764921221C
:101B100007E002F0F9FB002800F08A805048734982
:101B2000292260F056FD4E4803F0CAF9032088F8D8
:101B3000010020B0BDEC048BBDE8F08100EE105A2E
:101B40004C4900F063FA9FED4C0A9DED021A4B4997
:101B5000204621EE000AB7EEC00A54F0A1F9484829
:101B60004849002D50EA01824749484D2046A84780
:101B70001F9A47492046A8479DED1D0A454900F098
:101B800045FA1E9A44492046A8479DED1C0A434940
:101B900000F03CFA42489FED2E8BB0EE489B006867
:101BA00030B14049B1FBF0F100EE101AB8EE409BA5
:101BB0003D49096839B14FF47A72B2FBF1F100EE98
:101BC000101AB8EE408B00EE100A3849384D00F07C
:101BD00022FA38492046B0EE490BA847364920463C
:101BE000B0EE480BA8472AF0A1FB4FF47A71B0FB86
:101BF000F1F0324900EE100A00F00DFA29F09AF8DF
:101C000000EE100A2E4900F006FA98ED050A2D495B
:101C100000F001FA2046002153F0F0FC20B9D8F87A
:101C200014000130C8F81400204654F083FA80E70D
:101C30002F4821466CC86CC10088088000F0EFF97D
:101C40000020C8F80800022071E700BF00BF00BFF5
:101C50000000000000000000142501228C92070201
:101C600074240122808E0702308E0702422607026A
:101C70000000002210FE06020000C842606D07024C
:101C80009E07070222FE0602A8CF06027560050223
:101C9000CE7F06023EE00602C87407024E1D070210
:101CA00044510C2240420F001CBE0122605F07021B
:101CB000A15E05025B1D07028677060276C7060253
:101CC000B03C07021915070218920702C1740702F7
:101CD0003E2E070275A706027496070282A7060227
:101CE000F51C0002151E000250900702A096070284
:101CF0004494070270B5A0B0044653F029FF05468E
:101D0000204653F039FF002D65D0344E0446344A46
:101D1000A0212B46304662F07DF9304603F0D0F822
:101D2000304928460D2260F004FF80B12E49284634
:101D300060F02AFCB8B12D49284660F025FCE0B1DE
:101D40002B49284660F020FCB8B32A4A12E005F17E
:101D50000D0060F058FE411E0909E02909D82B4901
:101D60002B4A08602CE0264D2879C0071DD0254A53
:101D700000E0254A2046012124E01FA81DA91EAA33
:101D80001CAB05F0CFF9DDE91C20DDE91E138DE861
:101D9000070004AD194A6021284662F03BF920464D
:101DA00002212A4653F098FC15E0E86853F06CFADB
:101DB0006CB1204654F0D2F90AE005F091F90E4AD0
:101DC0002046022120B0BDE8704053F085BC0020C1
:101DD00001212971E86020B070BD00BF7424012288
:101DE000923C070278770602A73C07020E1507020D
:101DF000B30D0702A94C07029DA70602FAFD0602D1
:101E0000142501220A540702411D07020000002286
:101E100077BE06022DE9F04F87B00021044653F04B
:101E2000F3FD06462046002153F03EFE0746674874
:101E3000002F57EA1085204653F09EFE80466448E6
:101E4000002E56EA1083634C634A00952046A02179
:101E500062F0E0F800F0E3F8E6B3DFB3B8F1000FAA
:101E600004D040460221002253F000FC0024CDF8AB
:101E70001080069406A805F02BF9059481464FF0D2
:101E8000FF330124DFF84CB1DFF878A10DF114081D
:101E90005D4D032C29D843B3022C0CD35846A02106
:101EA0005246234662F0B6F8584603F009F840F669
:101EB000B8302AF083F8069839462A4647F230535C
:101EC000CDF80880CDE90090304600F009FC0346CB
:101ED0000134DEE7B8F1000F41D0404A404601210D
:101EE00007B0BDE8F04F53F0C1BB63B1394C434A72
:101EF000A021204662F08EF800F091F8049870B3AB
:101F00003F4A042129E0334C059B354AA021204655
:101F100062F080F800F083F80599049E222904D32A
:101F2000D9F800002F4A90421CD0484605F0B4F87A
:101F300078B10446274D2D4AA0212846234662F059
:101F400069F8284602F0BCFF4EB130460421224613
:101F500003E026B1264A3046032153F087FB07B041
:101F6000BDE8F08F99F8080099F8092010430CD0CB
:101F7000184C20493F22204660F02BFB00F04FF820
:101F8000002EECD01C4A3046BBE7D9F81240002C9A
:101F9000EED0B9F81C00B9F81A2010441E3002190E
:101FA0008A42E5D809EB00014846224660F01AFB58
:101FB000084D0D4AA02123460594284662F02AF8D0
:101FC000284602F07DFF0599AFE700BFACAD0602E1
:101FD00071900602742401225EE70602D6B506025D
:101FE0007A070702504B0304C00D0702B8A7060288
:101FF00067260702E88E0702B94C07023D5F070219
:10200000572607027A960602BB6807022046B8EEFA
:10201000400B53F045BF2046B8EE400B2847204602
:1020200002F04EBFF8B50748029009494FF400622C
:1020300000230548019001200090044829F076FD16
:102040008FBD00BF40250122B0250122552000028E
:10205000B186060230B4ADF5845D84B040F6B83088
:1020600029F0ACFF844802F02BFF04AC834FDFF86B
:102070009492DFF874B2DFF874A2DFF8748204F18E
:102080000800029004F10900039024AE204680214C
:10209000012200F03BF90028F8D4204639460522F9
:1020A00060F012FD30B19DF810503F2D06D19DF823
:1020B000110018B9484602F003FFE7E720467049CF
:1020C000052260F001FD002842D020466D4908221B
:1020D00060F0FAFC00287AD020466B49092260F0B3
:1020E000F3FC00287AD020466849092260F0ECFC15
:1020F00000287AD020466649092260F0E5FC0028D5
:1021000000F0848020466349082260F0DDFC00284E
:1021100000F08B8020466049062260F0D5FC002844
:1021200000F0928020465D49062260F0CDFC002838
:1021300000F0908020465A49072260F0C5FC002834
:1021400000F09280002DA1D0564802F0B9FE9DE724
:102150000325644FBDB157F8049B31464FF48052BC
:10216000484600F0D5F9002856EACB804FF480614C
:1021700042464B460090504661F04CFF504602F0FC
:102180009FFE013DE6E7514800F06AF900285948F2
:1021900050EACB834FF48061574A504661F03AFFD2
:1021A000504602F08DFE454800F05AF90028534889
:1021B00050EACB834FF48061514A504661F02AFFC8
:1021C000504602F07DFE2D4FDFF838915EE7029D0C
:1021D000284660F025FA024641480CE0039D284657
:1021E00060F01EFA02463D4805E0039D284660F077
:1021F00017FA02463748294600F037F900283648D2
:102200002B4950EA018002F05BFE3FE72E4800F0C8
:10221000C1F80128FFF63AAF02462C48284900F0E1
:1022200024F9002822482A4919E0234800F0B2F88E
:102230000128FFF62BAF02462048214900F015F98E
:1022400000281B481F490AE01A4802F039FEFFF730
:1022500027FB1BE700F09AF900281548134951EABB
:10226000008002F02DFE11E70F4800F04DF8C82065
:1022700029F0A4FE00F0E2F8E97D070281260702BA
:1022800048E00602649F060283C70602BF86060274
:102290006A1D07028DC7060210F706027890060233
:1022A00016F706027D5F07026E5F07029C96060224
:1022B000EE450702F64C0702267E0702731D070251
:1022C000B0450122E14C0702BE3C070227FE060290
:1022D00027540702C9860602BA86060273900602D0
:1022E000227E0702D8990702194D0702BCB50122C8
:1022F000771D0702C174070293770602841D070247
:10230000D97F06023ED7060202F0DABD2DE9F84F6A
:10231000154683464E1E4FF0000ADFF870900DF10F
:102320000208002427464FF0FF3002F00BFE082879
:1023300018D00A2820D07F2814D00D281CD0A0F156
:1023400020015E29EFD8B742EDD27C1C0BF80700C4
:10235000002DE7D08DF8020040468DF803A002F072
:10236000AFFDDFE70024002FDCD07C1E002DD9D08C
:10237000484602F0A5FDD5E715B1054802F0A0FDDD
:1023800000200BF807003846BDE8F88F1E7E0702D4
:1023900083E706022DE9F04F99B0DFF888B0224DAF
:1023A0000346224A4FF48061002428468BF80040FF
:1023B0002C7061F02FFE284602F082FD01AEDFF89E
:1023C00078901B4D4FF00A0ADFF868803046602194
:1023D0000022FFF79BFF002802DC002CF6D116E05C
:1023E00007190246A7F6FE7010F5805F10D30BEBBD
:1023F0000400314660F0EDF83046414608222BF8E3
:1024000007A060F061FB7C1C0028DFD105E04D4691
:10241000284602F055FD4FF0FF34204619B0BDE8C4
:10242000F08F00BFB0450122BCB50122D274070273
:10243000327E0702287507024ED906020648BFF30E
:102440004F8F064A016801F4E06111430160BFF358
:102450004F8F00BFFDE700BF0CED00E00400FA0560
:1024600031464FF4805200F053B8F0B59DB00E469F
:1024700015A9154600F030F820B16FF0150420467C
:102480001DB0F0BD002EF8D001F090F910B16FF042
:102490000404F4E701F008FA01F01CFA694615AAF1
:1024A00040F2025348F0A2F86FF00404002810D460
:1024B00001F010FA6F4632462B46394648F092FA40
:1024C000054601F007FA394648F0DCF9284304EAEA
:1024D000E07401F0F3F9D2E7F8B50D46044605269D
:1024E000094F76B102CF204660F04EF8013E002839
:1024F000F7D1064A28462021234661F08BFD0020B3
:10250000F8BD6FF01500F8BDE4990702B5CF0602DB
:1025100070B59EB00C4616A91546FFF7DDFF20B139
:102520006FF0150528461EB070BD002CF8D0022DA6
:10253000F6D301F03BF910B16FF00405F2E701F0BA
:10254000B3F901F0C7F901A916AA012348F04EF822
:10255000B0F1FF3F14DD01F0BDF901AE6B1E224664
:10256000314648F00FFA054601F0B4F9314648F01B
:1025700089F901F0A3F9002DDED400206055D1E7E0
:1025800001F09CF96FF00105CCE7D4D470B588B0A8
:1025900001F00CF910B16FF0040013E001F084F9C0
:1025A0000525094E6C4655B101CE2146FFF794FF33
:1025B00001F090F9214647F0A1FF013DF3E701F05A
:1025C0007DF9002008B070BDE4990702B0B5142170
:1025D00004465FF0F0FF1448144D1021A847206016
:1025E00013484021A847606012484021A847A060D6
:1025F00011484FF48051A847E06010484FF48051D3
:10260000A8472168206141B1616831B1A16821B159
:10261000E16811B108B10020B0BD204600F025F8F6
:102620006FF00100B0BD00BF227E0702412600020C
:1026300073900602C986060227FE0602731D070272
:1026400070B5064608460D4628F042FA50B10446D9
:1026500030462A462146FFF75BFF002803DC204670
:1026600028F0ECFA0024204670BD10B5044600683E
:1026700008B128F0E3FA606808B128F0DFFAA06832
:1026800008B128F0DBFAE06808B128F0D7FA206931
:1026900008B128F0D3FA204614215FF08CFF10BD5A
:1026A00001490860704700BFB055012210B588B0DD
:1026B0000F9C07940E9C06940D9C05940C9C04940E
:1026C0000B9C03940A9C02944FF400540194034C15
:1026D000009400F017F808B010BD00BFB4550122F7
:1026E000B0B588B000240794CDE905440C9D0E9C3C
:1026F000029504940D9C0394CDE9005400F002F877
:1027000008B0B0BD2DE9F043ADF2A45D29AC884618
:1027100005464FF4A0611E46174620465FF04BFF6A
:1027200028941EA820215FF046FF4E48002F006825
:1027300050EA0780209018B15FF072FF013000E08E
:102740000020494927912190012E40F2BB124749B0
:102750002691B8BF42F21076CDE9006628AE1EABD6
:102760002946304632F016FE60B10146404861F01D
:102770001DFC404861F01AFC3F4861F029FC4FF015
:10278000FF3455E03D4800241B901D961C94129484
:102790003821DDF8C495DDF8C07539481A9002AECD
:1027A00030465FF008FF03201490179535481390CA
:1027B00028465FF035FF18904046CDF854805FF012
:1027C0002FFF19941690CDE9107910A813A937F0AE
:1027D00055FB40BBCDE90279CDE900641AA810A9E8
:1027E0000022002337F08CFEBDF8281090B9A1F12B
:1027F000C80063280ED8DDF8D435F3B1DDF8D8254C
:10280000DDE90801DDF8DC55984704466DB109980B
:1028100028600AE0164861F0C9FB1B4861F0C6FB5E
:10282000154861F0D5FB4FF0FF3428A833F0F8F8D5
:1028300020460DF2A45DBDE8F083DDF8C80578B14F
:10284000099CDDF8CC158C4202D96FF00B04ECE743
:1028500008992246DDF8D0555FF0C4FE05B12C6022
:102860000024E2E7B0550122CDCF0602C1CF060217
:10287000A1770602234D0702CE860602FD5B030206
:10288000155B03026D6D0702862607022DE9F043F2
:1028900093B004460DA818215FF08DFE07A81821FB
:1028A0005FF089FE2078D4E90212012803D10DA837
:1028B00051F09EF802E00DA851F092F8074680BB57
:1028C000002606960DAD284651F012FC0746284614
:1028D00051F026FC014641F6FF70D4E90523019032
:1028E0000DF11808DFF8A4900596CDE90366CDF840
:1028F0000880CDF800903846FFF7D8FE20B1074693
:10290000284651F069FC0CE0069800214A4609F877
:10291000006007A851F074F807460DA851F05CFC60
:102920001FB1384613B0BDE8F083216907AD2846D2
:1029300051F02EF90028E2D10026069607AD284670
:1029400051F0D6FB0746284651F0EAFB014641F616
:10295000FF70D4E90523CDE90090CDE90286CDE9E9
:1029600004663846FFF7A2FE0028C8D1069809F889
:102970000060484651F04CF908B1074603E00348AF
:1029800000F00CF8002707ADBAE700BFB4550122EC
:1029900001490860704700BFB47501222DE9F84372
:1029A00051F0BFFE78B3DFF8008181463F4C4046CE
:1029B000A04708F10400A04708F10800A0473C49DF
:1029C0003C4D4846A8473C49A8473C490446A847CF
:1029D0003B49A847054651F017FC30B1284651F055
:1029E0000BFC00F08AF8C8F800003649204652F087
:1029F000CEF8354952F0CBF8044652F0F7F9D0B38F
:102A00001CB1A76802E0BDE8F883002700262F4D1F
:102A10002F4C97B13846294652F0B9F851F0F4FBE3
:102A200048B138462146002E57EA068652F0AFF8E4
:102A300052F0D4F918B13F68EBE70EB91BE03E46FF
:102A40002249304652F0A3F851F0D6FB00F055F879
:102A5000C8F804001E49304652F099F852F0BEF909
:102A600048B11C49304652F092F851F0C5FB00F0D5
:102A700044F8C8F80800D8F8000078B1D8F8041075
:102A800061B1D8F80800144A144B002852EA0382B6
:102A9000134861F08BFA134861F09AFA4846BDE892
:102AA000F84351F0D1BB00BFB88D0122E92A0002E2
:102AB000F64507028F4B05027E90060284BE060291
:102AC0004DE00602D0860602D3A70602D386060290
:102AD000DBA706025AD90602ACAD06028BBE06027F
:102AE000497E0702CE86060210B50446006818B17A
:102AF00028F0A4F80020206010BD70B570B1044625
:102B00005FF08EFD451C284627F0E2FF30B12146DC
:102B10002A4606465FF05DFD304670BD002070BD60
:102B200080B552F04FFD60B1016A51B101680020DB
:102B300031B105490A681AB1486800285FEA0F9068
:102B400080BD002080BD00BFB88D0122BFB552F00E
:102B500039FD044600200390CDE90100FFF7E0FFB6
:102B6000B0B12168206A01AD2A4600F027F804467A
:102B70000F481049002C50EA01820F48214661F0AD
:102B800015FA0A4861F024FA284600F0C7F807E071
:102B9000054861F00BFA054861F01AFA6FF05E041F
:102BA000204604B0B0BD00BF3C540702CE860602EA
:102BB000F8450702ACAD0602CA3C07022DE9F04316
:102BC000ABB0002714460E46ADF822700BA90AAA36
:102BD00000F05EFB0546002879D13F480690079635
:102BE000DDF8288009A90122CDE90027CDE9027787
:102BF0000DF12200CDE904100BA906AB424637487F
:102C000000F054FCBDF82270054648BBC82F27D100
:102C1000394851F086FD3949394F0546B847394999
:102C20000646B847DFF8E080C047DFF8E090C847C5
:102C3000206037493046B847C047C84760603549CB
:102C40003046B847C047C847A060284651F0FCFA54
:102C5000206870B3606860B3A06850B3002536E0A8
:102C6000DFF87C901F4C29464846A0471E4839464D
:102C7000A0471E4F384661F0ABF948460021A047F7
:102C80001B480BA942463346A047384661F0A0F9DD
:102C9000099848B1124800F085FD1648164961F0C0
:102CA00085F9124861F094F9002D08BF6FF00C050A
:102CB0000DE00B4800F076FD174861F077F90B48FE
:102CC00061F086F9204600F029F86FF049052846A2
:102CD0002BB0BDE8F08300BF663507026D6D0702BB
:102CE000A1770602AD3F0602909F0602CE8606023D
:102CF00095C70602B59F0602B87501221DF70602A8
:102D00008F4B0502961D0702F9410502FB2A0002BE
:102D100083900602B8770602CD9F0602B0B5054D36
:102D20000446A847201DA84704F108002946BDE82D
:102D3000B0400847E92A00022DE9F04FADF2AC5D42
:102D40001D4690468B46044652F03CFC0746002048
:102D5000CDE93E00CDE93C00CDE93A00FFF7E0FEC9
:102D600048B12CB1BBF1000F18BFB8F1000F15D15D
:102D70006FF015050DE0DFF83C0400F013FDDFF8FF
:102D8000380461F013F9DFF8340461F021F96FF0D1
:102D90005E0528460DF2AC5DBDE8F08F204600F0E0
:102DA0005BFA0028E4D020782F28E1D0DFF8100467
:102DB000002D50EA0586386A1AA913AA00F068FAAD
:102DC000002854D0DFF8000400F0ECFCDFF8FC032E
:102DD00061F0ECF8DFF8E40361F0FAF8DFF8F003F3
:102DE00014A90CC80CC1008808803968386A3DAA4B
:102DF000FFF7E4FE05460028CBD1DFF8D80385684D
:102E00003DA907910696002D00F0F08038680890E3
:102E10000026ADF82261DFF8C02314AB30210DF29B
:102E20007C5061F0F7F80DF27C434FF0460E43F210
:102E3000253C41202978C1B3321DFF2A35D82F29DE
:102E400003EB060A06F1030906D03A290BD123F851
:102E500006C08AF8020004E043F2252199538AF85B
:102E600002E04E4601E0995501360135E2E71AA825
:102E7000DFF850135FF093FE0028A3D0451D2E21EC
:102E800028465FF03CFE00289CD0A0EB0509B9F174
:102E9000170F97D80DF1500A29464A4650465FF061
:102EA00098FB00200AF809009FE7002098550DF5CF
:102EB0001F7ACA4A4FF4007108980090504661F09A
:102EC000A9F850465FF0ACFB0DF23B260146504698
:102ED000324600F00FFA002840F0BE8014A8CDE979
:102EE00000060DF595710DF23B19BE4ABE4B3DA88B
:102EF000CDE9020904910DF27C51B94800F00CFAB9
:102F0000002840F0A980B94846900DF5957045908D
:102F1000B748CDE94360B748CDE94190B648409005
:102F20003F98479050465FF07BFB0DF591710591FE
:102F3000AC4A49A9CDE902A0B0480190049104200F
:102F400000900DF27C5140ABA54800F0AFFABDF8FF
:102F50002251814610BBC82D20D1AC48AC4EB047A1
:102F600005463A90AB48B04781463B90AA48B047E7
:102F70003C9025B1B9F1000F18BF00282DD18D4824
:102F800000F010FCA64861F011F88C4861F020F8C0
:102F90003AA8FFF7C3FE6FF0490561E0854849464E
:102FA00061F004F89648294661F000F8834861F022
:102FB0000FF8499848B17F4800F0F4FB91489249D6
:102FC00060F0F4FF7D4861F003F84FF0FF35B9F190
:102FD000000F08BF6FF00C0542E0904860F0E6FF7C
:102FE000764860F0F5FF3AA807907A484368814632
:102FF0000DF27C408B4AC02114AE009661F00AF8B5
:103000003B680DF23B10884AC021009461F002F841
:10301000002823D4BF2821D80DF23B1000F01CF962
:10302000E0B10DF23B27584641463A4600F062F9BE
:1030300090B99FA8CDE90067079E0DF27C410DF283
:103040003B127B4B0DF5807ACDF810A0CDE90260E4
:10305000764800F061F950B1054601E06FF01505C2
:103060003DA8FFF75BFE3AA8FFF758FE91E65F48E0
:10307000CDE910A00DF27C4543465D48CDE90E70C8
:103080000DF23B1729465B480D903A469FA80C90DD
:1030900059480B900020ADF82600B06812906548A2
:1030A00060F084FF454860F093FF04220AA90DF107
:1030B00026000092CDE903810590069A5B482946D7
:1030C000CDE9012B0BAB3A4600F0F0F9BDF82660D4
:1030D000054638BBC82E25D1594EDDF8D0A5B047DE
:1030E0005849054651F05EFE8046B0470746B04756
:1030F00006460DF27C50202153F0A0F828B9524921
:103100000DF27C52384651F00DFEBAF1000F27D077
:10311000504651F006FBF0B102464C49304651F0A2
:1031200092FD1DE02348294660F040FF42483146A9
:1031300060F03CFF214860F04BFF0A9848B11D4801
:1031400000F030FB3D48304960F030FF1B4860F034
:103150003FFF002D3DE73D493046524651F0E2FD2C
:103160003B493046224651F0DDFD3649384632466D
:1031700051F069FD4046394651F04EFD284651F068
:1031800025FB0646284651F05FF886B1D9F80000C5
:10319000314600F029FD304651F092F82D48214685
:1031A00060F004FF054860F013FF002558E76FF05A
:1031B0000B0555E7A177060286E70602CE860602D2
:1031C000DEA70602CA960602716D0702685407025E
:1031D000148E0702B88D0122C3AD0602B2C70602E3
:1031E000712E0702F7A70602C57706027B9F06022B
:1031F000836D07029CBE06026D9F06028E6D07025C
:10320000BE26070253E00602B87501223175070297
:10321000BD360002E7E7060293900602D8AD06022B
:103220009C5F0702B3960602ADAD0602E6B5060244
:10323000809006022CFE060227150702D3E706023D
:10324000894D0502F6450702E90D070250E0060226
:10325000B47706029B2607020178A9B1A1F14102C9
:103260001A2A0FD3A1F161021A2A0BD3A1F130025D
:103270000A2A07D3A1F12D02032A03D37E2901D004
:103280005F2901D10130E7E700295FEA1F9070470D
:103290002DE9F0410D461549904606465FF07FFC4A
:1032A000002818BFC61C30462F215FF028FC0746B7
:1032B00008B1BC1B03E030465FF0B2F904460CB124
:1032C0007F2C03D96FF01500BDE8F0812846314608
:1032D00022465FF07EF9002005492855002F51EA6B
:1032E0000781C8F80010BDE8F08100BFEC0D0702AF
:1032F000F7A7060210B588B014466A46002343F0CB
:10330000F3F810B16FF0040004E06846214600F0C5
:103310000FFA002008B010BD2DE9F04FADF5317D5A
:10332000984614460F46824600F0F6FECDE99C0111
:103330009CA893A95FF056FC96AA0DF2BB2507CA7C
:1033400002F26C730131CDE900104F4A2846092181
:1033500060F060FE93AADDF8F8922B4607CACDE92B
:1033600000210290494A4846112160F053FEDDF8E1
:10337000F0B2DBF808005FF053F900F5007528465D
:1033800027F0A6FB002864D00646DBF80810BB989F
:103390003F4A5346CDE90047CDE90410CDE9020983
:1033A0003046294660F036FE30465FF039F90DF2BE
:1033B0007A25014630462A46FFF79CFF04463046F0
:1033C00027F03CFC002C46D10DF5FE7A0DF2BB2710
:1033D000BA9C304A304E502150463B46CDE9004819
:1033E000B047CDE900A53FA82C4A4FF480714B4669
:1033F000B047DBF8043017AD294A40212846B047D2
:1034000028465FF00DF9014637AB28463A4600F0F2
:10341000A9F9D8B937A82FAB2021224600F0A2F98C
:10342000A0B92FA837AB2021424600F09BF968B91C
:1034300037A81C4A2FAB202100F094F930B92FA8EF
:103440003FAA27AB202100F08DF948B16FF00404AA
:1034500001E06FF00B0420460DF5317DBDE8F08FE3
:103460000DF11B05BD9C27A8294600F061F9DBF88A
:1034700000300D4A20464FF48071CDE900A560F080
:10348000C9FD0024E7E700BF4EFE06025FD9060231
:10349000F7E70602C35F07021540060282E806024C
:1034A000B06D0702EB3C070229F706022DE9F04F49
:1034B000ADF2AC5D03902BAD8A464FF4A0611C4683
:1034C000934628465FF077F8DDF8E00500262A9558
:1034D0002021066020A85FF06EF86B4800682290FB
:1034E00010B15FF09DF8461C68482990239651461C
:1034F00040F2BB126648289044F62060CDE90000F7
:103500002AAE20AB304631F045FF68B10146614834
:1035100060F04CFD6048514660F048FD5F4860F047
:1035200057FD4FF0FF3492E005F1880044F078FD3C
:103530000546DDE9F7704FF0000820B13946FEF787
:1035400027F8034600E00023554829463A46DDF8AF
:10355000D09560F02BFD514860F03AFD51481D9028
:10356000CDE91E86CDF8508038214F481C9004A824
:103570005FF021F803984D4D1590A84716905046DE
:10358000CDF864A0A8471A905846CDF85CB0A8477B
:1035900018904FF4C0501390CDF86C8044481290AE
:1035A00012AE15A9304636F069FC04F1040BB0B92F
:1035B000C84514D25BF8045C28465FF031F85BF82C
:1035C000084B074620465FF02BF80090304629460E
:1035D0003A46234636F07AFD08F10108E7E7DDF8C0
:1035E000D44574B1DDF8E065314F68B920465FF02D
:1035F00017F8009012A82F490C22234636F066FDDA
:1036000002E0DDF8E0652A4FE0B94FF4C050CDE9A3
:10361000047004A9DDF8D825DDF8DC350020CDE9FB
:1036200000101CA812A936F06BFFA8B1014619487A
:1036300060F0BCFC03992048524660F0B7FC174884
:1036400060F0C6FC4FF0FF342AA832F0E9F92046BA
:103650000DF2AC5DBDE8F08FDDF8E415BDF830008B
:1036600008800A9969B10B9D41F2FE72681E904272
:1036700007D838462A465EF0B5FF00247C553560F1
:10368000E2E700243C70DFE7B4750122CDCF0602EB
:10369000C1CF0602A1770602C9770602CE860602CE
:1036A000B76D0702FD5B0302155B030221260602CC
:1036B000B875012243150702EAB50602F0B58DB0D0
:1036C000044601AD174A30212846234660F0A2FC8B
:1036D000154829465FF063FAF8B101AE0546304659
:1036E0005EF09EFF0746114A30463021234660F0C7
:1036F00091FC3D44314628465FF051FA68B1461BC3
:10370000701C27F0E5F9002440B1294632460746EF
:103710005EF05FFFBC553C4600E0002420460DB043
:10372000F0BD00BF94540702B875012248FE06029E
:10373000B0B54A1C20230A4C6BB10578013B2D091A
:10374000655D02F8015C10F8015B05F00F05655D31
:1037500002F8025BF0E7002081F84000B0BD00BF36
:10376000995407022DE9FC41074609201E461446DC
:1037700088463CF0D1F888B1054620465EF050FFFF
:10378000CDE9000628463946424623463CF0CEFAAB
:10379000002818BF6FF00400BDE8FC816FF0040042
:1037A000BDE8FC81002160F001BCD4D4B0B5344D3B
:1037B000686828B905F10801012027F01BFD686041
:1037C0004FF0FF3127F020FE287800284ED12D4CF5
:1037D0004FF483710422204624F058F9642001211B
:1037E00026F0F6FA20464FF48371012224F068F99E
:1037F00001204FF47A7126F0EBFA234A20464FF469
:10380000837124F043F9214A07CA126890470E28B1
:1038100001D00346E0B91E481E4946F0A5FD18B385
:103820001D4C03461D4A6021204660F0F3FB2046F4
:1038300001F046FB1648174946F02CFD20B9144804
:10384000144946F091FD78B10346134C144A01E047
:10385000114C144A2046602160F0DCFB204601F048
:103860002FFB4FF0FF3402E001202870002468682D
:1038700000210022002327F0EBFC2046B0BD00BF52
:10388000248E0122D83C0F220004011C5C420F024E
:10389000E03C0F22E4410F02C48D012250150702C3
:1038A000AA540702E1CF06020348406818B14FF05E
:1038B000FF3127F0A9BD7047248E012204484068DB
:1038C00020B100210022002327F0C2BC704700BFB6
:1038D000248E012200487047E03C0F22F0B59FB0D3
:1038E0006F4E04463078C00701D0002491E0606A32
:1038F000C6E90140F06820B96A49042027F07AFC43
:10390000F060694D4FF4A06128465EF054FE3561C9
:1039100015A820215EF04FFE6069179018B15EF087
:103920007FFE013000E000206049A2881E911890BF
:1039300042F2107006F110055D491D912168CDE934
:103940000000002A08BF42F2B32215AB284631F02E
:1039500021FD50B10146574860F028FB564860F001
:1039600025FB564860F034FB51E00020139014957D
:10397000574A584B52481290524811905248D0E939
:103980000001CDE90E010EA8009011A94F4832F0B8
:10399000DFF9C8BB0A20009006F11C0106F14403C0
:1039A0000A224A4832F0FEF970BB07A81C215EF0DB
:1039B00002FE01208DF81C00A06808905EF030FE29
:1039C000ADF824003C20ADF81E00E06820B10A905C
:1039D0005EF026FEADF82C0000208DF81B000022C2
:1039E00041F288330DF11B00009007A9374832F0EF
:1039F000F9F988B12F48002160F0D8FA364860F014
:103A0000D5FA2E4860F0E4FA284632F009F84FF073
:103A1000FF3420461FB0F0BD206928B30021059176
:103A20000391049001218DF80C105EF0F9FD274DF3
:103A3000ADF81400284632F0C5FE034603A9284617
:103A4000012232F059FB78B101461A48234FB8479A
:103A50002348B847194D284660F0BAFA2169214831
:103A6000B847284660F0B4FA0020707002214FF485
:103A7000006200230120307006F11400CDE900102F
:103A80001A49194828F00CF9012806D1B168002418
:103A90000029BED000208847BBE700F083F8B6E7D6
:103AA0000CB40122748E0122BC8E0122CDCF0602FD
:103AB000C1CF0602A17706027B350702CE86060239
:103AC000FD5B0302155B0302F8990702BCB30122F8
:103AD000F13A0002F53A0002D0960602AD3F060226
:103AE000E67706025BFE0602393B0002EAAD0602FB
:103AF00028F01CBC087800F0F00130290ED110B578
:103B000054680B48216960F051FA0A4860F060FA85
:103B1000D4E90301BDE8104051F0B2BE402804D101
:103B20000248816809B10320084770470CB401229C
:103B3000F59F0602CE86060270B5154E154C7078BC
:103B4000F8B900F0AFF8204632F087FC0546F0687F
:103B500027F05AFB0DB10B2D03D10A2028F02EFAC5
:103B6000EDE70D48294660F021FA0C4860F01EFA96
:103B70000B4860F02DFA00203070B16809B10120C7
:103B8000884700207061BDE8704028F0B5B800BFDC
:103B90000CB40122BCB30122A1770602F4AD0602E7
:103BA000CE86060210B50B4C012060702078C0074D
:103BB0000ED0094832F026FC04F1100031F030FF3D
:103BC00000202070A16819B10120BDE8104008470D
:103BD00010BD00BF0CB40122BCB301220148007823
:103BE000704700BF0CB4012270B586B0274E054661
:103BF0000029307848D0002D46D0C00744D000209E
:103C00000390CDE901000C46706820B1006A0028DD
:103C10005FEA0F9000E001208DF80400284602952D
:103C20005EF0FEFCADF80C00204604945EF0F8FC5B
:103C30000590B069022809D80130B06129462246B2
:103C4000134860F0B3F9134860F0C2F900F02AF8A5
:103C5000114C204632F0B6FD024601A9204632F052
:103C6000C9FA0446F06827F0CFFA6CB10B48214638
:103C700060F09CF90A4860F099F9064860F0A8F9EC
:103C8000B16809B10220884706B070BD0CB40122AA
:103C9000A21D0702CE860602BCB30122A17706024E
:103CA00000B60602F0684FF0FF3127F08BBBD4D48A
:103CB0002DE9F84F2DED048BBCB0844A1268002A20
:103CC00000F0AD8002F1A0084FF00009DFF800C25B
:103CD0004FF4B46EFC24F825CDE90510B9F5F07F5A
:103CE00020D009FB0EC64FF4F0774046AFB130F854
:103CF000023B013F03F01C02D90041EA9201B1707E
:103D0000C3F3412204EAD3011144717005EA13217F
:103D100041EA533106F8031BE8E708F5A06809F10A
:103D20000109DBE79FED6B8A002403F049F8079057
:103D30000798844254D008A80DF1EA01CDE900109B
:103D40000DF1EE023BAB20460DF1C20103F03EF84F
:103D5000BDF9EE00022100269DED089A00EB8000DF
:103D600090FBF1F5BDF9EA00A84600EB800090FB5E
:103D7000F1F000EB0509BDF9C20000EB800090FBFB
:103D8000F1F7BDF9EC00BA4600EB800090FBF1F0D2
:103D900000EB070BF01C1BD038465946424600F09A
:103DA000B9F809EB06023846594600F0B3F8504618
:103DB00029464A4600F0DCF80BEB060029464A4645
:103DC00000F0D6F80AF1010A08F10108013EE1E726
:103DD000B4EE489AF1EE10FA39FE088A0134A7E7EA
:103DE0003D4801904FF4F0714FF4F07203233B48CB
:103DF0000090374800F0EAFA0446012816DB00F08C
:103E00008BF903460DF1C200354A282160F002F912
:103E100034480068B8B13449B1FBF0F114E010B196
:103E20003B4A60F0F7F86FF00A0547E0069820B1CA
:103E30000599364A234660F0EDF8002C08BF6FF074
:103E4000040425463AE00021284A126822B14FF4C2
:103E50007A73B3FBF2F200E000229FED250A01AB7A
:103E600028EE000A07C3234AA021BDEEC00A8DED4B
:103E7000000A08AD079B284660F0CCF80DF1C2009F
:103E800016491D4B22460095FEF756FF054606983B
:103E9000A0B11DB10599194A2B460DE0079BA10A57
:103EA0000091174A17490193012B52EA0181164AE2
:103EB0000DF1C2030291059960F0ACF828463CB0C0
:103EC000BDEC048B01B0BDE8F08F00BF34BE012211
:103ED0000000006800000000E0AD0A00008C0A68E5
:103EE00068E0060244510C2240420F001CBE012231
:103EF0000000C84208D00602B71D0702B3BE060282
:103F0000ACAD0602B1BE060212A0060215B606024C
:103F10003D750702002A27D453090E2B24D810B56B
:103F200021EAE17120EAE07040F2DF134FF4B4645B
:103F3000B1F5EF7F51EAD381B0F5EF7F50EAD3803E
:103F400000EB400302FB04324FF47F44074B1A445A
:103F500000230232884205D802F8033B013022F8E0
:103F6000054CF7E7BDE81040704700BF000000684F
:103F7000002828D443090E2B25D810B522EAE27276
:103F800021EAE17140F2DF1300EB40004FF47F447F
:103F9000B2F5EF7F52EAD382B1F5EF7F51EAD381D8
:103FA0004FF4B46301FB0300074B184400230230B5
:103FB000914206D8037020F8024C00F5B46001313C
:103FC000F6E7BDE8104070470000006870B50A4D84
:103FD000044629689E2903D80848445401312960C1
:103FE0000A2C01D09F2905D304480026465400F02E
:103FF00067FF2E60204670BD78B401227CB4012298
:10400000F0B59DB00E462CF04BFA002871D0054655
:104010000220022111222DF043FF0446013068D016
:1040200004271C9600971CAE204600210022334630
:104030002EF0AEFA204600210122334600972EF0E2
:10404000A7FA16AF1421381D5EF0B5FA2E48189560
:1040500016900AAD2F21681C5EF0ADFA1B208DF87A
:1040600028002946302200231826CDE90076204674
:104070002EF048F830283FD1039603A804A9CDE9D3
:1040800000103022002300250AA920462DF0B8FF99
:10409000302831DB9DF8500000239DF85120002787
:1040A0009DF852609DF8531050EA0F6352EA0F4793
:1040B00056EA0F2510433B4330431D4340EA0106B7
:1040C0001248301A75F1000016D328F02FF94FF47A
:1040D0007A710F4AB0FBF1F0301A65F100018018D7
:1040E0000C4A61F100010025C2E9020101201070B3
:1040F00004E04FF0FF3504E04FF0FF3520462EF08E
:10410000CBF928461DB0F0BD1802007B817EAA8342
:104110008081557C20B5012209480178C9070CD05F
:10412000B0B5D0E9024528F001F94FF47A71B0FB3F
:10413000F1F0001945F10001B0BD002000217047E9
:1041400020B50122704710B5482104465EF033FACD
:1041500001202070206110BD70B592B004465B4E06
:104160004822301D21465EF034FA6068584DA84759
:10417000F064A068A8473065E068A8477065FFF75D
:1041800015FB70B1534800215FF010FF52485FF0FB
:104190000DFF52485FF01CFF4FF0FF35284612B06C
:1041A00070BDA06AA0B3017891B30021CDE90C11D4
:1041B0000A90E16A11B95EF033FA411C0B91D4E91F
:1041C0000C01089011B95EF02BFA411C307809916E
:1041D00070B9002012F03CFE0546414829465FF0C8
:1041E000E5FE3E485FF0F4FE002DD5D10120307091
:1041F00008A826F04BFC28B1014636485FF0D6FEF1
:104200003848C4E738485FF0D1FE34485FF0E0FE3C
:1042100008AD284651F040F805208DF820003348BD
:10422000109033480F90D6E91401CDE90910D4E974
:104230000E01CDE90D01284651F034F8054600285D
:10424000ACD1012086F858002A4D206A002855EA92
:104250000080FEF725FA2848FEF79AFB06F14C028B
:104260000020CDF80500029007CACDE903100592A1
:1042700043F698200790207802285FEA1F908DF877
:104280000400206A002855EA0080069001A8FEF785
:10429000FDFA054638B10F4829465FF087FE1748FA
:1042A0005FF084FE0DE051F08DF902688068144BD8
:1042B000002853EA00811348002A53EA02825FF083
:1042C00075FE06485FF084FE68E700BF30B5012246
:1042D0005D610502A17706026D7E0702CE860602A9
:1042E000E2260702D686060270D9060219410002AC
:1042F000E93B00029CE80602BB680702762E070233
:1043000071900602F83C070280B58AB051F05AF964
:10431000E8B18168D9B142F2B322CDE90012016857
:10432000029141680391406904900B4968464A69CB
:10433000C9690892094A09920029094A52EA018189
:1043400005910021CDE90611FFF7C8FA01E04FF011
:10435000FF300AB080BD00BF30B5012265430002C6
:10436000BB6807020749496C59B110B5C200042463
:10437000054B042838BF23FA02F4E0B2BDE8104030
:104380000847704730B5012201020403FFF726BC3D
:10439000B0B5FFF707FC0B4C94F85800012804D186
:1043A00051F0BAF8002084F85800E06C064DA84798
:1043B000206DA847606DA8470020C4E91300606520
:1043C000B0BD00BF30B50122512606022DE9F04FE5
:1043D00091B0824600201546CDE90F001B9A03F0EC
:1043E000FD061A98012E0E920D9007D103FB01F7DE
:1043F000072A06D86FF00B00109008E06FF0150048
:10440000E1E0724A4260724A026008200F90002088
:1044100008228DF82F208DF83300ADF83100ADF86B
:104420002B00ADF82700032B08BF02208DF83000C9
:104430008DF82E508DF82A100DF12702280A8DF8DC
:104440002D000D23080A8DF829000DAE6149304674
:1044500000F0DEF80F9800210290304600F0FCF8E2
:10446000109E7A1CDDE90EB00146BEB9011D59450A
:1044700003D96FF00B06014610E0DDF834C0564B4F
:104480004CF80030831D5B4502D96FF00B0605E048
:104490004FF4BC762CF801601946002602FB05FE9D
:1044A00001900D98002201254FF6F17300244FF082
:1044B00000084FF000090690CDF81CE0A6455ED933
:1044C000AEEB04004FF6FF7C604550EA3C800444AC
:1044D000089474455FEA1F9EAEB3069CC0F1000EBF
:1044E000BEF1000F2CD0B9F1000F0DD008FB07A0D2
:1044F000484410F801CCB94506BF08F101084FF057
:10450000000909F1010903E04FF001094FF0000C27
:1045100046B9481C58458FBF6FF00B0604F801C020
:104520000026014605EB0C000EF1010EB0FBF3F581
:1045300005FB1305A818B0FBF3F202FB1302CFE74B
:10454000DDE907E4BAE701F1050CDC45069C02D978
:104550006FF00B06C2E7060A049604F801E0214456
:10456000C6430596059E4870360A0396039E0E7153
:10457000059ECE70049E8E7000266146AEE7CDE9A2
:104580000F1645EA02410DA800F066F81098D0B960
:104590000F99019C0D98029B091B0A1F12BAC25069
:1045A0002044FCF7F5FF0DAC0146204600F054F81E
:1045B0000A4920460022002300F02AF8DDE90F0115
:1045C000002950EA018011B0BDE8F08F0D0A1A0AE7
:1045D00089504E47F00D07024944415452D006021B
:1045E000B0B50446C06800B1B0BD1546D4E901209D
:1045F0004319934203D96FF00B00E060B0BD22680D
:1046000010442A465DF0E5FFA0682844A060B0BDD4
:104610002DE9F0410F4619461D461646044600F0A6
:104620001BF8204639460422D4F80880FFF7D8FF4B
:10463000204631462A46FFF7D3FFE06808B1BDE8BF
:10464000F0812068291D4044FCF7A2FF0146204666
:10465000BDE8F04100F000B8E0B509BA01910422CC
:1046600001A9FFF7BDFF8CBD0849007908704FF024
:104670007040EFF3038100EB01600549801542585B
:1046800022F4803242504058704700BF140000228C
:1046900000C30040E0B500BA03220023000CADF8CF
:1046A000050008780DF105018DF80700054823F095
:1046B00032FB08B101208CBD00F006F800285FEA4B
:1046C0000F908CBD483E0F220A49002008704FF61B
:1046D000FF70013802040AD00A78002AF9D00A785B
:1046E00000200870012A08BF4FF4967070474FF4FD
:1046F0009670704714000022BCB540BA0D46ADF864
:1047000006000DF106010222012301240B4823F0CB
:1047100002FB88B9FFF7D8FF08B101240CE0074875
:10472000294601220023012423F0F0FA20B9FFF7E3
:10473000CBFF00285FEA0F942046BCBD483E0F2205
:104740002DE9F84F2DED0C4B804618469B46B0EEF8
:10475000408A16460D465DF063FF074630014FF074
:10476000000A00B207902B48A0F55574BA454BD00B
:104770001BF80A0046212346013942D003F5567240
:1047800093F8543383421346F6D1D2E900690120ED
:10479000019002F10C01CDF80090404632463346BC
:1047A00004F01FFB00EE109A0C20059031B20FFAB6
:1047B00089F20023B8EE400A07980490280128EEF9
:1047C000000A00B2039000200090BCEEC00A10EE78
:1047D000100A00EE106AB8EE400A000128EE009AB6
:1047E00000B20290BCEEC90A10EE100A000100B23D
:1047F0000190404604F01EFBBDEEC90A10EE100AFF
:1048000005440AF1010AB1E7BDEC0C4B01B0BDE86B
:10481000F08F00BF809A07022DE9F04F8DB0059010
:10482000002502F0CDFA0390039885425FD00AA8D4
:104830000BA9CDE9001004950CAA0DF12E03284612
:104840000DF1320102F0C2FABDF930000222BDF9C9
:10485000321000EB800001EB810190FBF2F9BDF911
:104860002C0091FBF2F101F1500700EB800090FB6E
:10487000F2F000EB0906BDF92E00CDE9086900EB66
:10488000800090FBF2F0C4190320CDE9064758B32D
:10489000A246079CB346069E059D80464B46284689
:1048A0002146324600F026F82146324628465B462D
:1048B00054465E4600F01EF8DDF824A0DDF820B076
:1048C0002846394652465B4600F037F828462146CE
:1048D00052465B4600F031F8013C0137013E09F1D8
:1048E0000109A8F10100D2E7049D01359CE70DB054
:1048F000BDE8F08F002B05D410B55C090E2C02D951
:10490000BDE81040704722EAE27240F27F2421EABB
:10491000E17103EB8303A24252EAB482A14251EA5D
:10492000B4811B0203EB410318444FF4FC63914232
:10493000E6D820F8023B0131F9E7002905D410B58B
:10494000CC09042C02D9BDE81040704723EAE37378
:1049500022EAE27240F2DF14B3F5EF7F53EAD48328
:10496000B2F5EF7F52EAD48202EB8204240204EB18
:10497000410108444FF4FC619A42E4D8018000F5FB
:10498000A0600132F8E7D4D41CB5002005F00CFD7E
:10499000184C0021206005F071FD01214FF4F072E8
:1049A000CDE9002120684FF4207313494FF42072A1
:1049B00006F09CFE2068002106F05BFB20680221C7
:1049C000032204F0A5FF2068012104F086FF20687F
:1049D000FF2104F06AFF2068012104F0D1FF206864
:1049E000002104F0E7FF2068002104F0F2FF00201E
:1049F0001CBD00BF603D0F22003A9568BCB5007831
:104A00000021019180071FD0104D2C68FCF7A0FDFC
:104A100001462046FCF7A2FD0D498860FCF798FD91
:104A200028600C484FF4806201680B4801AB28F005
:104A3000E5F948B1019838B108484FF0805101605C
:104A4000BFF34F8FBFF36F8FBCBD00BF8CB501228A
:104A50001CBE0122643D0F2225B0020204ED00E0DD
:104A600070B53C4C4FF4AF21552220465DF09EFDC1
:104A700039483A4A3A4E0168C3888088584301EB66
:104A80004000C2E900100121EFF3108081F310888B
:104A9000316821B9334900220A7040220A70316816
:104AA000314D00220131316080F31088284640F2F8
:104AB000066123F005F80A20012125F089F928462E
:104AC00040F20661012222F0FBFF78204FF47A7158
:104AD00025F07EF92548204923F0E2FF10B1054674
:104AE000062005E0214824F079F928B10546082080
:104AF00000F06EFA284670BD28204FF47A7125F038
:104B000067F9EFF31080012181F31088316811B14A
:104B1000316801393160316821B9124900220A70C7
:104B200080220A70134A80F31088114800F11401A2
:104B30005268683292E868000F4A68C100250F4B3E
:104B40004361C0E90042022101734FF4A07181600A
:104B5000D0E700BF00BABA6864450F0290B50122E1
:104B6000044B0F22140D4040D83C0F22C83C0F22AA
:104B70009CB50122EC450F0240013002BC02280026
:104B80000348044900220068096824F05DB900BFA9
:104B9000EC450F0234BE01220148006806F074B8EB
:104BA000603D0F2280B50448006806F07FF8BDE83C
:104BB0008040FFF7E5BF00BF603D0F222DE9F047C1
:104BC0002DED028B96B0044603F048FC9648002178
:104BD000006826F0CDF9000400F11681FFF7DCFF34
:104BE000DFF8489299F8000050B1002C00F0EC80FA
:104BF00099480368002B46D09848B0FBF3F043E097
:104C00008B4C4FF4AF2120465DF0D5FC894E4FF41C
:104C10000C710125CDE900154FF4A0724FF4A0737B
:104C20002146306806F062FD306806F02DF83068E5
:104C3000B7EE0C0A804B814C14211922A0479FED3E
:104C4000808A30687F4B14215F2200F02FF9306892
:104C50007D4B1421872200F029F930687B4B142109
:104C6000CD2200F023F93068794B142140F2311243
:104C700000F01CF9774840F20E51012222F020FF8B
:104C800089F80050A0E0002075490026096821B18C
:104C90004FF47A72B2FBF1F500E00025009006AC0B
:104CA000704ADFF8C4A124212046D047DFF8848170
:104CB000B7EE008A614F1421F5222346B0EE480A70
:104CC000D8F80000B847694A204624212B46D0472F
:104CD000D8F8000014214FF48872B0EE480A234639
:104CE000B84715A813A914AA12AB02F01BFA02F0D8
:104CF00067F80446CDE9106611A810A902F028FA59
:104D000005461398159B5A4A2821009006AE304656
:104D1000D047D8F80000142140F26312B0EE480AE0
:104D20003346B847149B534A30462821D047D8F819
:104D30000000142140F28112B0EE480A3346B84711
:104D40007DB1119B06AC504A282120465FF062F9E4
:104D500000F0A4F82346FFF7F3FC109B4B4A2046D3
:104D600025E006AD444A2821234628465FF052F943
:104D700000F094F82B46FFF7E3FC002C4BD003A87F
:104D800004A9CDE9001005AA0DF112030DF11601D9
:104D9000002002F01BF89DED031A9FED380A06A8CB
:104DA000374A21EE000ABDEEC00A10EE103A282163
:104DB0005FF030F9D8F80000B7EE000A06AB142116
:104DC00040F2BD12FFF7BCFC1A4C206805F06EFFE4
:104DD000206805F0F0FB16482D4ABFF34F8F00F016
:104DE0001F011144012202EB511E2A4908602030A4
:104DF0000FF005C0BFF34F8F09F1040126480122CF
:104E0000BFF36F8F24F002F8FFF7CCFE16B0BDECB5
:104E1000028BBDE8F0871B480EC80EC5018880785C
:104E20002980A870C6E700BF643D0F2298B5012213
:104E300000BABA68603D0F22F5C70602414700027A
:104E40009A99993F2CB60602A3D90602CA540702C2
:104E50003BB60602D83C0F2244510C2240420F00C0
:104E60001CBE0122FE45070215400602FD77060220
:104E7000A2F70602163D0702577507020000C84256
:104E800081150702208E07026E150702B9F7060288
:104E9000FF77050068EF00E0EC450F02D8F800004E
:104EA000B7EE000A142140F29F127047B0EE480A94
:104EB0002047D4D4014A07CA12681047E0460F02BF
:104EC000F8B51E4E0446706928B906F11801012094
:104ED00026F090F970614FF0FF3126F095FA00202E
:104EE0003061174805688068876820465DF098FB48
:104EF000024628462146B84768B170690021002261
:104F0000002326F0A5F91420142400F061F81420E1
:104F100000F05EF80FE0C82434B1306920B90120F8
:104F200027F04CF8013CF7E77069002100220023CC
:104F3000002426F08DF92046F8BD00BFBCBD01223B
:104F4000E0460F0270B5044600260C4DA868E968DB
:104F5000884206D1A6420DD20A2027F02FF80A3641
:104F6000F4E7A86806496FF39F20085CA96801313F
:104F7000A96070BD4FF0FF3070BD00BFBCBD012205
:104F8000BCB901220179012919D0022913D00429C1
:104F900014D10D49CA688B68D21A0023B3EB922F43
:104FA0000CD18068CA68094B6FF39F229854C86877
:104FB0000130C86070470448012101617047024810
:104FC00001214160704700BFBCBD0122BCB9012274
:104FD0000138162800F26C8080B5DFE800F00C3450
:104FE000252D1A404B30572153171E4714291038CE
:104FF0004F5F3C435B002F484549372251E02D4825
:10500000324951224DE02B48354913E029483549B2
:105010003AE028483A49472243E026482E493FE0F3
:10502000244832495A223CE022483749412238E09C
:1050300020482A49502234E01E48324924E01D48C5
:105040002C4948222DE01B4830493E2229E01948CE
:105050001D494F2225E017481949522221E01548E1
:10506000264919E01348154956221AE011481949F2
:105070005C2216E00F4820494A2212E00D481449EC
:1050800053220EE00B48184942220AE00948184909
:10509000552206E007480849462202E0054809492A
:1050A00054225DF096FA0348FFF70AFFBDE88040FE
:1050B00000BE7047BCB50122CC9607023C910702A6
:1050C000A094070274900702A89807029093070221
:1050D000CC95070270950702E4930702988E0702A9
:1050E000708F0702F892070288990702DC9707027F
:1050F000A0920702288F07024493070258940702E0
:10510000F490070214970702949107023095070262
:10511000A497070210B5044644F6140000F0B8FE48
:1051200000F03F0040EA8410C1B244F61400BDE82C
:10513000104000F097BE44F20220002100F092BE21
:1051400044F202200F2100F08DBED4D4D4D4D4D4A4
:105150002DE9F84F2DED141BDFF8244CDFF8241C4B
:10516000204623F043F9204623F07CFA00F0A4FE09
:10517000DFF8144C00F071FE00F0E2FE00F0FCFEDF
:1051800000F016FF14204FF47A71A047DFF8FC9B63
:1051900043F20310C84700F0FD01DFF8F45B43F26F
:1051A0000310A84743F20800C84740F0800143F2CB
:1051B0000800A84700F051FE43F203101121A84750
:1051C00043F208008221A84705204FF47A714FF07E
:1051D000050AA04743F208004221A84743F2031002
:1051E0000321A84700200790002143F21700A84799
:1051F00043F218000021A84743F234001821A847C1
:1052000043F237001321A84743F208100121A847B1
:1052100043F230603621A84743F231600E21A8479F
:1052200043F23260E221A84743F233601221A847DB
:1052300043F22160E021A84743F20470A021A8476F
:1052400043F203705A21A84743F215707821A8470A
:1052500043F217700121A84743F20B706021A84761
:1052600043F205701A21A84743F6051002210226D1
:10527000A84743F606101021A84743F601100A215B
:10528000A84743F231701221A8474FF45850082123
:10529000A84743F201603321A84743F22D00602163
:1052A000A84743F220605221A84743F21B702021F7
:1052B000A84744F21C705021A84743F6132043210D
:1052C000A84743F618200021A84743F61920F821E3
:1052D000A84743F235601321A84743F23660032103
:1052E000A84743F234604021A84743F222600121DD
:1052F000A84743F601403421A84743F6044028213B
:10530000A84743F605409821A84743F606400021E8
:10531000A84743F608400021A84743F609401C214E
:10532000A84743F60A409C21A84743F60B4040217A
:10533000A8474FF460500021A84743F60100002120
:10534000A84743F602000021A84743F603000421C2
:10535000A84743F604000A21A84743F605003F2169
:10536000A84743F606000721A84743F607009F21F8
:10537000A84743F610000021A84743F6110010216A
:10538000A84743F612000021A84743F61300002166
:10539000A84743F208706421A84743F6082001217A
:1053A000A84744F201000221A84744F205001A214F
:1053B000A8474FF440500021A84743F202001C21A7
:1053C000A84743F20400FF21A84743F20600C32187
:1053D000A84743F20E004521A84743F22E000821BA
:1053E000A8474FF486403221A84743F234001821E1
:1053F000A84745F21F000021A84744F207400421B6
:10540000A84744F20E400021A8474FF4A040A7212E
:10541000A8474FF4A340FF21A84745F28110F2218D
:10542000A84745F282100021A84745F283101421B5
:10543000A84745F284102521A84745F2851024216C
:10544000A84745F286100921A84745F2871009218F
:10545000A84745F288100921A84745F2891075210F
:10546000A84745F28A105421A84745F28B10E02145
:10547000A84745F28C10B221A84745F28D10422171
:10548000A84745F28E103D21A84745F28F105621BE
:10549000A84745F290104621A84745F29110F821FF
:1054A000A84745F292100421A84745F293107021B5
:1054B000A84745F29410F021A84745F29510F02135
:1054C000A84745F296100321A84745F297100121FD
:1054D000A84745F298100421A84745F299101221D7
:1054E000A84745F29A100421A84745F29B100021D5
:1054F000A84745F29C100621A84745F29D1082213D
:10550000A84745F29E103821A84745F281301E2158
:10551000A84745F282305B21A84745F28330082135
:10552000A84745F284300A21A84745F285307E21FC
:10553000A84745F286308821A84745F287307C216C
:10554000A84745F288306C21A84745F289301021E0
:10555000A84745F28A300121A84745F28B309821AF
:10556000A8474FF4A6400821A84745F20130302152
:10557000A84745F202301021A84745F20330002128
:10558000A84745F204300821A84745F205303021EC
:10559000A84745F206300821A84745F207301621F2
:1055A000A84745F209300821A84745F20A303021C2
:1055B000A84745F20B300421A84745F20C300621DC
:1055C000A8474FF4A9400121A84745F2814008218E
:1055D000A84745F282401421A84745F2834028217C
:1055E000A84745F284405121A84745F285406521EE
:1055F000A84745F286407121A84745F287407D21A2
:10560000A84745F288408721A84745F28940912163
:10561000A84745F28A409A21A84745F28B40AA2123
:10562000A84745F28C40B821A84745F28D40CD21CE
:10563000A84745F28E40DD21A84745F28F40EA2178
:10564000A84745F290401D21A8474FF4AB400621E2
:10565000A84745F283504021A84745F284501021C5
:10566000A84745F289501021A84745F28A500021E9
:10567000A84745F28B50F821A84745F21D000421A8
:10568000A8474FF4B0402321A84745F60100142154
:10569000A84745F602000F21A84745F603000F2151
:1056A000A84745F604001221A84745F60500262123
:1056B000A84745F606000C21A84745F60700082133
:1056C000A84745F608000521A84745F60900052129
:1056D000A84745F60A000821A84745F60B000D210A
:1056E000A84745F60C000821A84745F60D00032100
:1056F000A84745F60E000021A84745F60F000021F7
:10570000A84745F610000321A84745F611000921D6
:10571000A84745F612000721A84745F613000321C4
:10572000A84745F614000021A84745F615000121B9
:10573000A84745F616000321A84745F6170008219B
:10574000A84745F618000D21A84745F6190008217D
:10575000A84745F61A000521A84745F61B00062173
:10576000A84745F61C000821A84745F61D000E2154
:10577000A84745F61E002921A84745F61F00172116
:10578000A84745F620001121A84745F62100112120
:10579000A84745F622001521A84745F623002821F1
:1057A000A84745F624004621A84745F625002621AE
:1057B000A84745F626000821A84745F627002621D8
:1057C000A84745F628006421A84745F62900262168
:1057D000A84745F62A002421A84745F62B00222198
:1057E000A84745F62C002421A84745F62D00242182
:1057F000A84745F62E000621A84745F62F0022218E
:10580000A84745F630004021A84745F6310042211F
:10581000A84745F632002421A84745F63300262143
:10582000A84745F634002421A84745F63500222133
:10583000A84745F636002221A84745F6370026211D
:10584000A84745F638004421A84745F639002421E9
:10585000A84745F63A002621A84745F63B002821EF
:10586000A84745F63C004221A84745F63D00CE2119
:10587000A84745F225000021A84743F60F20302114
:10588000A84743F610202821A84743F61B203021C3
:10589000A84743F61E202621A84743F61120602181
:1058A000A84743F61F201421A84745F23D000421D4
:1058B000A8474FF490400421A84743F20700FB217A
:1058C000A84743F217000021A84743F21D00FF211B
:1058D000A84745F20100A321A84745F20100C847A7
:1058E000044643F23400C84700F00F00B646B0FB50
:1058F000FAF960090B904FF0FF300C9000200690F1
:10590000BEF1000F00F0968001210122C8B20828E4
:1059100000F2878091FAA1F0B0FA80FA0891012094
:1059200008287BD80E210990002975D00E230A91F2
:10593000002B6FD003FB00FB4FF001080D93B8F173
:10594000080F63D808FB01F008FB0EF1364B042565
:10595000B3FBF1FCB3FBF0F7FC2D9EBF0CFB05F095
:10596000324988424BD807FB05F4B0FBFBF03049C5
:10597000091AB4FBFEF048BF4942B0FBF9F626FA1B
:105980000AF0B6FBFBF3B3FBF0F606FB10333BB9B2
:105990000D9BB4FBF3F3B3FBF0F404FB103020B128
:1059A0007F2D52EA92900544D6E70B9B0122F6B276
:1059B0007046E4B2022E03F0010E08BFBEF1000FE4
:1059C00008D0012E04D1BEF1000F01D0022C03D06B
:1059D0008646E5E7082CF4D10C9B86469942DFD831
:1059E00008980C910195CDF81CE0CDF81480029038
:1059F0000A9804900D98039009980690D0E7B8F1A2
:105A0000030F52EA92900A99804498E70D9B0998F7
:105A1000013B8DE7013987E7400081E7089949009C
:105A200074E7AEF1010E6BE700366E010008AF2F90
:105A300040E0060B0598DDF81CA0D649C7B207FB6D
:105A40000AF0B1FBF0F00199CEB2D34970430131B5
:105A5000884280F067810299039D049C069BDFF8D1
:105A60004883EAB25FFA81F9E1B201FB09F15A43D6
:105A7000B0FBF1F1B0FBF2F0C8F800108142C0F0C9
:105A80005881CA494018CA4948BF4042884280F0FC
:105A9000578145EA0410BE4CC1B243F23500A0471D
:105AA00043F236003146A0470598BAF1020F08BF0D
:105AB00040F01000C1B243F23700A047082F00F2B7
:105AC0005481012404FA07F010F4AF7F00F04D81F7
:105AD000069DB94810F80910405D00F00F0041EA3A
:105AE000001143F2081000F0BDF904FA05F010F4BB
:105AF0008B7F00F02C81012000FA09F010F48B7FDD
