:020000040200F8
:100000004025012251490602414706025B4906028A
:100010005B4906025B4906025B4906025B49060230
:100020000000000000000000000000002DEB0402B2
:100030005B4906020000000045EB0402ADEB040240
:10004000D3200602612206028123060269240602E9
:10005000272E060235FD040263FC0402BBFD0402E8
:100060000DFE040221390602A3390602F739060201
:10007000A33B06024FF704021BF804027D070602A9
:10008000FD070602DD0806025D090602DB0906021D
:100090008BF20402C1170602591906025919060209
:1000A00060340B0260340B0260340B0260340B02CC
:1000B00060340B0260340B0260340B02388E0B028A
:1000C00000000000C8640B020BC00002000000002A
:1000D00090820B020000000066D20A0200000000BD
:1000E000C91A0B0200000000647F0C02000000002F
:1000F000CB4C0C029979825AA1EBD96EDCBC1B8FD8
:10010000D6C162CA0000000001B30B02000000006B
:1001100016420B020000000000000000000000007A
:1001200000000000000000000000000095360B02F7
:100130000C0000009C000022000000007BE6010291
:100140008FE6010299E60102B49408224000000003
:100150002000000001000200000000000A00000072
:1001600000000200F1350302000000000000000062
:1001700001000000FFFFFFFF43414D3A206272691A
:100180006768746E657373202D3E20686967680D1B
:100190000A0043414D3A206272696768746E657364
:1001A00073202D3E206E6F726D616C0D0A00000091
:1001B0006275696C74696E00000000000000000048
:1001C000010000006275696C74696E002D0000000A
:1001D000000000000000000000000000000000001F
:1001E0000000000000000000000000002F1C0C02B6
:1001F000B3550C0271110B02C69B0C02777B0B02EC
:100200003E650C027D110B02827B0B02522E0B020B
:1002100020050B026B4C0B02BED80A0235F00B0214
:1002200041F00B02F9D30B0286110B025F450C0261
:10023000877B0B02E7350C02CEB80B02548C0C0204
:10024000608C0C02DD210B0228050B0206C40B0298
:10025000616C0B024B880B0230050B02616C0B02C8
:100260006C6C0B0275950B02FFA90B02BE390B02D9
:10027000E8210B0257880B02615C0B02C8D80A0206
:10028000F3210B0283FE0B024B650C02562E0B0270
:1002900034050B02D1D80A0209AA0B0209AA0B02E3
:1002A00047F00B021D290C02562E0B021B770C0285
:1002B000D4F30A02658C0C0290FE0B02746C0B02E4
:1002C000351C0C028B7B0B0229770C0254F00B02BD
:1002D000CA390B023D050B0208D40B021DE10B02CB
:1002E00059650C0269650C0235770C02602E0B0211
:1002F00029E10B0275650C025A0E0C027E950B0269
:10030000826C0B02441C0C020FC40B0213D40B02B0
:1003100033E10B0213D40B02B9E70A024F1C0C02A3
:10032000BC550C02D7D80A026C5C0B026C2E0B0277
:1003300089950B028C110B029A110B02C5E70A0278
:10034000792E0B025E880B0221D40B02CDE70A0244
:100350009CFE0B02D3E70A02660E0C0293950B0279
:10036000754C0B02D29B0C02DCD80A0218C40B029B
:100370002A290C02D8B80B027F2E0B02EE350C0294
:100380009D950B02DEF30A02765C0B021FC40B0282
:100390007F5C0B0268880B02A4950B02855C0B0244
:1003A000FE210B02C8550C028C6C0B02D7390B02D4
:1003B00066450C023FE10B0249050B02852E0B023C
:1003C000997B0B024FAB0C0252050B027E4C0B02C9
:1003D0006F880B02A5FE0B02AE950B0279880B020B
:1003E0005EAB0C02A27B0B0242770C020A220B02CC
:1003F000F9350C0282650C02E2B80B02591C0C02A2
:1004000016220B026AAB0C02E4D80A0227C40B02C4
:100410005FF00B028B4C0B0203360C02915C0B025B
:100420000D360C028C2E0B02E8B80B02F6B80B024C
:1004300010AA0B02A97B0B0270AB0C026C450C02DC
:10044000AA110B02DD390B021DAA0B02BC950B028F
:100450006DF00B026F8C0C027BAB0C02BC950B0297
:10046000962E0B02D1550C0227AA0B0244E10B0277
:10047000ECD80A0251E10B02934C0B0258E10B023B
:100480004E770C0216360C02E6390B02C4950B02AD
:1004900061E10B0282880B02DD550C02E6F30A02D1
:1004A0002ED40B0223360C02CC950B02FEB80B02A5
:1004B000ADFE0B0234D40B029B5C0B02956C0B025D
:1004C000956C0B02956C0B02956C0B02956C0B02F4
:1004D000956C0B02956C0B02956C0B02956C0B02E4
:1004E000956C0B02956C0B0230290C0231C40B0287
:1004F000956C0B02B7FE0B02DCE70A022C360C02ED
:100500002C360C022C360C02956C0B02956C0B02EF
:10051000956C0B02956C0B02956C0B0279F00B023B
:1005200058770C0258770C0258770C0258770C0257
:1005300058770C02A75C0B02B1110B021E220B02B2
:100540006D0E0C027FF00B02BC950B02B8110B0272
:10055000BFFE0B02BC950B02BC950B02BC950B02B7
:10056000BC950B0268E10B029D6C0B02E1E70A02ED
:1005700062770C02E7550C023FD40B0239290C02BA
:100580008DF00B028DF00B0231AA0B0231AA0B0287
:100590006B770C0242290C0246D40B02EDE70A02EB
:1005A0008B650C026FE10B026FE10B02DE9B0C020C
:1005B000B37B0B0274770C0205B90B0205B90B0271
:1005C000C8FE0B0273E10B027A0E0C0238AA0B0272
:1005D0009E4C0B02EEF30A02A74C0B0236360C02BD
:1005E0000DB90B02F3D80A02EF390B02788C0C021A
:1005F000D0FE0B025C050B02EE550C028C880B0240
:10060000DFFE0B0284AB0C02AF5C0B02F8390B026D
:10061000B85C0B02F6E70A02F6E70A0264050B0271
:10062000C35C0B02C0110B02CB110B0291880B02B1
:10063000E8FE0B02F9550C026FE10B029F2E0B0234
:1006400096F00B024D290C0243AA0B02EEFE0B02A0
:1006500098880B027EE10B02681C0C02B14C0B0265
:10066000F7D80A0244360C02EA9B0C02820E0C02F6
:1006700079450C024B360C028A0E0C0286450C02A0
:1006800004D90A026D050B020CD90A029E880B02DE
:10069000FDE70A028CAB0C0252360C0215B90B02B4
:1006A00022B90B02D4110B02D7950B02F7FE0B02F5
:1006B000CF5C0B02D7950B029EF00B02BD4C0B02D8
:1006C0004EAA0B028C450C02BF7B0B025A360C0261
:1006D00003FF0B0278050B02A52E0B0262360C02FB
:1006E000FF550C02A5F00B027A770C02C14C0B02ED
:1006F00052AA0B0237C40B0294650C022D220B0286
:100700002D220B02CB4C0B020A560C02DE950B027B
:100710004FD40B0295AB0C0290450C02D44C0B024B
:100720003FC40B02CB7B0B025CD40B0208E80A022D
:1007300069D40B02858C0C0282050B02908C0C0292
:10074000013A0B02968C0C0213560C0295450C02D2
:10075000AC2E0B0270D40B02E2110B0289050B02C6
:10076000A08C0C02D57B0B02EF9B0C020FE80A0257
:10077000FA9B0C02A7880B02E9950B02A2450C021A
:10078000E8110B0217D90A02AF2E0B022AB90B028D
:10079000EF950B02A88C0C029C650C0288E10B0201
:1007A000A1AB0C02029C0C02DA7B0B028F0E0C0236
:1007B00030B90B02DB5C0B02A6650C021B560C0267
:1007C00022560C02A9450C02AC650C0237220B0222
:1007D000053A0B023E220B025AAA0B02F5950B02B8
:1007E000ABAB0C0237220B02FDF30A02E57B0B02D6
:1007F000ED110B020A9C0C02B4650C0247C40B02FB
:1008000053C40B02741C0C0201F40A0211FF0B0208
:100810007ED40B02B0450C0206F40A028D050B02D1
:10082000AF8C0C0296050B025EC40B02A86C0B0287
:10083000C1650C0255290C022A560C0264C40B0235
:100840003B560C02B5880B0268AA0B0284770C0297
:100850001DFF0B02960E0C0265290C020AF40A0217
:10086000FA950B0247220B02B68C0C022AFF0B02F0
:10087000B66C0B0211F40A020E3A0B02BD8C0C028C
:10088000CB650C0216E80A0269360C026B290C02D1
:100890006DC40B02D5650C0243560C0208960B0280
:1008A0001BF40A02DB4C0B02781C0C029D050B02A8
:1008B0004A560C028EE10B0237FF0B02DF650C0279
:1008C00076360C021FD90A0272C40B021B9C0C0262
:1008D0008E770C02173A0B02EB650C0256560C028F
:1008E0000F960B02FD110B02811C0C028BD40B0224
:1008F00004120B023FFF0B0299770C0276290C02BF
:10090000B9AB0C0299E10B02A2E10B0216960B02A5
:1009100024F40A021A960B02BE6C0B027BC40B0273
:1009200038B90B0295D40B0272AA0B02213A0B02C2
:10093000C86C0B02A2770C029D0E0C027D290C02E2
:1009400047FF0B0244B90B021EE80A028C1C0C0282
:10095000283A0B02CD6C0B0220960B0262560C0259
:100960004FFF0B0286C40B02B62E0B02E64C0B02A5
:100970007D360C0279AA0B02ACE10B02D66C0B029D
:10098000A5050B028DC40B0253FF0B02F34C0B02A7
:10099000921C0C02279C0C025DFF0B0286360C0297
:1009A000C02E0B02BB880B02C2AB0C02B3E10B02E0
:1009B000AEF00B022B960B02D0AB0C02E06C0B02DC
:1009C000AF050B02D8AB0C02DDAB0C02333A0B02C5
:1009D000EB7B0B02AF770C0280AA0B02AA0E0C0273
:1009E000B5050B0232960B02C38C0C02E25C0B02C3
:1009F000981C0C02EC5C0B02B5F00B0226D90A0223
:100A00006AAB0C020E120B02C3050B02CF8C0C0258
:100A1000F94C0B028C360C02329C0C02F15C0B027E
:100A20004BB90B0237960B02BCE10B0253FF0B02D2
:100A3000EF650C0291360C02F57B0B0281290C024A
:100A40009F1C0C022DD90A029BD40B02B30E0C0280
:100A50008E290C02B80E0C0293C40B02CB2E0B0293
:100A600050220B02A71C0C02D48C0C026B560C02F9
:100A700055220B02C5E10B02B11C0C029BC40B02F8
:100A80004FB90B0238D90A0247D90A02F6650C029F
:100A9000DD8C0C0297360C0202660C0259220B0206
:100AA00085AA0B023E3A0B02443A0B02C9050B021F
:100AB00025E80A02E4AB0C02D42E0B0267FF0B02FE
:100AC000C1880B02E12E0B02034D0B02CCE10B029D
:100AD0002CF40A0253D90A02F95C0B02CD880B02EE
:100AE0002EE80A0276560C02B4770C02D4880B0268
:100AF000DC880B02E1880B02A0360C023AF40A02F1
:100B000036E80A02E28C0C02B9F00B02D9050B029E
:100B100015120B02BD0E0C02EDAB0C02FB7B0B029F
:100B200045F40A02BCE10B02A2C40B02AC360C0273
:100B3000F4AB0C02523A0B0280560C028A560C029D
:100B4000FEAB0C02573A0B02E6880B02027C0B024A
:100B5000F08C0C0296290C02E4050B023DE80A0217
:100B6000077C0B0220120B020C7C0B0225120B02DD
:100B7000643A0B02AFC40B02025D0B02FA8C0C024A
:100B8000C80E0C02399C0C0206AC0C02BD770C029C
:100B90000E4D0B02409C0C0251F40A02EF050B02B1
:100BA000A6D40B02174D0B02204D0B025BD90A0293
:100BB000105D0B0247E80A02693A0B02469C0C02E0
:100BC00065220B02F6050B02BC1C0C02058D0C0203
:100BD000B6C40B02FD050B02B9450C0208060B0258
:100BE0000E660C02A5290C02A5290C026E220B022E
:100BF0004FE80A0258B90B02D10E0C0260B90B0281
:100C0000ED2E0B024C9C0C02733A0B02813A0B0244
:100C1000BCC40B02C2770C02CD770C0292560C02B8
:100C2000B6360C02C1450C02E96C0B020FAC0C028B
:100C3000D5E10B02C9450C022E4D0B02F0880B02C8
:100C4000118D0C027C220B0217AC0C0256E80A0232
:100C50002A120B0282220B021B7C0B0216660C026C
:100C6000277C0B02DDE10B02B1D40B02FC880B02E6
:100C70003A4D0B02519C0C0263D90A02B6D40B0206
:100C8000C31C0C0289220B02195D0B029A560C023E
:100C900073FF0B026ED90A02BF360C021D660C02EE
:100CA0005EE80A028EAA0B0201890B0267E80A02BB
:100CB000198D0C02AD290C02C4360C0230120B0245
:100CC00025660C02E5E10B02F52E0B0207890B02EB
:100CD00094220B022C660C0212890B025BF40A02AE
:100CE00037120B0233660C02A1560C02225D0B0276
:100CF00010060B0274E80A025B9C0C02B4290C0279
:100D00001A890B0241660C026BB90B0225890B0292
:100D10001E060B02D60E0C0241120B0276D90A02F5
:100D2000305D0B02903A0B02659C0C02375D0B02A2
:100D30002A060B0221AC0C02FD2E0B0299AA0B0213
:100D40002B7C0B029B220B02709C0C024B660C024C
:100D500067F40A02C81C0C02953A0B0231060B021A
:100D6000435D0B023C960B029D3A0B0230AC0C0229
:100D7000F1E10B02238D0C02BDD40B02278D0C0276
:100D8000A0AA0B02FCE10B0273B90B0272F40A0277
:100D9000062F0B027AB90B02D0360C02F36C0B0251
:100DA0004D120B023BAC0C027DF40A02CAD40B02BA
:100DB000ABAA0B02B4AA0B0253120B0241AC0C02F9
:100DC000D0450C02BAAA0B02404D0B02C4F00B0234
:100DD000485D0B02C5C40B02D7770C02575D0B02AE
:100DE000A43A0B02338D0C02A1220B02D0C40B02D9
:100DF000D1D40B02337C0B024DAC0C0257660C02B3
:100E0000DD360C0247960B023E8D0C025D5D0B0237
:100E1000DBC40B02407C0B0230890B027C9C0C0271
:100E20003B890B0263120B0246890B02615D0B02C8
:100E3000102F0B0283F40A026D5D0B0283D90A02A4
:100E4000F96C0B02B23A0B02DB0E0C02B93A0B0240
:100E5000E4C40B024E4D0B02CD1C0C026A120B02B5
:100E6000AF220B02E00E0C027CFF0B02E0770C02BB
:100E70005D4D0B02859C0C0241060B02E8360C020C
:100E80007AE80A027FB90B02EB0E0C02C03A0B02A1
:100E9000458D0C02EFC40B02C93A0B0262660C02CC
:100EA000AC560C02745D0B024F8D0C024C890B0288
:100EB000D11C0C02F7360C025A8D0C02B11C0C022C
:100EC000D6D40B0250220B0270660C02BC220B021D
:100ED000BFAA0B0286E80A02E5450C028DD90A0278
:100EE0007C660C02F60E0C024A060B02909C0C0269
:100EF00004E20B0254890B0290E80A0289FF0B02FC
:100F0000BD290C02E2D40B0298E80A0259890B02AF
:100F10000EE20B02B4560C0257060B02D63A0B0235
:100F200073120B02DD3A0B02E5770C027B120B0207
:100F3000969C0C02EA770C025D060B02ECD40B02C5
:100F4000BB560C02C2560C02F8D40B02C2220B0292
:100F500092FF0B02EB450C02CAAA0B02F0770C02BF
:100F60001A2F0B02DC1C0C027E5D0B02E83A0B020E
:100F700086660C0252AC0C02FD770C02654D0B022A
:100F8000D1F00B02F23A0B02CA560C029FE80A0299
:100F9000608D0C0287120B020B780C0214780C0285
:100FA000895D0B02AA0E0C02467C0B0218780C021B
:100FB000D2AA0B02F5450C0284B90B02C8290C0217
:100FC000FF6C0B02FC450C0292F40A02CB220B02CE
:100FD00001370C02FB3A0B0208370C024E960B024B
:100FE000A6E80A02D3560C0289B90B0214370C0288
:100FF00096D90A0292B90B026A4D0B02CE290C0255
:10100000066D0B026F8D0C02126D0B02DA290C02B9
:10101000935D0B02000F0C0200D50B029DD90A0252
:1010200092120B029FB90B024F7C0B029D9C0C028B
:101030008E660C0268060B021E370C02A2D90A0249
:101040006D060B025AAC0C0294660C02E8290C02E5
:10105000063B0B029BF40A0223370C020C0F0C0216
:10106000160F0C02F6290C0261AC0C02262F0B02A3
:1010700099FF0B0296120B02FE290C02ABD90A0251
:101080000CD50B02042A0C02A0660C0204460C02CA
:1010900029370C02F9C40B025E890B02302F0B02B8
:1010A00032370C02302F0B02ACB90B0205C50B0214
:1010B00019D50B020FC50B021F0F0C0211460C02B3
:1010C000B3D90A02B5B90B0268AC0C02BCB90B0269
:1010D000DC560C0267890B02123B0B0278060B02EE
:1010E0003F370C026EAC0C020B2A0C02DDF00B0237
:1010F000E6560C0217C50B02C0B90B02A05D0B022D
:1011000021C50B02744D0B02A75D0B02D3220B020B
:101110001E460C02A2120B02DAAA0B02B05D0B02F1
:10112000C6B90B02280F0C02ADE80A0225D50B0246
:1011300059960B0219E20B022F0F0C027D4D0B0288
:101140001C3B0B02D7220B026E890B02778D0C021F
:10115000EDF00B024B370C0221780C0261960B026A
:101160007A890B02EC560C02808D0C02A6120B023F
:10117000152A0C02F4560C021F2A0C027E890B025F
:10118000AD120B02E21C0C02372F0B02C0A847DE87
:10119000FFFFFC00C0A8440108080808028A9B71F0
:1011A00004D20000000018880000000000000000C9
:1011B00001004000028A9B7104D2028A9B7104D212
:1011C0001411002201000000B0CA13220000000028
:1011D00000000000000000001A11002201000000C1
:1011E000C0CA132200000000000000000000000040
:1011F000028A9B7104D2000002010000000000007E
:1012000024D31322000000000800000002000000A8
:101210000000000001010000A4D313220000000020
:1012200000000000050000000200000000000000B7
:1012300001010000F4D313220000000000000000B0
:101240000500000002000000000000000100000096
:1012500044D413220000000000000000050000003C
:1012600002000000000000000100000094D41322DE
:101270000000000000000000050000000200000067
:101280000000000004D6132204DC132204E213221F
:1012900004E8132204EE132204F4132204FA1322A6
:1012A0000400142204061422040C14220412142232
:1012B00004181422041E142204241422042A1422C2
:1012C0000430142204361422043C14220442142252
:1012D00004481422044E142204541422045A1422E2
:1012E000046014228C661422501200224412002240
:1012F00068E20D020F000000800000000F000000F7
:1013000080000000E8030000000000000000000072
:10131000A066142200000000000000000000000091
:101320000100000000000000101F000060340B02EC
:1013300000000000000000000000000000000000AD
:10134000000000000000000000000000000000009D
:1013500000446576696365205072697620544C5369
:10136000204B657900000000000000000000000034
:1013700000004465766963652050756220544C53C3
:10138000204B657900000000000000000000000014
:10139000000000446576696365204365727400004F
:1013A000000000000000000000000000000000003D
:1013B00000000000436F64652056657269667920FD
:1013C0004B657900000000000000000000000000F4
:1013D0000000000000526F6F7420436572740000BB
:1013E00000000000000000000000000000000000FD
:1013F00000000000000000000020344000283440BD
:1014000001010000022800009785060219860602E5
:1014100000000000698606027D86060200000000CA
:10142000B586060200000000B9860602F5860602AF
:101430000000000000000000F9860602C9870602CD
:10144000000000000000000000000000000000009C
:101450003D880602000000004188060200000000EE
:10146000418B060200000000E98B0602000000002C
:10147000E38F0602C9900602AB910602000000004D
:10148000000000000000000000000000000000005C
:10149000000000000000000000000000FB910602B8
:1014A000000000009192060200000000079306026F
:1014B000A9930602AD95060200000000000000009E
:1014C0000000000000000000BF9706022D990602F0
:1014D000000000000000000000000000000000000C
:1014E00000000000000000000000000000000000FC
:1014F00000000000699B06020000000000000000E0
:101500000000000000000000B19E06020000000084
:101510000000000000000000102700000606010087
:1015200002000000CAC70B027B110702AB110702C1
:10153000B3110702F51107020000000000000000CF
:1015400007140702B5140702D7140702ED140702A7
:1015500001000000CAC70B021D1507024D15070246
:101560005D1507029F150702000000000000000043
:10157000571707028D170702AF170702C517070293
:10158000397C0A02597C0A02E5D10802E5D1080239
:10159000E7D10802E7D10802617D0A02597C0A02FC
:1015A000A57E0A02617D0A02597C0A0245CC090225
:1015B00011CD0902DF630B02884B0E02D8CC0B025F
:0415C000D8CC0B0276
:0815C80001000000000000001A
:10160000B0B54EF20460C0F20D208568D0E900410B
:101610002A682046904769682046884742F28050F1
:101620000021C2F201200160B0BDB0B54EF20460ED
:10163000C0F20D20856804682046A968884742F2F8
:1016400080500021C2F2012001602046E9688847ED
:1016500069682046BDE8B040084742F28050C2F2B7
:10166000012000687047081A4CF6CD41CCF6CC41F9
:10167000A0FB0101C80870474FF47A71B1FBF0F08C
:101680007047007900B1704742F28050C2F20120E9
:10169000016801310160704701B370B548F2203331
:1016A0004FF0FF324FF0000C0824CEF6B85300BFC5
:1016B00010F80C5044F001E06A4000BF00BF00BFCA
:1016C000154683EA5202EE0708BF6A080FF009C008
:1016D0000CF1010C8C45EBD1D04370BD002070475C
:1016E000202904D242F64772C0F20C225CE044F694
:1016F00049730268C5F254639A4204D049F28D22BC
:10170000C0F20C2250E08288012A1BD14FF6E07211
:101710008368C0F23F0293424FF27272C0F20B2212
:1017200042D8F0B503F120058D423BD844F2546213
:10173000416AC3F24C32914209D041F2E242C0F216
:101740000C222FE04AF27B42C0F20C222CE003B3C1
:1017500048F2203400F1200C4FF0FF320021082520
:10176000CEF6B85400BF00BF1CF8016045F001E0A0
:10177000724000BF00BF00BF164684EA5202F7075E
:1017800008BF72080FF009C001319942ECD1D14372
:1017900000E00021C06848F2FD12081AC0F20B22D6
:1017A00052EA1082BDE8F04010467047D4D4D4D439
:1017B0002DE9F04344F649779C464FF00008C5F206
:1017C000546707604FF001038380C2808160E1B1FC
:1017D00048F2203600F120024FF0FF3300244FF092
:1017E0000809CEF6B85600BF175D49F001E07B400E
:1017F0001F4686EA5303FD0708BF7B080FF009C0A8
:1018000001348C42F0D1D94300E0002140F8108F20
:101810000F2240F8041CC0F80480C0F80880C0F80B
:101820000C806146BDE8F043A6F0D9BED4D4D4D430
:101830002DE9F04F81B00C46834631F0D8F9584677
:101840002146FFF74DFF10B16FF0150499E031F01C
:101850006EFA4FF6FF70211831EA000831D04EF2CF
:101860007C0040F6001AC0F20D20C0F23D0A0DF1D6
:1018700002074FF0000906688568AB69A9F1D941F4
:101880004FF4803230469847002873D100208DF8FD
:10189000020000BF00BF00BFEA69304639469047EA
:1018A000002867D19DF8020018B1BAF1010AF3D1FE
:1018B00063E009F5803940F6001AC145C0F23D0ADF
:1018C000DBD39CB34EF27C0040F60018C0F20D2032
:1018D000C0F23D084FF0000A0DF103090668876861
:1018E0000025631B0BEB0501402BA5F1D94228BF56
:1018F0004023D7F814C03046E04700283AD18DF88D
:1019000003A0C24600BF00BFFA693046494690476F
:1019100080BB9DF8030018B1B8F101082DD0F3E7A2
:101920004035D046A5424FF0000ADAD30020611EB0
:10193000C9F2803014DB012202EB511E4EF65C71BD
:10194000BFF34F8FCEF20001024600BF00BF00BFC1
:101950000A6020320FF005C0BFF34F8FBFF36F8FC7
:1019600059462246A6F0C8FB0446002818BF6FF06F
:10197000530404E06FF0040401E06FF06D0431F0F3
:10198000E1F9204601B0BDE8F08FD4D4D4D4D4D44A
:101990002DE9F04381B04EF65C74002590460F4669
:1019A0008146CEF20004C9F2803531F020F931F0E1
:1019B000BEF9BFF34F8F256044F64971BFF34F8FD7
:1019C000BFF36F8FC5F254612868884213D1A868AD
:1019D0004FF6E07200F12006C0F23F023146202EA1
:1019E00028BF2021904298BFBE4207D931F0AAF902
:1019F0006FF00B0024E031F0A5F91FE0401A01213F
:101A00003F30BFF34F8F01EB501E00BF00BF00BF40
:101A1000256020350FF005C0BFF34F8FBFF36F8FE8
:101A200000214846C9F280313246A6F0D6F831F09E
:101A300089F948463146FFF753FE20B16FF00100A7
:101A400001B0BDE8F0830020B8F1000F18BFC8F85E
:101A50000060F5E7D4D4D4D4F0B581B031F0C7F844
:101A600031F065F94EF27C000021C0F20D20C9F280
:101A700080314FF48052866804682046B3699847E5
:101A800030B16FF0040431F05DF9204601B0F0BDD3
:101A900040F600170DF10305C0F23D0700208DF858
:101AA000030000BF00BF00BFF269204629469047EF
:101AB0000028E6D19DF8030020B1013FF4D16FF07A
:101AC0006D04E0E70024DEE740BA704700BA7047D3
:101AD000F0B581B00C46054600F064F8022D17D130
:101AE000012C4FF0010050EA00914FF011024FF02D
:101AF000020008BF06226CF00BF9054601300128F0
:101B000012D8264878440168A7F08AFF0C2205E025
:101B1000214878440168A7F083FF6A224FF0FF361E
:101B20004250304601B0F0BD42F284574FF0FF31D1
:101B3000C2F20127386864F0F3FA42F288500426B2
:101B4000C2F20120063000BF10F8021C012913D197
:101B500001360830142EF7D1386800210022002306
:101B600064F0CEF928466CF05CFD0D4878440168BD
:101B7000A7F056FF1722D1E7012C5FEA1F9101223F
:101B800020F8022C40F8065C017038680021002221
:101B9000002364F0B5F9C4E79E340E00AC340E00A7
:101BA00044340E00B0B542F23C64C2F20124207805
:101BB00000B1B0BD4DF085F8207848B9012001256D
:101BC00064F04FF942F284512570C2F2012108609D
:101BD000BDE8B0404DF0A3B870B586B0A0F11402D6
:101BE00012F1100F24D30C4642F28851C2F20121A7
:101BF00001EBC00010F81C1CD1B16D46A0F120060D
:101C0000281D1421A5F0DBFF4FF40670ADF800008D
:101C100060881822ADF80200306829466CF0AFFBEE
:101C200088B10A4878440168A7F0FAFE702205E0FE
:101C3000074878440168A7F0F3FE092242504FF0AC
:101C4000FF3006B070BD0020FBE700BF8C330E00F4
:101C50007E330E0070B58CB0A0F1140212F1100F9B
:101C60002BD30C4642F28851C2F2012101EBC00095
:101C700010F81C1C09B306A9A0F12005081D1421A9
:101C8000A5F09DFFA97960884FF40676ADF81A009B
:101C9000ADF8186060680890D1B1286806A91822CC
:101CA0006CF0EBFE10F10D0F20DD78B110F10B019F
:101CB00023D00C3025D10C2124E01748784401684A
:101CC000A7F0AEFE092242504FF0FF300CB070BDBD
:101CD0006C4618212046A5F072FF2868182221467C
:101CE000ADF800606CF04BFB0020EFE710F18001D5
:101CF00005D0163005D1162104E00B2102E0802129
:101D000000E00521034878440268A7F089FE81506D
:101D1000DAE700BFAA320E00F4320E00D4D4D4D4D5
:101D200070B5A0F1140111F1100F21D342F28851C6
:101D3000C2F2012101EBC00010F81C1C012917D1CF
:101D4000A0F1200442F20860C2F201200626051D1F
:101D500055F8081B19B120680F226CF022F9013EDA
:101D6000F6D120686CF05DFC00202071206070BD11
:101D7000044878440168A7F053FE092242504FF00E
:101D8000FF3070BD3E320E0080B5A0F1140111F19C
:101D9000100F0FD342F28851C2F2012101EBC000B3
:101DA00010F81C1C31B12038022100686DF0F8F8E1
:101DB000002080BD044878440168A7F031FE092264
:101DC00042504FF0FF3080BDFA310E002DE9F04156
:101DD00082B0A0F1140111F1100F2DD342F28851FD
:101DE000C2F2012101EBC00010F81C1C21B341F22A
:101DF0000501511A01292CD841F20601A0F1200653
:101E000098681F688A424FEAE0714FF47A724FF087
:101E100000035FEA0F954FF47A780024A5F0AEFE38
:101E200007FB080001AB01903068002104220092FA
:101E30002A466CF073FC08E0074878440168A7F074
:101E4000EFFD092242504FF0FF34204602B0BDE8BA
:101E5000F0810024F9E700BF76310E00F0B58BB0B9
:101E6000A0F1140313F1100F33D30D4642F2885141
:101E7000C2F2012101EBC00010F81C1C49B301AEF5
:101E8000A0F12007182130461446A5F098FE3868C6
:101E900031466CF0C5FD039808B96AF07BFF00215C
:101EA000CDE909114FF40471ADF81C10BDF806100E
:101EB000ADF81E10089055B14CB1206810261028BE
:101EC00050EA368207A92846A5F087FE2660002042
:101ED00008E0054878440168A7F0A2FD09224250B5
:101EE0004FF0FF300BB0F0BDDC300E0082B070B5AB
:101EF00084B0A0F11405CDE9082315F1100F11D31A
:101F000042F28852C2F2012202EBC00010F81C2CEF
:101F100042B10429A0F1200513D0032936D16879F4
:101F2000840308E01E4878440168A7F079FD09227F
:101F30004FF0FF344250204604B0BDE8704002B07C
:101F4000704708A86FF0010104300390089802ABB5
:101F50000022042641EA9031C0F380306871481CA9
:101F6000029028680021009600246CF0D7FB687965
:101F700001AB00210122002842F2107018BF00209E
:101F80000190286800966CF0C9FBD4E703487844B8
:101F90000168A7F045FD1622CAE700BF22300E00F7
:101FA0008A300E00D4D4D4D42DE9F04F87B00192FA
:101FB0008B468046FFF7F6FD65F09FFC42F28454A5
:101FC0000746C2F201244FF0FF31206864F0A8F800
:101FD00042F20860C2F20120051D06202E4600BF15
:101FE00056F8041CB94215D0013806F10806F7D19D
:101FF000062000BF00BF00BF55F8041C99B101388E
:1020000005F10805F8D1206800210022002363F0C3
:1020100077FF61E0206800210022002363F070FF59
:10202000D6F800A00BE06BF05BFF824608B145E9F3
:10203000017A206800210022002363F061FFBAF1D9
:10204000000F019C48D0C146B8F1140FA8BF4FF053
:102050001409B8F1050F2FDB42F288570426C2F2AB
:10206000012700BF00BF00BF3879012820D1BBF194
:10207000000F06D070095BF82000F04000F001006E
:1020800000E0002044B1710954F82110F140C90763
:1020900002D0821C02E000BF28B1012238685146FC
:1020A0006BF032FF04E038680F2251466BF079FF85
:1020B00001360837B145D7D110994746B1B1886884
:1020C0000D68C1174FF47A7200234FF47A76A5F0A9
:1020D00055FD05FB06010BE0344878440168A7F084
:1020E0009FFC0C2242504FF0FF385AE04FF0FF3176
:1020F00050466BF0B5FF4FF00008052FCDE904887E
:10210000CDE9028841DB42F288560425C2F201265D
:10211000012700BF00BF00BF3079012831D13068EE
:1021200051466BF06EFFBBF1000F12D0690907FA40
:1021300005F25BF82130134218BF10F0010308D0FC
:1021400004AC08F1010854F821301A4344F8212066
:10215000019C8CB1690907FA05F254F82130134249
:1021600018BF10F0020007D002AB08F1010853F8C5
:102170002100104343F8210030680F2251466BF0D4
:1021800010FF01350836A945C6D1BBF1000F1CBFB1
:10219000DDE90401CBE900011CB1DDE90201C4E97C
:1021A0000001404607B0BDE8F08F00BFD62E0E00FC
:1021B0002DE9F04188B0A0F1140313F1100F35D3CD
:1021C0000D4642F28851C2F2012101EBC00010F825
:1021D0001C1C59B30DF10808A0F1200708F10400F8
:1021E000142114460E9EA5F0EAFC4FF40670ADF8DB
:1021F000080070880023ADF80A0070680490386801
:102200001821CDE90081294622466BF0E1FF002824
:1022100015DC10F10D0F15DD4FF00B01E0B110F1E1
:102220000B0219D00C3016D10C2115E00F48784460
:102230000168A7F0F5FB092242504FF0FF3008B0CB
:10224000BDE8F08110F1800103D0163003D11621D2
:1022500002E0802100E00521034878440268A7F0ED
:10226000DFFB8150E9E700BF562D0E00822D0E00E6
:102270002DE9F0438DB0A0F1140717F1100F4ED3E4
:102280000D4642F28851C2F2012101EBC00010F864
:102290001C1C002943D00DF10C08A0F120061821C8
:1022A00040461F4614464FF01809A5F088FC380731
:1022B00009D500200990306809AB002100220427CD
:1022C00000976CF02BFA3068002302A9CDE9008159
:1022D00029462246CDF808906BF0FAFE0446B0F18C
:1022E000FF3F29DD9CB3149810B3159D05B32A68F0
:1022F0000021CDE90B114FF40471ADF82410BDF8A5
:102300000E10102A4FF0100652EA3682ADF8261051
:1023100005990A9109A9A5F060FC2E6008E01B4808
:1023200078440168A7F07CFB092242504FF0FF344B
:1023300020460DB0BDE8F08314F10D0F0EDC14F152
:10234000800015D014F1160010D1162113E00D48AD
:1023500078440168A7F064FB0B22E6E714F10B0058
:1023600008D014F10C0001D10C2104E0052102E099
:10237000802100E00B21044878440268A7F050FB5C
:102380008150D3E7602C0E00382C0E00902C0E00EC
:1023900080B5A0F1140313F1100F1CD342F288533F
:1023A000C2F2012303EBC00010F81C3C012B12D138
:1023B0002038002300686CF0EFFCB0F1FF3FC8BF8D
:1023C00080BD10F10D0F10DC10F1800116D0163019
:1023D00012D1162100E009210A4878440268A7F0CA
:1023E0001FFB81504FF0FF3080BD10F10B0107D073
:1023F0000C3001D10C21EFE70521EDE78021EBE75F
:102400000B21E9E7D62B0E0010B5A0F1140313F150
:10241000100F14D342F28853C2F2012303EBC00021
:1024200010F81C3C012B0AD1A0F1200400232068E5
:102430006CF0BEFBB0F1FF3F0BDDA0B110BD092178
:10244000124878440268A7F0EBFA81504FF0FF3051
:1024500010BD10F10D0F0BDC10F1800113D0163000
:102460000FD11621ECE76079012808D0002010BDBB
:1024700010F10B0103D00C3003D10C21E0E70B214C
:10248000DEE70521DCE78021DAE700BF6E2B0E00D6
:102490002DE9F04381B0984691460F4606466CF010
:1024A000B2FA18B9304669F04BFD90B304463020BB
:1024B00063F016F880B130210646A5F080FB354662
:1024C0004FF4047025F8200F6C603FB13846A5F03A
:1024D0009EFD00BA000C02E006201BE00020B9F1CE
:1024E000000F70844FF00200706007D0D9F8080028
:1024F00020B10128B06003D0112002E00120B060BB
:10250000062006F10C02102123C20020C8F800604A
:1025100000E0082001B0BDE8F08308B163F000B925
:10252000704702284FF000001BD1102B38BF7047B6
:1025300010B584B091F800C01446487891F802E0D4
:10254000C97841F2FA420090C0F20C22CDE901E1D3
:10255000204619466346A7F09DFA204604B0BDE820
:102560001040704702280AD170B5084614460E463E
:102570006CF049FA054628B10120256070BD4FF086
:10258000FF3070474BF6C7613046C0F20B21A5F013
:10259000FFFA0028F0D0002070BD80B56AF0FAFB89
:1025A00042F23861C2F201210860084680BDD4D4ED
:1025B0002DE9F04F93B000220D460646002700F0AB
:1025C0003BF8286B022832DB451C0DF1080A4FF05E
:1025D000010B0DF10408E946442250463146A5F0AE
:1025E000FCFADDE90201CDE900770BEA6002059B08
:1025F00002EB600002900BEA61004A4600EB6100CA
:1026000003909800059001233046414609970C97A6
:1026100000F049F901980122341851462046C6F8C5
:10262000C84300F009F8013D2646022DD4D8002009
:1026300013B0BDE8F08FD4D42DE9F04F89B00E4629
:102640004FF4737115468046A5F0B9FA30680F3023
:102650000111C8F86410726820F00F000F32C8F83A
:1026600070001311C8F86830594322F00F00C8F801
:102670006C10C8F874006FF03710C8F878004FF08D
:1026800010114FF6F87390FA01F0C8F88000D8E9FD
:10269000191203EB8111C1EA82514422A1F50020F5
:1026A000C8F87C006FF00F1190FA01F0C8F88400B0
:1026B000D6E900010843314610F00F0F5FEA0F9092
:1026C000C8F888004046A5F088FA08F573724046BD
:1026D00031462B4601F0DCFCD5B1404650F8441F92
:1026E000D0E90B2303FB02F703FB0211FE1707EBF4
:1026F000967302EBD27701EBA3037F10C0E90113BD
:1027000000F58E714761C0E9032790E8FC00FCC129
:10271000D8E9191203254FEA02192022D8F848A156
:1027200002EB011C45F001E008F5A4771026624693
:10273000494600BF00BF00BF501CFA6000FB06A066
:10274000032D5FEA1F9447F8040B01EB4600D346C4
:1027500000FB02AA134621412241E640013D0FF051
:1027600015C8D8F82810B1B30090032747F001E04E
:1027700008F5BC7610215546CDF80880CDF804A0A8
:102780002C4662460CF10105C6F80CC0032F5FEA27
:102790001F9C05FB014509EB410846F8045B08FB5B
:1027A000024549FA0CFA42FA0CF921FA0CF1CC462E
:1027B000D146013F0FF01DC00198A84208D20099F0
:1027C00008FB02F203FB01B1611A1144A5F0F7F90D
:1027D000DDF8088000E05546D8F81C0000B3D8E9C1
:1027E00019310322202742F001E008F5B0700901F9
:1027F00007EB0313102700BF5E1C01EB470406FB29
:10280000075C032A5FEA1F9604FB0355C0F800C06B
:10281000C36031413341F740013A04300FF015C035
:10282000D8F820B0BBF1000F3AD0BBF1010F37DB75
:10283000D8E9190108F5C87809010291202100277B
:1028400001EB001A00BF00BF0324102644F001E092
:1028500003A95246029800BF531C00EB460C032C00
:102860005FEA1F9903FB0653CA600CFB02550B601D
:1028700040FA09F042FA09F226FA09F6013C04315D
:102880000FF017C007EB470001375F45DDE9032371
:1028900008EB800148F820200598C1E90130D3D128
:1028A00009B0BDE8F08F2DE9F04104460028154637
:1028B0000E464FF001001AD0D4E90212114314D48D
:1028C0002168012911DB6268012A0EDBD4E9048E3C
:1028D000D4E9067C47EA080747EA0E0747EA0C07EF
:1028E000012F02D8276A082F1DD9022100E00121FB
:1028F000002D51EA1081002E51EA108787B900207F
:102900000122214601F0C4FB00F573703060002005
:102910000122214600F073FDA16B0131484328607C
:102920003846BDE8F0811143CA070AD10022BCF144
:10293000000F01F00E0108BF0422002952EA1181A4
:10294000D6E70521D4E7D4D42DE9F04FA3B00D4646
:10295000914601462A461193804600F050FDD8F872
:10296000C86366B1074600BFEA193046414600F029
:1029700046FDD6F8C86307440EB12FF00BC808F126
:10298000440C1199604691E8FC00FCC0D8F828007E
:10299000CDF83C80002800F00881D9F8000001281B
:1029A00000F30B81119808F5BC720C300A9008F501
:1029B000C27308F1500700200026CDF82490CDE91D
:1029C000072CCDE9057300BFD8F8001041FA00F4D8
:1029D00053F82610032C1491C0F2DA80D8F80410B2
:1029E00001410329C0F2D4800A9852F82680DDF80C
:1029F00050C0109650F826A011980E940D9150F8E2
:102A000026B0A01E13900BF10105CCF100000B9035
:102A100008F1010608EB0C00023905EB4A0706EB4A
:102A20004C02841C0C91CDF848A000BF00BF00BF31
:102A30000BEB0A0315911C9308EB0C0013F8011B18
:102A40001B90CDE9164210461A952A46139D88F828
:102A500000101896199700BF13F8011C14F801CC48
:102A60002191197813F8018F209317F8013B1D97D6
:102A7000074614F802AC94F800B0B1EB0C0912F858
:102A800001EB1E92327817F8010B1F97229148BF75
:102A9000C9F10009219901EB08070AEB0B01774402
:102AA0001144FA180844101A4BF6B34148BF40428B
:102AB0008008C0F20C21085C11F80910820081F036
:102AC000FF01FF2A4FF0FF0238BF820082F0FF00B3
:102AD0004FF6FF72484300FB0CF15040229A00FB76
:102AE000021048F20001C0F2FF01884280F07784B2
:102AF00000F50040013D4FEA104006F8010B04F1DB
:102B00000104DDE91F03DDE91D72A5D118781599CF
:102B10003070DDF848A0199F1A9DDDF850C0179A53
:102B2000189E169C013957445544624466446444D7
:102B3000DDE91B8B7FF47CAF0E9D08EB0C000BEBEB
:102B40000A012A46A5F049F8DDE90B9400BF00BF51
:102B50004046C84441462A46A5F03FF8013CF7D11B
:102B60000D982A46C0F1020000FB0AB14046A5F0CC
:102B700034F8109E069BDDF83C80DDF82490DDE9FA
:102B8000072C53F82610059F03E000BF00BF00BFCD
:102B9000149952F826004CF8260047F82610013602
:102BA000032E4FF001007FF40FAFB9F1000F4FF08B
:102BB0000000C8F8540303D10AE00020C8F8540309
:102BC00008F56070B9E8CE00CEC099E8CE00CEC05E
:102BD000D8F898E3BEF1000F02D0BEF1340F03DB4A
:102BE0004FF0330EC8F898E3D8F894C3BCF1090F3E
:102BF00003DC4FF00A0CC8F894C3D8F8802322F005
:102C00000202082AD8F81C205FEA1F93C8F838335C
:102C10002AB9119B08F5B07293E8F300F3C2D8F813
:102C200084330027062B4FF0FF340CD8DFE803F085
:102C3000042D07342A352300D8F86000D8B1D8F81D
:102C40003C43022329E0632B27D1D8E9E217632311
:102C5000D8F83C03002950EA0184002C48BF062321
:102C6000B4F1FF3F5FEADF9184425FEA0186B7F18A
:102C7000FF3F1BDC1DE0D8F82000062300285FEA98
:102C8000DF970AE00124012707E0D8F83C4300263B
:102C900001234FF0FF3746E00124D8F83C03B4F19C
:102CA000FF3F5FEADF9184425FEA018608F54F72D9
:102CB0001760062B37D1BEF11E0F4FF00005A8BFDD
:102CC0004FF01E0E98F8A813E6455EEACC80D8F8BF
:102CD0003020022A81F0010188F8A813C8E91705FD
:102CE0002BDBB146D8F8C86396F8A813C6E91705D8
:102CF00081F0010086F8A803D8F85003C6E9D4058E
:102D00004221304600F0F4FB0021304600F0E9FC9F
:102D1000D6F85403D8F854134E46084401255321DD
:102D2000C8F854030AE0D8F85C0020B1D8F82000B5
:102D3000844240F34C83032046E34221404600F0A6
:102D4000D7FB4046294600F0CCFC0623D8F83000DB
:102D500008F5607102282C9DC0F2218305A8089413
:102D6000D8F8C8430491C8C004F5607208460D92B3
:102D70001146ECC8ECC190E8EC00ECC1D8F8900327
:102D80004FF001098010C4F8900304F1440013903F
:102D900004F15000129011984FF0000A00230E9495
:102DA0000C30109000BF00BF13981299169350F882
:102DB00023500E9851F823102091D0E900270021CC
:102DC000406F1490119850F823001B90109850F801
:102DD00023001D90D8E900B0102340FA0AFC43F00C
:102DE00001E047FA0AF84FEA0C3700BF00BF00BF06
:102DF000013B27FA03F608FA03F409FA03F0B04599
:102E00009CBF01443F1B0FF00DC81C9142FA0AF60B
:102E10001022CDF854A04BFA0AF042F001E0010371
:102E20004FF0000B00BF00BF013A21FA02F009FA8F
:102E300002F3864206FA02F088BF00239B4498BF43
:102E4000091A0FF00FC8B8F1010F209C6BDB1C981A
:102E5000002280101A904FEAAB001990ACF10100EB
:102E600018901D98CDE91E6801382290A01B17907C
:102E7000012E219243DB1C981A9902FB0010189A2C
:102E80001D9B0113B2EB203F1B9A6FF31F3001FB18
:102E900003214FF0000253EAC28246F001E0C0F580
:102EA000805CDDF8648000BF4FEA283301EB2836F0
:102EB000229CCB5C16F802A0B4EB283F04DDB718C7
:102EC00076787F7802E000BF1E4657464446D844D5
:102ED0006FF31F346743C4F58059744319FB0343F0
:102EE00019FB0A74DB0AE40A03FB0CF314FB00333E
:102EF00003F580535B0B05F8013B0FF02BC81E9EBA
:102F0000209CDDF87C80B44207DD15F8012C179F6A
:102F100028463946A4F04EFE3D44219A4FF001095F
:102F200001324245A4D1DDE9141041FA00F0A0EBD2
:102F3000080000FB04FEBEF1010F07DB281B00BFE9
:102F400010F8011B05F8011B0FF007C0169B4FF08E
:102F5000010A0133DDF83C80032B7FF425AF0E9D81
:102F6000D8F86803079A059CC5F86803069BD8E95A
:102F7000D40108440021C5E9D401D8F82C000092FE
:102F80008000CDE90140039128460D99089A00F090
:102F900003FC611FD5F85403D8F8542301291044C9
:102FA000C8F8540300F2E281D8F83400002800F099
:102FB000DD810E984FF0010A00F5B0710C9100F51B
:102FC000B6700B9008F5A4700A9008F5AA700990E5
:102FD00000210120002700BF21900E980D974FF08F
:102FE000000CD0E91C2942FA01F0D8E91C3243FA5E
:102FF00001FB0C9B4FEA6B0853F8273014930B9B93
:1030000008EB004653F827301A930A9B53F82730F1
:103010001593099B53F827301D93102747F001E0C3
:10302000229000BF00BF00BF013F26FA07F50BFA50
:1030300007F40AFA07F3AB459CBF9C44361B0FF01C
:103040000DC849FA01F342FA01F610224FEA660967
:1030500042F001E009EB03470020209300BF00BFCE
:10306000013A27FA02F306FA02F40AFA02F59E423E
:103070009CBF28443F1B0FF00DC818901C9681F090
:103080000F011022229842F001E000FA01F308EB50
:103090000307002300BF00BF013A27FA02F40BFA2E
:1030A00002F50AFA02F6A3459CBF33447F1B0FF0DA
:1030B0000DC81022209F07FA01F142F001E04944B7
:1030C00000251C9800BF00BF013A21FA02F400FA63
:1030D00002F60AFA02F7A0429CBF3D44891B0FF09A
:1030E0000DC81D9A159902FB00102199C907CDF84A
:1030F00064C0179000F108001E90CDF86CB000F08D
:10310000B380BBF1010FC0F226812298A3F5F042F3
:103110000138139020981E994FF0000C8C1E01EB83
:1031200040001290A5F5F0401090119400BF00BF30
:103130004FF0FF30139F00EB22413E46B94251EA67
:10314000B7811314CDF858C0B7EB224F4FF00000F1
:10315000C8BF1614002B51EAC0854FF0010000EBE8
:10316000224148BF0026B94257EAA390B3F1FF3F7E
:10317000B8BF00202290022000EB22411F92B942EA
:1031800051EAB78113F1020FB8BF00212098DDF892
:1031900068B001282CDB1F98C0F303374CF2326073
:1031A000C0F20C2000EB870310F927002190209833
:1031B00093F901A093F902C093F9038040F001E074
:1031C0001E9C149B00BF00BF985D13F80590219FC3
:1031D00000FB0AF2229819FB07275A5C185C5B4433
:1031E00010FB0C7012FB080024F8020B0FF015C046
:1031F0001799129A4CF232671D9E0889C0F20C276B
:10320000C88088801C9932F8020C0129189D119CF5
:10321000DDF858C0108050801CDB41F001E01598AB
:10322000109A00EB0C0100BFC2F3033013142A44C0
:1032300007EB800090ED000F04EB430098ED002FAA
:103240004FF40070F3FE200EA0F388200870314484
:103250000FF017C01B980CF1010C1F9A84451998A8
:1032600002447FF465AF76E0BBF1010F73DB229877
:103270001E99013822902098A3F5605A4FF0000B58
:1032800001EB4009A5F56050219000BF00BF00BFD1
:10329000229B012019464FEA2A47B3EB2A4FC8BFA9
:1032A0004FEA2A4100EB2A42002F48BF00219A42F0
:1032B00053EAA792B7F1FF3FB8BF00222098012838
:1032C0001A9816DB209BCAF3033743F001E0C7F1DD
:1032D00010041E9E149D00BF15F801C015F8028051
:1032E000054404FB0CF317FB083326F8023B0FF0F0
:1032F0000DC81798DDF86080DDE91DC40189C18023
:103300001C9839F8021C0128A9F800101CDB40F0B9
:1033100001E01598219A00EB0B0100BF00BF00BF30
:103320001314C2F30336C6F11005424404EB4307FD
:1033300034F813307F886B4306FB073380331B0A56
:103340000B7061440FF015C01B980BF1010B834506
:10335000199882449CD10D9F002001370121032F31
:10336000DDF83C804FF0010A7FF436AED8F8340324
:10337000D8F86410A4F023FCD8F82C0014218000A5
:10338000079A01300092059ACDE901200391404649
:103390000499089A069B00F0FFF92C9D0CE0D8F8E0
:1033A0002C0000228000CDE900733346CDE90202F3
:1033B0004046224600F0F0F92D99D8F854030860F1
:1033C000D8F850032860002023B0BDE8F08F874272
:1033D0004FF00300F8DC082C7FF7B8ACF4E745F2B7
:1033E000414048F22E2243F6F753C0F20B20C0F2C0
:1033F0000B22C0F20C2341F2FC7106F085FD2DE991
:10340000F041D1E9001301F10F0E03F10F0302F1B6
:103410000F014FEA2E144FEA231321F00F0CD0B303
:1034200004FB03F10CF6A13340F2522523F00F0800
:1034300001FB05812EF00F03C0F868C3C0F850836C
:103440000F3121F00F01C0F8441301EBC40517350B
:1034500025F00F05C0F840532B442F3323F00F0302
:10346000C0F8483303EB8406133626F00F063719ED
:103470000F3727F00F07C0E9CA6739190F3121F05C
:103480000F01C0F834130B1903F10F0121F00F03E2
:10349000C0F84C3324E004FB03F040F2522100FB5F
:1034A00001C02EF00F0100F6AF3020F00F0000EB4E
:1034B000C400173020F00F00084404F10F012F3032
:1034C00020F00F0000EB8400133020F00F000844C0
:1034D00020F00F00084420F00F00084420F00F03F4
:1034E00003EB4410801A3030BDE8F081D4D4D4D43A
:1034F0002DE9F04381B04BF6B4568946C0F20C2654
:103500000446C06E0A2706F1B40140F2712200BFE2
:10351000738898420ADCB388E56853439D4205DC12
:10352000236AB56801334343AB4204D916F80C7FD4
:10353000332FEDD30E4667212046B9F1530F08BF54
:103540006F2100F0F5FF04F55675082128464A461C
:1035500001F032F87078B9F1530118BF042101EA83
:1035600000020821284601F027F8FAB2082128466F
:1035700001F022F8E06A3F27421CB2FA82F0A7EB82
:103580004001284601F018F8B9F1530F18D1032172
:103590000222284601F010F801210122284601F0FC
:1035A0000BF801210122284601F006F80121002232
:1035B000284601F001F801210022284600F0FCFF16
:1035C00003210222284600F0F7FF032103222846A8
:1035D00000F0F2FF206A821CB2FA82F0A7EB4001F1
:1035E000284600F0E9FF0121002228464FF001089B
:1035F00000F0E2FF20680F300211B2FA82F0A7EB70
:103600004001284600F0D8FF60680F300211B2FA7E
:1036100082F0A7EB4001284600F0CEFFD4F88800E6
:103620000321821D284600F0C7FFD4F8880010B39C
:1036300001210122284600F0BFFF2068216F081AEF
:103640003F2608EB6002B2FA82F0A6EB4001284662
:1036500000F0B2FF01210122284600F0ADFF6068B2
:10366000616F081A08EB6002B2FA82F0A6EB400123
:10367000284600F0A1FF01210022284600F09CFF0F
:10368000B9F1530F27D101210122284600F094FF00
:1036900002210022284600F08FFF01210022284647
:1036A00000F08AFF02210022284600F085FF012158
:1036B0000022284600F080FF01210122284600F068
:1036C0007BFF01210022284600F076FF0121002225
:1036D000284600F071FF204601B0BDE8F04300F03D
:1036E000C3BF70B50D466821044600F021FFE06AB3
:1036F0003F2605EB800004F55675421CB2FA82F0B5
:1037000086EA4001284600F057FFE06A421CB2FA00
:1037100082F0A6EB4001284600F04EFF0121002276
:10372000284600F049FF01210022284600F044FF0E
:1037300001210122284600F03FFF012101222846F5
:1037400000F03AFF01210122284600F035FF012157
:103750000022284600F030FF02210022284600F017
:103760002BFFE06D6FF0340101EB400080EAE07068
:10377000421CB2FA82F0A6EB4001284600F01CFF82
:1037800005211C22284600F017FF2046BDE87040A6
:1037900000F06ABFD4D4D4D42DE9F04FADF6DC7D6F
:1037A0000491816808930223A1F101090DF5805E5F
:1037B0000A9203EA92724B46C0F88C20B9F13F0F8F
:1037C000DEF800B028BF3F23D0F890C303F1010E0C
:1037D0004FEACC084BF6746608FB0EF2C0F20C26DA
:1037E000D0F86CA04FF0FF31099000BF00BF00BFC0
:1037F0003488B6F85250262907DC03FB0457013100
:10380000023607FB0AF79742F2DC21040124B1FAE1
:1038100081F22D0494404FF400364FF6FF7200BF42
:1038200004FB01F7A1B2240CA8B26C432D0C484351
:1038300001FB0544390C914204EB1045A6EB1744FB
:10384000EED1B9F1000F30D005EB03460122B6FAF4
:1038500086F04FEA0E4102FA00F74FF400334FF6BC
:10386000FF72DDF8249000BF07FB06F0BEB23F0CEC
:103870008CB24F43090C744306FB0171060C96424F
:1038800001EB1441A3EB1047EED14FF6F87288B26A
:10389000090C02EA080201FB08F14FEA184342430F
:1038A00000FB031000EB124602E00026DDF8249036
:1038B000D9F80C704146B8EB670FC8BF79100A9869
:1038C000B0F1FF3F4FEAD07E20DD089870B3D9E910
:1038D0008102B4B2101A4FF4AA7202284FF0010309
:1038E000D8BF02200C28A8BF0C205043A5F5803279
:1038F000000A5043320CC0F30F156A4303EB10501B
:103900006C4300FB062000EB144209E0A8B22A0C2D
:10391000B5B27243340C454304FB002000EB154262
:10392000A2EB0805A7B1D9F8FC2109E0A6EB080530
:1039300077B1D9F8FC21D9F81C02801A05EB2015C3
:10394000C7EBC700C000C2EBE000854255EAB08576
:1039500005EB0807B7EBCC1FA8BF4FEACC17B7EBB6
:103960004C0FD8BF4FEA4C07089D55EA0E0005D012
:10397000D9F8FC01A7EB0802024401E0D9F81C22A7
:10398000A6EB0800C9F80C721044D9F81820884238
:1039900050EAC180C9F81C023AB1D9F8600020B1E0
:1039A000D9F800020A9D011249E09DB14BF67462FC
:1039B0000021C0F20C2200BF1088B2F85230184427
:1039C000400800FB0AF0B84218DB01310232292915
:1039D000F2D112E052204BF67461C0F20C211EFBB2
:1039E0000012002100BF00BF32F8020B0AFB00F0FA
:1039F000B84203DB01312929F6D12921002D01F13B
:103A00000A010A9D0FD0D9E98102824252EAC0829E
:103A10000630824252EAB0800144D9F8100288424E
:103A200050EAC18104E0D9F80422D9F81002114407
:103A30004A1C904203DD104400EBD0704110484610
:103A40000024C9F8F84101F0AFF9D9F8F801C9F834
:103A500010020102012D05EB4500C9F80012C9E969
:103A60002544C9F89C400590C0F2C4804FF0030E75
:103A700009EB800109F5A47001F5C27100BF00BF18
:103A800002680B6840F8043B41F8042B0FF009C0B2
:103A9000D9F838000228C0F29F8000200122494650
:103AA000FFF7ADFC09F5B0780DF1A00A4246534688
:103AB000D9F86813D9F868B092E8E000E0C3D9F803
:103AC0003850002D40F305810E1809F5B6700B90A3
:103AD0002BA8CDE906B800F5B07A4FF0000B00270F
:103AE0004FF473712BA80BFB01084FF47372494616
:103AF0004046A4F072F8D9E91901A5EB0B02C91BE5
:103B00007843C8E92670D8F80C0291FBF2F190FBDB
:103B1000F5F0CC19D8F86410C8F80C0201FB04F0D9
:103B2000C8E91A40032040F001E010220B985146EA
:103B300050F8043B5A430B6802FB073241F8042B50
:103B400008220FF00BC8DDF8249040464946324663
:103B5000FFF755FCD9F838500BF1010B06440AF574
:103B6000737AAB452746D8F85003C8E9D8004FF020
:103B70000000C8F854034FF02001C8F85813C8F8E3
:103B80005C03ADDB0DF5805E012D0A9FDEF800C001
:103B9000DEF80460C0F295800DF5805345F001E039
:103BA0000CA810A92BAADDF82490D3E902340DF15A
:103BB000A00ADDF81C80DDF818B000BF00BF00BF10
:103BC00081E8C41040F8041B02F57372C1E90434A3
:103BD00018310FF00BC87CE00DF5805E2A465B467D
:103BE000DEE90210CDE900104846DEF8041000F0CE
:103BF000E3FF9BE0BBF1000F3FF74AAF002D7FF4DE
:103C000047AFD9F80C0000283FF442AFD9F8901321
:103C1000D9F8FC21A2EBC101B1EBC00F7FF738AF9F
:103C20000DF5805E00225B460027DEE90210CDE93B
:103C300000104846DEF8041000F0C2FDD9F86C0010
:103C40003F23421CC9F8A000B2FA82F109F5567070
:103C5000A3EB410100F0B0FC484600F005FD09F57A
:103C6000B0700B9009F5B670079009F5A470069036
:103C700009F5AA7B102000BFD9E919120B9B01FBA3
:103C800000F5079902FB00F9069853F8274051F810
:103C900027805BF827A050F8276000BF00BF00BF57
:103CA000204631462A46A3F098FFB9F10109444461
:103CB0005644F5D101370820032FDDF82490DBD1DD
:103CC00034E0DDF82490DDF81C800DF1A00ADDF869
:103CD00018B044F69331D9E90F07C0F200210CAABD
:103CE0002B46B847D9F83800012819DB2BA9D9F899
:103CF000540301F554740025D9F850130844D4E94D
:103D00000012A3F06AFFD9F838106068D9F854237C
:103D1000013510448D4204F57374C9F85403EBDB8C
:103D2000C9F868B09AE8070088E807000DF5805EDA
:103D3000DEF80400062804D10020C9E97C00C9F897
:103D4000BC03DEF80080B8F1010F07DB08EB0900C7
:103D50000121DDF828A080F8EF1107E0B8F1000F8D
:103D6000DDF828A002D10120C9F8BC03D9F86C30D5
:103D70001AF10100D9F8A0005FEA1F919842D9F822
:103D800054033CD052224BF674676FF01F06C0F20A
:103D90000C2711FB027706EBC006002200BF00BF14
:103DA00037F8025B5D43B54203DD0132292AF7D1C2
:103DB0002922089D95B9D9E9807302F10906C3EB60
:103DC0002727B74202DA4FF0FF3704E002F10B0673
:103DD000B74203DD01273B44C9F80432294302D02E
:103DE000D9F8041209E0D9F80012C2EB2121D9F860
:103DF00008220A398A4252EAC181C9F80812D9F860
:103E00009013D9F8FC21411AD9F80C0002EBC1013A
:103E1000C9F8FC1110B3B1F1FF3F24DCD9F814103C
:103E2000F1B10C21484600F083FB09F5567400BF40
:103E30000821FF22204600F0BFFBD9F8FC0110F159
:103E4000080F00F10800C9F8FC01F1DB484600F05A
:103E50000BFCD9F80C00D9F8FC1104E0002009E0B3
:103E60000021C9F8FC11B1EBC00F05DDD9F8101025
:103E700011B9C000C9F8FC01BAF1010F10DB0598B7
:103E80004FF0030E09EB800109F5A47001F5C27132
:103E900002680B6840F8043B41F8042B0FF009C09E
:103EA00018F1010000F0A580D9E91CA009F5A4785B
:103EB0004FF0100B00220B9009F5B0700790CDF871
:103EC000208000BF00BF00BFD9F81C0058F8224076
:103ED0004FEA4B060A9238B1079850F8229048F8FA
:103EE000229040F8224012E007980B9F50F8225091
:103EF000204629465246A3F070FE04EB0A00013F1B
:103F000000EB06045544F3D10A9858F82090DDF8E8
:103F10002C8006EB0A07B8F1010F14DBCBF100048B
:103F200046464D4600BF00BF2A7828195946A3F0DF
:103F300041FE05EB0A00594610F8012CA3F03AFEA9
:103F4000013E3D44F0D108EB0B00A9EB0B0407FB4D
:103F500000F9A8F101000BFB1746D84607FB004506
:103F6000304621463A46A3F038FE06EB09002946C2
:103F70003A46A3F032FEB8F101083E44F0D10A9A65
:103F80000B99002A5FEA1F900132DDE90889032AB4
:103F90004AFA00FA2BFA00FB41FA00F10B9193D197
:103FA000D9F80800D9F860100131C9F860108142D1
:103FB00006DB28B10498406810B90020C9F86000F9
:103FC0000DF5805EDEF80000012812DB00EB4000FA
:103FD0004FF0030E09EB800000F5C27000BF00BF78
:103FE000D8F80010026848F8042B40F8041B0FF0C2
:103FF00009C80DF6DC7DBDE8F08FD4D4D4D4D4D478
:104000002DE9F04F81B00023934688460646FEF71F
:104010004AFC316B0090022936DB4F1C4FF002093D
:104020004FF4407A00BF00BFD6E900010F300F31D6
:104030000009D6E907231A44B36A00EB40000C11CB
:10404000002B09EB21110AEBC01302F1020555EA1E
:104050001292C0015943604301FB0200D8F80010DE
:1040600001220844314600F57770C8F800000020AE
:10407000FFF7C5F9013F00EB8000DBF80010022FCD
:104080000844CBF80000CFD85DF8040BBDE8F08FF2
:10409000F0B5D1E9005E0F35D1E907464FEA251C9E
:1040A0002644896A0EF10F05B41C002954EA169EB5
:1040B00002F10F014FEA251721F00F0108B1C0F8F6
:1040C00048110CEB4C044FF4407CBE1C0CEBC415A7
:1040D00005FB06F606FB0E114BB101F10F034FEA8B
:1040E000C41123F00F0300B1436401FB0731881AA8
:1040F0000F3020F00F00F0BD70B596B042F2406076
:104100000025C2F201208068002843D142F24064B9
:104110001C21C2F201242046A3F051FD05AE382136
:1041200006F10C0004950395A3F049FD4FF4A0702F
:104130000590F02006901E20079001200C9004A905
:1041400003AA3046FFF75CFF30B14EF2D470C0F2E4
:104150000B2005F016FE15E0DDE903564AF67F0157
:104160007019CFF6F87108444AF2FE71CFF6F87173
:10417000884212D843F230403146C0F20B202A4622
:1041800005F0FFFD49F60F40C0F20B2005F0F9FDE8
:104190004FF0FF35284616B070BD06F13F0142F2E0
:1041A0008060C2F2012021F03F010144C4E9040112
:1041B00005A9FEF7FDF9F017E91706EB9050012667
:1041C00005EB9152811248F6F5509212C0F20B2085
:1041D000267605F0D6FD49F60F40C0F20B2005F01B
:1041E000D0FD44F2312040F2FB512673C0F2002092
:1041F000C0F20C214FF4805204F10803CDE90063B2
:10420000234662F0C1FC01284FF00005C2D048F2FD
:104210000A20C0F20B2005F0B4FD49F60F40C0F2B1
:104220000B2005F0AEFD2573B2E7D4D4D4D4D4D49A
:104230002DE9F04FA1B0044663F0F6F804904BF27C
:104240006720C0F20B2005F09CFD49F60F40C0F23C
:104250000B2005F096FD207B002800F0268143F21C
:104260007C4510A8C2F209254FF0000804300290E6
:10427000039400BF00BF00BF63F0D6F8617B002944
:1042800000F0CE802A68002A00F0CA80217E002932
:1042900000F0C68040F200094FF0000CC6F600099D
:1042A000CDE9050800BF00BF4FEA5C004FF4A071E4
:1042B00041F001E0002400EB800007924FEA401B30
:1042C00010464A4600BF00BF30F8046BF82144EAAC
:1042D0000C0301EA1627FC2101EAD6054D21F60060
:1042E00007FB01F896215FFA86FA15FB01861D216E
:1042F0001AFB0166DB074FEA1623137026D14FF62F
:10430000D5710BEB540607FB01F34FF6AB7105FBC0
:1043100001334FF695714D4340F20001C6F600019E
:1043200003EBCA130E444FF6EB7105EBC7150AFBFE
:1043300001554FF49637802181EA1323F35581EA22
:10434000152347F20071C0F20101735401340132A8
:104350000FF047C00CF1010C079ABCF1F00F09F502
:10436000A07902F520629FD124210298A3F027FCB6
:10437000039C0A2010901A201590252016904FF4C7
:10438000FA5014900025A07B10B1A573062011905F
:1043900040F200014FF4A070C6F600010D9001F547
:1043A00096300B9047F200700A91C0F20100A022F3
:1043B0000E9208440C900F92D4E9040108AA09ABAC
:1043C000CDE9003210AA0AABCDE90855FEF7BCFAD8
:1043D0000146089FDDF8188020BB781EB5EB504FD2
:1043E00020D14CF200250999C6F601053A46284627
:1043F000A3F0F3FBCDE91A5763F016F84FF47A7186
:104400002268A0FB01011D911C904FF00200ADF845
:104410007800A2B160681AA9904710E000BF00BF01
:1044200064203CE059B14EF6DE50C0F20A2005F09F
:10443000A8FC49F60F40C0F20B2005F0A2FC08F1E1
:10444000010862F0F1FF049943F27C45401A42F200
:104450001071C2F20925884218D362F0E5FF04907A
:1044600061F002FA0646002063F032FA009040F252
:104470000460C0F20C2041463A46334605F081FC08
:1044800049F60F40C0F20B2005F07BFC62F0CCFF38
:104490000599411A0120642938BFC1F1640062F016
:1044A00069FD207B08B12FF019C942F2406000215C
:1044B000C2F201208160002062F093FB21B0BDE8D0
:1044C000F08F80B542F24062C2F20122C2E90001DF
:1044D0000120907350734BF2EF10C0F20B2005F0E7
:1044E00050FC49F60F40C0F20B2005F04AFC0020BA
:1044F00080BD42F24060C2F20120407B00285FEAAA
:104500000F90704780B542F240600021C2F2012056
:1045100041734FF6F240C0F20A2005F032FC49F632
:104520000F40C0F20B20BDE8804005F02ABCD4D477
:1045300080B5D0E9D4230FF2700C1A449CED001F13
:104540008C4682ED000FD0F854E3CEF1000303F067
:1045500003031A44043291070EF10401C0F8541306
:1045600001BF00F5567320214FF0000EC0E9D61EA2
:1045700001BF0821C0E9D8221846624604BFBDE841
:10458000804000F019B845F241404BF6CF6243F647
:104590000663C0F20B20C0F20B22C0F20C2342F2E1
:1045A000512105F0B1FC00BF000000000000000038
:1045B000000000000100000080B532FA01F321D1B3
:1045C00003682129A3EB010101602BD2002901D44A
:1045D000436812E011F1200F34D94942436822FAAE
:1045E00001F11943836891FA81FC191D8160C3F8B8
:1045F00000C0016800232031016002FA01F1194373
:10460000416080BD45F2414040F6D02244F60A4365
:10461000C0F20B20C0F20B22C0F20C2341F6454140
:1046200005F072FC45F2414040F6D0224CF6DC43E6
:10463000C0F20B20C0F20B22C0F20B2341F647411F
:1046400005F062FC45F2414040F6D02249F61243A3
:10465000C0F20B20C0F20B22C0F20B2341F64A41FC
:1046600005F052FCD4D4D4D42DE9F04F81B00546E6
:10467000D0E9D40105F5567600EB010B01210122AA
:1046800030464FF00108FFF797FF304600F07CF806
:104690008146404200F0070A00223046514600247D
:1046A000FFF78AFFD5E9D701D144AA464FEAD906D8
:1046B00000BA0860D5F86413002546F017C808460C
:1046C000002200BF00BF00BF10F8013B022A5FEAD2
:1046D0001F97DBB2042B5FEA2787002F58EA12925C
:1046E000002B52EA04823D440FF013C00BEB050788
:1046F000B94203D038463246A3F078FA25B3B9F16F
:10470000080F4FF0000001D2002619E046F001E04A
:1047100003210022002300BF17F8015B022A06D103
:10472000032D04D85E1C0BF8031000223346002D25
:1047300050EA12925E1C0BF8035033460FF015C07E
:104740000BEB0600B8420FD8DAF8A03323B1DAF841
:10475000A423584631469847DAF854033044CAF83F
:10476000540301B0BDE8F08F45F241404FF2797239
:104770004BF20723C0F20B20C0F20B22C0F20B2336
:1047800042F2442105F0C0FBD0E90212891A006808
:10479000C0EBC1002030B0F1FF3FC8BF704780B50B
:1047A00045F2414044F616424DF67D23C0F20B20FF
:1047B000C0F20C22C0F20B2341F65C4105F0A4FBD1
:1047C0002DE9F04F81B00F460446416E9046042219
:1047D000DDE90AA9D0F89C00C4F890000020C4F8D4
:1047E000A000D4F8480302EB8101FF229B46A3F00E
:1047F000E1F9616E0822D4F8440302EBC1014022C2
:10480000A3F0D8F9B9F1000F3DD074212046BBF1D7
:10481000000F48BF1421FFF78BFE04F55676802267
:1048200008213046062F08BFC022FFF7C5FE606B87
:10483000012100285FEA1F923046FFF7BDFE0321E9
:1048400001223046FFF7B8FE042100223046FFF770
:10485000B3FE032100223046FFF7AEFE0121002205
:104860003046FFF7A9FE012101223046FFF7A4FEE2
:10487000012101223046FFF79FFE0221032230462C
:10488000FFF79AFE57E0206B022849DB4E212046B5
:10489000FFF74EFE04F55676802208213046062F9B
:1048A00008BFC022FFF788FE012101223046FFF732
:1048B00083FE032100223046FFF77EFE0421002202
:1048C0003046FFF779FE032100223046FFF774FEE1
:1048D000012101223046FFF76FFE01210022304600
:1048E000FFF76AFE012101223046FFF765FE022133
:1048F00003223046FFF760FE012100223046FFF719
:104900005BFE062F04D0012100223046FFF754FE43
:10491000012100223046FFF74FFE2046FFF7A4FE9C
:104920000121062F08BF05212046BBF1000F58BF0B
:104930006031FFF7FDFDD4F890003F25421C04F5DF
:104940005676B2FA82F0A5EB40013046FFF734FE0E
:10495000D4F88C00421CB2FA82F0A5EB400130463C
:10496000FFF72AFE0AF10102B2FA82F0A5EB40013C
:104970003046FFF721FE206E052100F01F02304671
:10498000FFF71AFE062F09D194F8A803421CB2FAC9
:1049900082F085EA40013046FFF70EFED4F88C0025
:1049A000E8B9B8F1000F5FEADF9202213046FFF765
:1049B00003FEB8F1010F12DB032103223046FFF79B
:1049C000FBFDB8FA88F03F21424681EA40013046BB
:1049D000FFF7F2FD052104223046FFF7EDFDBBF1A4
:1049E000000F56D4062F05D1206A022100285FEA65
:1049F000DF924BE0BBF1000F5FEA0F9201213046DE
:104A0000FFF7DAFDBBF1000F43D0D4F8BC0348B187
:104A1000032102223046FFF7CFFD0121012230465B
:104A2000FFF7CAFD0BEB040090F8EF0178B103210A
:104A300003223046FFF7C0FDBBFA8BF03F215A46F8
:104A400081EA400730463946FFF7B6FD12E00521FE
:104A500005223046FFF7B0FD206A3F25421CB2FA1E
:104A600082F0A5EB40013046FFF7A6FDBBFA8BF0C4
:104A700085EA4007052107223046FFF79DFD3046B5
:104A800039465A46FFF798FD012101223046FFF7CB
:104A900093FDE06DD4F81012081A4FF0FF313F2556
:104AA00001EB400080EAE070421CB2FA82F0A5EB14
:104AB00040013046FFF780FDA06B0228D4F8380390
:104AC00006DB00284FF0020050EA1092032104E0B8
:104AD000421CB2FA82F0A5EB40013046FFF76CFDB4
:104AE000D4F83803012804D0022103223046FFF70E
:104AF00063FDB9F1000F49D0606BC4F8C40300280E
:104B000044D0012101223046FFF756FD0121012248
:104B10003046FFF751FD012101223046FFF74CFDE1
:104B2000012101223046FFF747FD012100223046D6
:104B3000FFF742FD606B48B3012100223046FFF7CA
:104B40003BFDD4F8C42301213046FFF735FDD4F8EE
:104B5000C40320B9012100223046FFF72DFD0121B9
:104B600000223046FFF728FD012100223046FFF7E2
:104B700023FD012100223046FFF71EFD0121002206
:104B8000304601B0BDE8F04FFFF716BD01B0BDE8FB
:104B9000F08F80B582B000F1080ED0E900C1406905
:104BA0009EE80C40CDE900E0604600F005F802B058
:104BB00080BDD4D4D4D4D4D42DE9F04F83B00446EE
:104BC000DDE90C08CDE90008204691468A460293AB
:104BD000FFF7F6FD04F5567504F5B0774FF0403B4E
:104BE000D4F89C0398B12846FFF7CEFDD4F89C1367
:104BF000B0EBC10F0BD92046FFF736FD0C98CDE97D
:104C00000008204651464A46029BFFF7D9FD204640
:104C1000414600F015FAA069D4F89C10D4E9582355
:104C2000002802F11002C4F8602103F10802D4F850
:104C30006831C4F8642103F10802C4F8682101F165
:104C40000100C4F89C0049D02846FFF79DFDD4F828
:104C50009C10002900F09580D4F85423D4F80C322D
:104C600000EBC200E26E01305043D4F8142203FB83
:104C70001101D4F8F801C4F814128A1A0129A8BF46
:104C8000012A09DAB1F1FF3FD4F81812D8BFB2F106
:104C9000FF3F08DD01310BE0D4F81812032950EA78
:104CA000A090002104E003294FF00001B8BF0138B3
:104CB000D4F81022D4F80062D31C033AC4F81812B6
:104CC000984250EAB3833044934253EAC281A0EB46
:104CD0002620C4F80002204600F066F8606ED4F882
:104CE00094100131C4F894108142FFF679AF03218A
:104CF000102241F001E03946CB680E681B1A03FB15
:104D0000026241F8042B08220FF00BC0D4F84403D0
:104D10000021C4F894104FF0FF31C0F804B0D4F86B
:104D20004403C0F800B0D4F848030160A06ED4F882
:104D300098100131C4F898108142FFF651AFD4F8B1
:104D4000A00040B1421C3F21B2FA82F0A1EB400129
:104D50002846FFF731FC2046FFF786FC4FF0030E94
:104D6000A06E102100BF00BFFA6851433A6801FBF2
:104D7000102147F8041B08210FF00BC003B0BDE859
:104D8000F08F45F2414045F6A44249F2B723C0F204
:104D90000B20C0F20C22C0F20C2342F6C92105F010
:104DA000B3F8D4D4D4D4D4D42DE9F04F82B0D0E920
:104DB000E523994251EAB381914251EAC2813329F4
:104DC000A8BF3321D0F8F82101908A4200F0328147
:104DD00047F6FF7C0198C0F2010C4FF00008002359
:104DE000C0F8F81100F50870009000BF00BF00BFC8
:104DF0005620542201FB00F7009803FB020A03200F
:104E00007D1240F001E04BF61870D146A5EB850706
:104E1000C0F20C2001EB470707EB470300EB8303CD
:104E200033F9047B7F002F4129F8047B33F8027C9F
:104E3000AF4029F8027C0FF00DC8019A4BF6C870FC
:104E4000C0F20C20D2F88C304BF66072002BC0F20E
:104E50000C2252EA00834CF29802C0F20C2233F882
:104E60001130A9F8003030F811304CF23000C0F2A7
:104E70000C20A9F8023030F8113047F6FF701F1AE5
:104E8000A9F8047032F811B01022ACEB030500232E
:104E9000ABEB0007A9F80670BAF8004042F001E059
:104EA00060464FF4004C00BF43EA0C074FEA5C0C2D
:104EB00007FB04F6AE4253EAC7830FF00BC8A9F80C
:104EC0000C30A9F808301022BAF8043042F001E0A2
:104ED00000244FF4004700BF44EA07067F0806FBA2
:104EE00003F2AA4254EAC6840FF00BC0A9F814409A
:104EF000A9F81040A9F80E40A9F80A401022BAF803
:104F0000084042F001E000234FF40047844600BF10
:104F100043EA07027F0802FB04F6AE4253EAC2836B
:104F20000FF00BC0A9F81630A9F812301020BAF80B
:104F3000004040F001E0ACEB0B0500234FF40047CC
:104F400043EA07027F0802FB04F6AE4253EAC2833B
:104F50000FF00BC0A9F81C30A9F818301020BAF8CF
:104F6000043040F001E000244FF4004700BF00BFD0
:104F700044EA07027F0802FB03F6AE4254EAC28409
:104F80000FF00BC0A9F82440A9F82040A9F81E4052
:104F9000A9F81A401020BAF8084040F001E00023B8
:104FA0004FF4004700BF00BF43EA07027F0802FB3F
:104FB00004F6AE4253EAC2830FF00BC0A9F82630C4
:104FC000A9F82230BAF800204CF20010A9F82C20E1
:104FD000A9F82820BAF80420C0F20C20A9F834203F
:104FE000A9F83020A9F82E20A9F82A20BAF808201C
:104FF0000123A9F83620A9F83220BAF80220A9F82E
:105000003C20A9F83820BAF80620A9F84420A9F8CD
:105010004020A9F83E20A9F83A20BAF80A20A9F8B9
:105020004620A9F84220415C5FEAC8724FF00108AF
:105030003FF4DEAE02B0BDE8F08FD4D4D4D4D4D4E3
:105040002DE9F04F81B02DED108BADF59E6D0E91D9
:105050008246D0F84C43D0F8946003F061F9DAF856
:1050600088108046CAF8C000CDF8B4A0CDE90A6423
:1050700061B1701CDAF8001000018842DAF898007B
:1050800007DDCDF83080DAF804200AE0DAF898007D
:1050900058E0431CDAF804201B01934252DDCDF89E
:1050A00030803701DAF85030040103FB0060A1EBD7
:1050B000070B1021BBF1100F5BEAB186A2EB0409CC
:1050C000DAF84450B9F1100F59EAB188DAF86843B8
:1050D00005EB00159F1BC6F1100ACDF80C8100BF2F
:1050E00046F001E0204600BF15F8012B00F8012B27
:1050F0000FF007C0BBF10F0F02DD044604E000BF54
:105100005146A2F057FD1034B8F101083D44E7D1F3
:10511000B9F10F0FDDF8B4A0DDF830801FDC439843
:10512000A4F11005C0F11006364600BF00BF00BF55
:10513000102220462946A2F050FD013E103476B1DF
:105140002FF00BC0DAF85030DAF8442003FB00618E
:10515000DAF8680302EB0112102103F00DF9DAF816
:105160006813002401F5807001F50071CAE9EB01B4
:10517000DAF88C100029CAF8A4406FF00041CAF890
:10518000BC1040D00E990129C1F24E80DAF83410DB
:10519000002901F04980DAE92512DAF85431DAF809
:1051A000487103FB02110622CAF8A42007EB011282
:1051B000102103F0E1F8DAE92501DAF85821DAF8EC
:1051C0004C3102FB0101DAF8B00303EBC10103F03B
:1051D0000BF9DAE92501DAF85C21DAF8503102FB43
:1051E0000101DAF8B003083003EBC10103F0FCF869
:1051F000DAF8A4006FF00101319100212A91012118
:105200002B9101F09ABD4CF2F8100DF59A61C0F2A5
:105210000C200DF5906202F1080B90E8E800E8C15F
:10522000101D419000214FF01012504603F099FDDF
:10523000DAF8C0100D90CAF84441C943890710D16B
:10524000DAF8401308680028DAF894000BD001EB74
:105250000011096A39B10D99CAF844118CB20E0CCB
:1052600003E0DAF8940000260024DAF898108001B0
:10527000DAF848211A9244EA0643DAF854214392B4
:10528000C0EA81503104429106934FF0040E93FA24
:1052900000F22023DAF894100AF532700AF5367518
:1052A00003EB0111002300BFDAF8407357F82370B5
:1052B00045F8147BDAF8407301337F58043140F825
:1052C000047B0FF00FC8BAF9820013140DF5906932
:1052D000CDF83080B0EB224FCDE90746CDE904325E
:1052E00011DD4FF400401B906FF0004B4FF0010CAC
:1052F000002042904B464FF000086FF000400990AC
:10530000DDF804E11FE0BAF98600DDF804E183422C
:1053100009DCBAF9801010B2884204DBBAF98410B3
:10532000884240F37E864FF400401B906FF0004BA4
:105330004FF0010C0DF59063002042904FF00008F3
:105340006FF000400990DAF89410DAF8406377467D
:10535000DAF8C05006EB0114002047F8040BAA0746
:105360000D98186004F1200307D53668B6F5004F94
:1053700003D00EF10807CEF80460EA0705D01E68D6
:10538000B6F5004F18BF47F8046B2A0707D51B690D
:10539000B3F5004F03D047F8043BDAF89410A7EBBD
:1053A0000E0200290CEBA20304DC5A1C202749F84A
:1053B00023701346DAF89820002A05DC5A1C4FF4B3
:1053C000001749F8237013465F1C132BDAE9ED260A
:1053D00049F8232049F8276082F24787DDF8806486
:1053E0004FF6FC72751C002006F580361540CFF68E
:1053F000FC70002B06EA000646EA0503CDF880346F
:105400002CD447F001E00127012300BF00BF00BFFB
:1054100059F827600020751C06F580361540CFF638
:10542000FC700640012B45EA06054FF000040BDB3B
:105430004E4600BF00BF00BF56F8040B854203D0A4
:105440000134A342F8D101E09C4203D1581C49F831
:105450002350034601370FF025C800E001234345E0
:1054600058DDD0A8A3EB080700EB081409EB880867
:10547000DAE925018001D8F80020C0EA815092FACB
:1054800000F5BAF97A00B0EB254F39DCBAF97E00A5
:105490002914814234DCBAF9781028B288422FDB13
:1054A000BAF97C1088422BDCD8F80090DAF8F821A1
:1054B00048460D992E0403F02FFCAB1443991A9A19
:1054C00003FB01220546234602EBA640DAF86823D7
:1054D00003F08AFBDAF880130646002904DC204634
:1054E0000DF59A6103F0D9FB429871195844814235
:1054F00006DAB3464295CDF86C9000BF00BF00BFFE
:10550000013F04F1100408F10408DDF8B4A0AFD1A4
:10551000DAF894100FF62842DAF84003C4ABDAF850
:10552000684392ED003F0FF6284290ED001F92ED88
:10553000005FDAF8F82183EC420F90ED041F00EBD6
:10554000011083EC440F90ED081F0FF6144090ED0E
:10555000003F83EC420F1B980D9903F0DDFB0FF623
:1055600010415844259004F5807004F500746FF0E4
:105570007F4800276FF07F1C4FF0801E91ED009F49
:105580000646CAF8BC800DF59A6151F8271000292B
:1055900000F0D68421948024022F4CF2082108BF09
:1055A0000824002F4CF2C02308BF4FF48074DAF8AF
:1055B000F821C0F20C21C0F20C230825022F51F86B
:1055C000271038BF102533F8122010944FEA4404F6
:1055D0004FEAC77308BF4FF48074002B4FF00803E5
:1055E0000F9402FB01F108BF102345EA03423092F9
:1055F000DA000911299142EA55016A1E01F0880179
:105600001291A9081F9199081E91012101EB9201A5
:10561000429144A9AAEE105B01EB87111D9184A968
:105620009B464FF000082A97ACEE105B01EB871108
:1056300013900024002037461C91AEEE105B20959D
:10564000A0EE105B8DED141F82B24399950011906E
:10565000000424901A9801FB0200239010012B9063
:105660001992900822902695DAE925012F9780015A
:10567000C0EA81501B9991FA00F0DAF8981002B252
:10568000DAE91E37A24645EA81111EB2A1F1FC04F7
:10569000FC31B4EB234F3DB2D8BF1C14B1EB274F04
:1056A0004346A8BF3914B24252EAC68227B20FFA63
:1056B00081F93946AA4252EAB582B7EB204F1FFA68
:1056C0008AF8B8BF0114494551EAB9843F92CDF830
:1056D000A0A02793DDF8B4A0C2EA044090FA0CF130
:1056E0003E9190FA0EF040902498309A40EA0801DA
:1056F000504603F036FB2A99CDF8B88000292C904B
:1057000000F0C280DAE9252154469201C446C2EA7B
:10571000815190FA01F0411C00F5803021F0030125
:10572000269E0AB26FF0030101EA1040DAF89810E1
:10573000DAE91E3700B246EA81110FFA83FAA1F1C5
:10574000FC0601F1FC05B6EB234F0FFA87F8D8BF32
:105750001E14B5EB274F31B2A8BF3D14524552EA93
:10576000CA822BB24193424552EAB887884250EA36
:10577000C180984250EAB3826FF07F10C7EA0243BB
:1057800093FA00F0409019983C9200EBA2003E93EF
:105790004FF0801293FA02F23D92439B1A9A00FB5B
:1057A0000320D4F868232B9B3F971A4400EBA700F3
:1057B00002EB0C0900EB0C07002400229DED145FA6
:1057C00042984FF0000C40F001E03D464E4638460E
:1057D0004B4600BF00BF00BF28FE6C0F0CF1040C4D
:1057E00025FE818F95FD000F96FD002F20FF4207BB
:1057F00031FE4D8FF9FE204FB0FC042F054671FE9F
:105800004D0FB3FC040F1E460FF01BC0013243982E
:105810005A45074409F11009D2D1409B0A4618B2F3
:10582000504550EACA80404550EAB880B1EB234F5A
:10583000B8BF1A14419E3D9F3BB2B24252EAB682B3
:10584000534553EACA83434553EAB8834093B1EBC7
:10585000274FB8BF3914DDF8B4A0B14251EAB68180
:105860002C9EDAE9253741919B01C0EA0248C3EA40
:10587000875396FA03F1DAF8F8213E983A9203F04A
:105880004BFA00EB040929E0409A39463C94B7EB07
:10589000224FB8BF1114494551EAB981419111B263
:1058A000B14251EAC681A94251EAB58140913E997F
:1058B000B7EB214FB8BF0F1409B24F4557EAB98271
:1058C000B14251EAC681DDF894900646A94251EAF8
:1058D000B581C1EA0248DAF8F8113A91DAE925010E
:1058E0004CF2981780013C9CC0EA8152DAF86803B8
:1058F00021B2C0F20C2796FA02F2B1EB284F39928E
:105900000DF59C6C2B9AC0F27C83419B1DB2A94281
:1059100000F377833F990FFA88FE09B28E45DFBF07
:10592000409B1BB24193994200F36B8323992E9BBA
:1059300010441944184438904FEA284348463F9E83
:105940003B91CDF894904093CDE936E54FF0000AB5
:105950004FF004084FF0FF31CDF8EC14CDF8E81407
:10596000CDF8E4143591CDF8E0143F9000BF00BFAE
:10597000C6EA044057F82A1090FA01F9B3EB294F10
:1059800000F3A3804FEA2940A84200F39E800FFA5B
:1059900089F17145C0F29980419A914200F3958056
:1059A0003CF81A204FF6FF739A4240F08D80439ADC
:1059B000CDE93D4600FB02104FEA19413C913B996D
:1059C0000026002201EBA00C389F00BF00BF00BFE3
:1059D0004298002340F001E06046394665463C4667
:1059E00028FE630F04332FFE818F90FD000F91FD81
:1059F000002F20FF420731FE4D8FF9FE206FB5FCCE
:105A0000042F284671FE4D0FB4FC040F21460FF001
:105A100019C8013243985A45844407F11007D7D179
:105A20004846DDE9391203F077F93F9930440DF526
:105A30009C6C88422CF81A001FDA359C4CF298179F
:105A4000B4F1FF3FC0F20C27DDE936E51EDD0CEBBB
:105A50004A01DDF8E024DDF8E4340989CDF8E824D2
:105A600084F00102CDF8EC344FF0FF33CDF8E4348C
:105A7000CDF8E0342CF8121016E04CF29817DDE95E
:105A80003D46C0F20C27DDE936E51DE0DDF8E01407
:105A9000DDF8E424CDF8E814CDF8EC244FF0FF3124
:105AA000CDF8E414CDF8E0148AF00101CDF8D4A0CB
:105AB000AAF1010A4FF005083C9C4E463F9A2CF88B
:105AC00011203F9000BF00BF409B0AF10100B8F1D8
:105AD000010800F0030A7FF44BAFBDF8E414BDF8F1
:105AE000E084BDF8E624BDF8E2A40220CDE933212C
:105AF0008A4250EA209C52EA3182C2455AEA3880F2
:105B00005FEA2F91CDE9310282425CEA318251EAAB
