:020000040200F8
:10000000C0210122D37C0102197B0102DD7C0102A7
:10001000DD7C0102DD7C0102DD7C0102DD7C010270
:10002000000000000000000000000000B11A010202
:10003000DD7C010200000000C91A0102311B01022F
:100040001D5C0102555D0102355E0102E95E01029F
:10005000FD650102B9280102E527010225290102F7
:100060005D290102C16E01022D6F0102656F01025F
:1000700091710102CD230102712401022D49010277
:10008000B1490102114A0102494A01027D4A0102B5
:100090001121010229550102615601026156010236
:1000A0000000020011170002000000000000000024
:1000B000010001006275696C74696E006275696C9B
:1000C00074696E0000000000000000002D000000B8
:1000D0000000000000000000000000000000000020
:1000E00000000000000000000000000069C40302DE
:1000F000CFD40302A0760302AFE603024F950302BA
:100100001DD90302AC7603025A950302297F03022C
:10011000A873030244850302B66603021AB70302FA
:1001200026B7030209AE0302B57603024ED10302DD
:100130005F95030229CB030222A5030270E30302A9
:100140007CE30302007B0302B0730302C6A8030230
:10015000398F0302FC980302B8730302398F03023C
:10016000448F0302F59C0302EEA00302B381030255
:100170000B7B030208990302DD890302C0660302B8
:10018000167B0302C1BA03022AD903022D7F0302A0
:10019000BC730302C9660302F8A00302F8A00302BD
:1001A0002CB703028EC703022D7F03028EDD0302EC
:1001B0002D6F030281E30302CEBA03024C8F0302C8
:1001C0006FC40302639503029CDD030239B7030287
:1001D000BF810302C573030218AE030227B20302F4
:1001E00038D9030248D90302A8DD0302377F03028E
:1001F00033B2030254D90302D9BF0302FE9C0302A7
:100200005A8F03027EC40302CFA8030223AE030267
:100210003DB2030223AE0302D36A030289C4030280
:10022000D8D40302CF660302E8890302437F0302A6
:10023000099D0302BB760302C9760302DF6A03024B
:10024000507F03020F99030231AE0302E76A0302F3
:10025000DABA0302ED6A0302E5BF0302139D03024B
:100260004E850302BBE60302D4660302D8A803024C
:100270009BC703022CA50302567F030230CB030267
:100280001D9D0302376F0302F2890302DFA80302F8
:10029000FB89030219990302249D0302018A0302C8
:1002A000217B0302E4D40302648F0302CC810302A6
:1002B00055D1030249B20302D17303025C7F0302EA
:1002C000719503021CEB0302DA73030257850302E4
:1002D00020990302E3BA03022E9D03022A99030226
:1002E0002BEB03027A950302B5DD03022D7B03029B
:1002F0003BCB030261D9030236A5030293C4030278
:10030000397B030237EB0302DC660302E7A8030232
:1003100044B703026485030245CB03020D8A03023E
:100320004FCB0302637F03023CA503024AA50302ED
:10033000FFA00302819503023DEB03025BD10302A0
:10034000D9760302D28103020CA103023C9D030271
:1003500052B703028BE3030248EB03023C9D030206
:100360006D7F0302EDD4030216A103024EB2030215
:10037000E46603025BB203026C85030262B203020D
:10038000C1DD030258CB0302DB810302449D03025B
:100390006BB2030233990302F9D403023F6F0302E5
:1003A0003EAE030265CB03024C9D030252A503023D
:1003B000EBBA030244AE0302178A03026D8F0302F5
:1003C0006D8F03026D8F03026D8F03026D8F030229
:1003D0006D8F03026D8F03026D8F03026D8F030219
:1003E0006D8F03026D8F0302A1C70302F1A8030200
:1003F0006D8F0302F5BA0302F66A03026ECB0302A5
:100400006ECB03026ECB03026D8F03026D8F03026E
:100410006D8F03026D8F03026D8F03025EB70302BF
:10042000CBDD0302CBDD0302CBDD0302CBDD030218
:10043000CBDD0302238A0302E0760302417B030241
:10044000ECBF030264B703023C9D0302E77603029C
:10045000FDBA03023C9D03023C9D03023C9D030246
:100460003C9D030272B20302758F0302FB6A030212
:10047000D5DD030203D503024FAE0302AAC7030270
:1004800072B7030272B7030220A1030220A1030284
:10049000DEDD0302B3C7030256AE0302076B03029D
:1004A0006AD9030279B2030279B20302C7E60302F2
:1004B0008B950302E7DD030259A5030259A5030248
:1004C00006BB03027DB20302F9BF030227A10302A8
:1004D00077850302476F03028085030278CB03020E
:1004E00061A50302EB660302E481030294E30302C5
:1004F0000EBB0302E47303020AD503023D99030213
:100500001DBB030251EB03022B8A0302ED810302A0
:10051000348A0302106B0302106B0302EC730302B4
:100520003F8A0302EF760302FA760302429903023E
:1005300026BB030215D5030279B20302767F0302BC
:100540007BB70302BEC7030232A103022CBB030226
:100550004999030288B20302A2C403028A850302F6
:10056000EF66030286CB0302D3E6030201C0030257
:1005700068D103028DCB030209C0030275D10302C7
:10058000FC660302F5730302046703024F9903023A
:10059000176B030259EB030294CB030269A5030214
:1005A00076A5030203770302579D030235BB0302BE
:1005B0004B8A0302579D030283B703029685030209
:1005C0003DA103027BD10302979503029CCB03025A
:1005D00041BB0302007403027C7F0302A4CB03022D
:1005E0001BD503028AB70302EDDD03029A850302DD
:1005F00041A10302F7A8030273D90302507B03024F
:10060000507B0302A485030226D503025E9D0302EC
:100610005FAE030262EB03027FD10302AD850302EA
:10062000FFA80302A39503026CAE0302226B030230
:1006300079AE0302A1E303020A740302ACE30302EE
:10064000F6810302B2E303022FD5030284D1030231
:10065000837F030280AE0302117703021174030249
:10066000BCE30302AD950302D8E60302296B030243
:10067000E3E6030258990302699D030291D1030244
:10068000177703020F670302867F03027EA503022A
:100690006F9D0302C4E303027BD9030292B20302FB
:1006A0006EEB0302EBE60302B29503020EC00302F7
:1006B00084A50302578A030285D9030237D50302B2
:1006C0003ED5030298D103028BD903025A7B030261
:1006D000FA810302617B030249A10302759D0302B3
:1006E00078EB03025A7B0302566F0302BD950302A7
:1006F0001C770302F3E6030293D9030207A903025E
:1007000013A90302AEC403025A6F03024FBB0302D4
:100710008EAE03029FD103025F6F030215740302C2
:10072000CBE303021E7403021EA90302808F03029F
:10073000A0D90302C6C7030246D5030224A90302B7
:1007400057D503026699030257A10302F7DD03029E
:100750005BBB030215C00302D6C70302636F03022B
:100760007A9D03026A7B0302D2E3030268BB0302A1
:100770008E8F03026A6F030203820302D9E303022E
:10078000AAD90302306B0302ABCB0302DCC703021E
:100790002DA90302B4D903025FD50302889D030289
:1007A000746F0302B4850302B2C40302257403020A
:1007B00066D5030298B2030275BB0302BED90302D9
:1007C000B8CB03021767030232A9030204E703024E
:1007D00001DE03020C820302CAD9030272D50302AE
:1007E0008F9D03022C770302BBC403029BAE03025E
:1007F000337703027DBB03020CDE0302E7C703026B
:1008000086EB0302A3B20302ACB20302969D03027D
:100810007D6F03029A9D0302968F03023BA9030298
:100820008CA50302A5AE030261A103021682030296
:10083000A08F030215DE03021CC00302EEC70302F1
:1008400085BB030298A50302386B0302C6C40302EA
:100850001D820302A58F0302A09D03027ED5030221
:100860008DBB030246A903028D7F0302BF850302ED
:10087000BFCB030268A10302B6B20302AE8F03022C
:100880002D7403024DA9030291BB0302CC85030220
:10089000CCC4030210E703029BBB0302C8CB0302D4
:1008A000977F03026C9903028FEB0302BDB2030230
:1008B00093B70302AB9D03029DEB0302B88F0302C3
:1008C00037740302A5EB0302AAEB0302288203029A
:1008D000C395030222DE03026FA1030229C00302B3
:1008E0003D740302B29D0302DFE303025E8A03024A
:1008F000D2C40302688A03029AB703021E67030286
:1009000037EB03023D7703024B740302EBE3030270
:10091000D2850302CECB03021BE703026D8A0302DA
:100920009FA50302B79D0302C6B2030291BB030257
:10093000CED90302D3CB0302CD950302F2C7030243
:10094000D9C4030225670302ABAE030232C003021F
:10095000FFC7030237C0030253A90302A27F0302A9
:10096000737B0302E1C40302F0E3030287D50302B1
:10097000787B0302CFB20302EBC403025BA903023C
:10098000A3A50302306703023F670302D5D9030220
:10099000F9E30302D9CB0302E1D903027C7B030212
:1009A00074A10302338203023982030251740302E9
:1009B0003F6B0302B1EB0302AB7F0302A5BB030253
:1009C00072990302B87F0302DC850302D6B20302E8
:1009D000856F03024B670302758A03027E99030247
:1009E000486B030292D5030227DE030285990302B6
:1009F0008D99030292990302E2CB0302936F0302E3
:100A0000506B0302FEE303029EB70302617403020C
:100A1000447703023CC00302BAEB0302D3950302FE
:100A20009E6F0302C6B2030262A90302EECB030269
:100A3000C1EB0302478203029CD50302A6D5030241
:100A4000CBEB03024C82030297990302DA9503026F
:100A50000CE4030207C803026C740302576B030221
:100A6000DF9503024F770302E495030254770302F4
:100A7000598203026FA903027E8A030216E403026D
:100A800047C0030222E70302D3EB030230DE030276
:100A9000E785030229E70302AA6F030277740302C2
:100AA000B6AE0302F0850302F98503025367030221
:100AB0008C8A0302616B03025E8203022FE703024A
:100AC000887B03027E740302F6C4030221E403025E
:100AD00076A9030285740302A8D10302907403026D
:100AE000EDD9030216C8030216C80302917B030264
:100AF000696B0302ACA5030250C00302B4A5030254
:100B0000C47F030235E70302688203027682030290
:100B10007CA9030235DE030240DE0302AED50302E8
:100B2000F8CB0302B0D10302C18F0302DCEB030256
:100B3000DFB20302B8D1030207860302A1990302C0
:100B40002DE403029F7B0302E4EB0302706B0302BC
:100B500059770302A57B0302F3950302F5D903023B
:100B6000FF950302E7B20302C1AE0302AD9903028F
:100B7000138603023AE703025B670302C6AE030271
:100B8000FDC40302AC7B0302958A0302B6D50302BF
:100B9000B1BB03026667030201CC0302FCD9030266
:100BA000786B03027DA10302B2990302816B0302F9
:100BB00035E403021EC8030206CC03025F7703027A
:100BC00004DA0302EFB20302CC7F0302B8990302F6
:100BD000B77B03020BDA0302C3990302B46F03026B
:100BE0006677030212DA0302BDD503029E8A03026E
:100BF000987403028E6B030244E7030225C80302C4
:100C0000CB99030220DA0302BFA50302D69903029F
:100C1000A674030255C00302707703026E670302D5
:100C2000AC8A0302858203024EE70302B38A030201
:100C3000B2740302EEEB0302D47F030288A1030225
:100C400003960302BE7B030259E703022ADA03027A
:100C5000C06F030202C503028A820302B974030251
:100C6000BF8A0302BC9D030292820302FDEB0302D2
:100C7000FBB203023FE40302CDAE030243E40302EE
:100C80008FA1030206B30302C7A50302CB6F0302C1
:100C9000DD7F0302CEA5030212CC0302CB8F030239
:100CA0007C77030208EC0302D66F0302DAAE03027C
:100CB0009AA10302A3A10302827703020EEC0302AE
:100CC000BFD10302A9A1030219860302A9B7030237
:100CD000C48A030285A903024ADE0302D38A0302FF
:100CE000998203024FE40302C47B030290A903022A
:100CF000E1AE03020B9603021AEC030236DA03029A
:100D00001FCC0302C79D03025AE40302D98A0302DF
:100D10009BA9030218960302E199030265E7030207
:100D2000EC99030292770302F7990302DD8A03022A
:100D3000E77F0302DC6F0302E98A03027B67030299
:100D4000D18F0302A78203025AC00302AE820302BC
:100D5000A4A903022786030207C5030299770302A9
:100D6000D27B03025FC00302BABB030253DE03025D
:100D7000368603026EE70302C97403022ACC03021B
:100D8000946B0302D3A503026AC00302B582030277
:100D900061E40302AFA90302BE82030241DA030247
:100DA000C8D50302F08A03026BE40302FD99030233
:100DB0000BC5030239CC030276E40302EBC4030241
:100DC000E6AE0302737B03024FDA0302DF7B03020A
:100DD000AEA10302A06B0302D4D103028567030214
:100DE0005BDA030275C00302D274030279E70302DF
:100DF0000EB30302059A0302AA6B0302C7BB0302E8
:100E00002EC80302F2AE0302B26B03020A9A030277
:100E100018B30302D0D50302DF740302CB820302AE
:100E2000A2770302D282030258DE0302AA770302EA
:100E30007FE703025DDE0302E5740302FCAE0302FA
:100E4000D7D50302DED5030208AF0302E57B030218
:100E5000D0BB0302DAD10302B9A1030263DE0302AD
:100E6000F17F030216C50302FA8A0302DD82030240
:100E700065DA03021FEC030270DE03023E86030202
:100E8000B6B70302E7820302E6D50302B96B030299
:100E90007CE40302B67703027EDE030287DE0302F0
:100EA000058B030229C003021E9603028BDE030298
:100EB000C1A10302E4D10302D8A5030239C8030289
:100EC000D78F0302EBD10302EB6F0302EE7B030229
:100ED00043CC0302F08203024ACC0302CE9D0302FC
:100EE000C06B0302EFD50302DDA5030256CC03025B
:100EF0008E670302E6A50302438603023FC803028E
:100F0000DE8F03028BE40302EA8F03024BC8030265
:100F10000F8B03027FC0030210AF03029567030229
:100F2000C1770302F3A503022796030286E70302B3
:100F30006DDA0302F074030260CC03029A670302C5
:100F4000F574030227EC030273DA030259C80302A3
:100F5000FB820302F46F030265CC03028BC0030221
:100F600095C0030267C803022EEC0302FD7F030253
:100F7000D7BB0302C57703026FC80302A36703024E
:100F80001CAF030275C803027FDA0302F3D1030228
:100F90006BCC0302B9A903020F9A03020780030274
:100FA00074CC03020780030200A60302C5A9030252
:100FB00029AF0302CFA903029EC0030200D203029D
:100FC000AB67030209A6030235EC030210A6030275
:100FD000F8D50302189A030207830302007503027F
:100FE00081CC03023BEC03027CC80302C2B70302BC
:100FF00002D60302D7A9030214A603021C8B030224
:10100000E1A903024D860302238B0302F67B030250
:101010000DD20302D1770302C9A103022C8B030274
:101020001AA60302A7C00302C76B030235AF03026F
:10103000D99D030223B30302AEC003025686030206
:1010400011830302FA7B03021F9A030293E4030253
:10105000D2B703028DCC030294DE0302E19D0302AA
:101060002B9A030208D603029CE40302D5770302FD
:1010700086C8030210D6030290C803022F9A030207
:10108000DC7703021CC503020E800302C0A847DE02
:10109000FFFFFC00C0A8440108080808028A9B71F1
:1010A00004D20000000018880000000000000000CA
:1010B00001004000028A9B7104D2028A9B7104D213
:1010C0001410002201000000240A0E22000000007B
:1010D00000000000000000001A10002201000000C3
:1010E000340A0E2200000000000000000000000092
:1010F000028A9B7104D2000002010000000000007F
:1011000098120E22000000000800000002000000FB
:10111000000000000101000018130E220000000072
:1011200000000000050000000200000000000000B8
:101130000101000068130E22000000000000000002
:101140000500000002000000000000000100000097
:10115000B8130E220000000000000000050000008F
:1011600002000000000000000100000008140E2230
:101170000000000000000000050000000200000068
:101180000000000078150E22781B0E2278210E2216
:1011900078270E22782D0E2278330E2278390E22EF
:1011A000783F0E2278450E22784B0E2278510E227F
:1011B00078570E22785D0E2278630E2278690E220F
:1011C000786F0E2278750E22787B0E2278810E229F
:1011D00078870E22788D0E2278930E2278990E222F
:1011E000789F0E2200A60E225011002244110022E8
:1011F00044A20B020F000000800000000F0000005E
:1012000080000000E8030000000000000000000073
:1012100010A60E22000000000000000000000000E8
:101220000100000000000000101F00008481030284
:101230000101000000203440002834401027000045
:1012400006060000FD8C0202C98D02024A8E0302CE
:0812580001000000000000008D
:10128000B0B507488568D0E9004120462A689047F4
:10129000696820468847034800210160B0BD00BF4F
:1012A000E4A50B02F0210122B0B5074800F02AF8AE
:1012B0000648002101602046E968884769682046A1
:1012C000BDE8B040084700BFE4A50B02F0210122B1
:1012D00001480068704700BFF0210122081A0A2166
:1012E000B0FBF1F070474FF47A71B1FBF0F070474A
:1012F000007900B170470248016801310160704710
:10130000F0210122856804682046A9680847D4D4E2
:10131000F0B500224FF0FF34094B8A420DD0855CB6
:101320006C4008253DB183EA5406E70708BF66080C
:10133000013D3446F6E70132EFE7E043F0BD00BF80
:101340002083B8ED10B520293CBF144810BD0446D9
:101350000068144A90421CBF114810BDA0880128A3
:101360001CBF114810BDA268114B10489A4213D8F7
:1013700002F120038B420FD8606A0F4988421CBFDC
:101380000C4810BD04F120001146FFF7C1FFE168D1
:101390000A4A401A52EA108010BD00BF68CA030210
:1013A00031E60302494F545656EA030207BA0302D4
:1013B000E0FF3F00A9C3030254464C33F4970302F5
:1013C0002DE9F84F8946804600F00EF9404649461F
:1013D000FFF7B8FF10B16FF0150764E04FF6FF702C
:1013E00009EB000121EA000400F07CF92F480027F6
:1013F000324E0025D0F800B0D0F808A097B9A54229
:1014000010D2A5F1D945DAF8183058464FF4803299
:101410002946984720B9354400F052F80746EDE7D1
:101420006FF0040700264C46CDF80080BFB94E454A
:1014300015D2A6F1D9472346402C5846414628BF2D
:101440004023DAF814503A46A84740BB1A4808F13E
:101450004008403C3E1800F033F80746E6E707BB7B
:1014600000991348B9F1010F10DBA9F10103012222
:10147000BFF34F8F02EB531E0E4B02461A60203211
:101480000FF005C0BFF34F8FBFF36F8F4A4632F0A6
:10149000FBFE0746002818BF6FF0530701E06FF00E
:1014A000040700F029F93846BDE8F88F58A00B0270
:1014B000000080935CEF00E04000806C0000816CD5
:1014C000F8B500208DF803000D4F0DF103050B4812
:1014D00004688668013F0AD0F26920462946904791
:1014E00040B99DF803000028F4D10020F8BD6FF04A
:1014F0006D00F8BD6FF00400F8BD00BF58A00B02EE
:1015000001093D00F8B514460F46054600F06CF899
:1015100000F0E8F82148BFF34F8F2149214B0160CB
:10152000BFF34F8FBFF36F8F0A689A4210D18A685A
:101530001D4B9A4207D802F12006202E334628BFC1
:101540002023BE4209D900F0D7F86FF00B00F8BD98
:1015500000F0D2F86FF00100F8BDD21A0123BFF3FA
:101560004F8F3F3203EB521E016020310FF005C058
:10157000BFF34F8F0A4928463246BFF36F8F32F0D0
:1015800018FC00F0B9F828463146FFF7DBFE0028CA
:10159000E0D104B126600020F8BD00BF5CEF00E0A0
:1015A00000008093494F5456E0FF3F0010B500F013
:1015B0001BF800F097F809494FF4805208688968D1
:1015C0008B690749984710B16FF0040402E0FFF7F8
:1015D00077FF044600F090F8204610BD58A00B029B
:1015E000000080937047D4D4B0B5344D686828B9F2
:1015F00005F10801012017F027F868604FF0FF316E
:1016000017F0E6F8287800284ED12D4C4FF483715E
:101610000422204614F0A2F86420012116F040FABA
:1016200020464FF48371012214F0B2F801204FF4E8
:101630007A7116F035FA234A20464FF4837114F07C
:101640008DF8214A07CA126890470E2801D0034638
:10165000E0B91E481E491DF0BBFB18B31D4C0346E4
:101660001D4A6021204632F09DFE204600F098FC85
:10167000164817491DF042FB20B9144814491DF0C3
:10168000A7FB78B10346134C144A01E0114C144AED
:101690002046602132F086FE204600F081FC4FF0AB
:1016A000FF3402E001202870002468680021002235
:1016B000002316F0D3FF2046B0BD00BF5422012204
:1016C00098A60E220004011CDCA00B02A0A60E228C
:1016D00064A00B02F421012238B6030220D80302D1
:1016E000AD9403020348406818B14FF0FF3117F082
:1016F0006FB87047542201220448406820B100218D
:101700000022002316F0AABF704700BF5422012216
:1017100070B50A4D044629689E2903D808484454E8
:10172000013129600A2C01D09F2905D304480026E5
:10173000465400F035FC2E60204670BDA4220122E4
:10174000A82201227047D4D40849007908704FF0CC
:101750007040EFF3038100EB0160054980154258AA
:1017600022F4803242504058704700BF10000022DF
:1017700000C30040E0B500BA03220023000CADF81E
:10178000050008780DF105018DF80700054814F0F3
:101790002AF908B101208CBD00F006F800285FEAA4
:1017A0000F908CBD08A80E220A49002008704FF641
:1017B000FF70013802040AD00A78002AF9D00A78AA
:1017C00000200870012A08BF4FF4967070474FF44C
:1017D0009670704710000022BCB540BA0D46ADF8B7
:1017E00006000DF106010222012301240B4814F02A
:1017F000FAF888B9FFF7D8FF08B101240CE00748D0
:10180000294601220023012414F0E8F820B9FFF74B
:10181000CBFF00285FEA0F942046BCBD08A80E222B
:101820002DE9F84F2DED0C4B804618469B46B0EE47
:10183000408A16460D4632F0E3FA074630014FF073
:10184000000A00B207902B48A0F55574BA454BD05A
:101850001BF80A0046212346013942D003F556728F
:1018600093F8543383421346F6D1D2E9006901203C
:10187000019002F10C01CDF800904046324633460B
:1018800004F0B3FA00EE109A0C20059031B20FFA72
:1018900089F20023B8EE400A07980490280128EE48
:1018A000000A00B2039000200090BCEEC00A10EEC7
:1018B000100A00EE106AB8EE400A000128EE009A05
:1018C00000B20290BCEEC90A10EE100A000100B28C
:1018D0000190404604F0B2FABDEEC90A10EE100ABB
:1018E00005440AF1010AB1E7BDEC0C4B01B0BDE8BB
:1018F000F08F00BF80EF03022DE9F04F8DB005900F
:10190000002502F0A9FA0390039885425FD00AA847
:101910000BA9CDE9001004950CAA0DF12E03284661
:101920000DF1320102F09EFABDF930000222BDF93C
:10193000321000EB800001EB810190FBF2F9BDF960
:101940002C0091FBF2F101F1500700EB800090FBBD
:10195000F2F000EB0906BDF92E00CDE9086900EBB5
:10196000800090FBF2F0C4190320CDE9064758B37C
:10197000A246079CB346069E059D80464B462846D8
:101980002146324600F026F82146324628465B467C
:1019900054465E4600F01EF8DDF824A0DDF820B0C5
:1019A0002846394652465B4600F037F8284621461D
:1019B00052465B4600F031F8013C0137013E09F127
:1019C0000109A8F10100D2E7049D01359CE70DB0A3
:1019D000BDE8F08F002B05D410B55C090E2C02D9A0
:1019E000BDE81040704722EAE27240F27F2421EA0B
:1019F000E17103EB8303A24252EAB482A14251EAAD
:101A0000B4811B0203EB410318444FF4FC63914281
:101A1000E6D820F8023B0131F9E7002905D410B5DA
:101A2000CC09042C02D9BDE81040704723EAE373C7
:101A300022EAE27240F2DF14B3F5EF7F53EAD48377
:101A4000B2F5EF7F52EAD48202EB8204240204EB67
:101A5000410108444FF4FC619A42E4D8018000F54A
:101A6000A0600132F8E7D4D41CB5002005F0A0FC3A
:101A7000184C0021206005F005FD01214FF4F072A3
:101A8000CDE9002120684FF4207313494FF42072F0
:101A900006F030FE2068002106F0EFFA20680221EF
:101AA000032204F039FF2068012104F01AFF2068A6
:101AB000FF2104F0FEFE2068012104F065FF20688C
:101AC000002104F07BFF2068002104F086FF002045
:101AD0001CBD00BF20A70E2200008068BCB50078A6
:101AE0000021019180071FD0104D2C68FFF7F0FBFB
:101AF00001462046FFF7F2FB0D498860FFF7E8FB3F
:101B000028600C484FF4806201680B4801AB18F064
:101B100003FB48B1019838B108484FF0805101608B
:101B2000BFF34F8FBFF36F8FBCBD00BF48230122AF
:101B3000D427012224A70E227984010204ED00E0BB
:101B400070B53C4C4FF4AF215522204632F01EF9BF
:101B500039483A4A3A4E0168C3888088584301EBB5
:101B60004000C2E900100121EFF3108081F31088DA
:101B7000316821B9334900220A7040220A70316865
:101B8000314D00220131316080F31088284640F247
:101B9000066113F0FDFD0A20012115F081FF2846A2
:101BA00040F20661012213F0F3FD78204FF47A71C0
:101BB00015F076FF2548204914F0DAFD10B10546EE
:101BC000062005E0214814F071FF28B105460820E1
:101BD00000F04AFA284670BD28204FF47A7115F0BB
:101BE0005FFFEFF31080012181F31088316811B19C
:101BF000316801393160316821B9124900220A7017
:101C000080220A70134A80F31088114800F11401F1
:101C10005268683292E868000F4A68C100250F4B8D
:101C20004361C0E90042022101734FF4A071816059
:101C3000D0E700BF0080A568E4A30B024C2301227B
:101C400010AF0E22140D404098A60E2288A60E2238
:101C5000582301226CA40B0240013002BC02280070
:101C60000348044900220068096814F055BF00BF0A
:101C70006CA40B02EC2701220148006806F008B8AA
:101C800020A70E2280B50448006806F013F8BDE8CE
:101C90008040FFF7E5BF00BF20A70E222DE9F047E7
:101CA0002DED028B96B0044603F0DEFB9648002132
:101CB000006816F087FB000400F11681FFF7DCFFD7
:101CC000DFF8489299F8000050B1002C00F0EC8049
:101CD00099480368002B46D09848B0FBF3F043E0E6
:101CE0008B4C4FF4AF21204632F055F8894E4FF41B
:101CF0000C710125CDE900154FF4A0724FF4A073CB
:101D00002146306806F0F6FC306805F0C1FF306807
:101D1000B7EE0C0A804B814C14211922A0479FED8D
:101D2000808A30687F4B14215F2200F02FF93068E1
:101D30007D4B1421872200F029F930687B4B142158
:101D4000CD2200F023F93068794B142140F2311292
:101D500000F01CF9774840F20E51012213F018FDF3
:101D600089F80050A0E0002075490026096821B1DB
:101D70004FF47A72B2FBF1F500E00025009006AC5A
:101D8000704ADFF8C4A124212046D047DFF88481BF
:101D9000B7EE008A614F1421F5222346B0EE480ABF
:101DA000D8F80000B847694A204624212B46D0477E
:101DB000D8F8000014214FF48872B0EE480A234688
:101DC000B84715A813A914AA12AB02F0B1F902F092
:101DD00043F80446CDE9106611A810A902F0BEF937
:101DE00005461398159B5A4A2821009006AE3046A6
:101DF000D047D8F80000142140F26312B0EE480A30
:101E00003346B847149B534A30462821D047D8F868
:101E10000000142140F28112B0EE480A3346B84760
:101E20007DB1119B06AC504A2821204632F0BAFA07
:101E300000F0A4F82346FFF7F3FC109B4B4A204622
:101E400025E006AD444A28212346284632F0AAFA66
:101E500000F094F82B46FFF7E3FC002C4BD003A8CE
:101E600004A9CDE9001005AA0DF112030DF1160128
:101E7000002001F0F7FF9DED031A9FED380A06A838
:101E8000374A21EE000ABDEEC00A10EE103A2821B2
:101E900032F088FAD8F80000B7EE000A06AB142139
:101EA00040F2BD12FFF7BCFC1A4C206805F002FF9F
:101EB000206805F084FB16482D4ABFF34F8F00F0D1
:101EC0001F011144012202EB511E2A4908602030F3
:101ED0000FF005C0BFF34F8F09F10401264801221E
:101EE000BFF36F8F14F0FAFDFFF7CCFE16B0BDEC18
:101EF000028BBDE8F0871B480EC80EC501888078AC
:101F00002980A870C6E700BF24A70E22542301220F
:101F10000080A56820A70E229F8E030221180002D0
:101F20009A99993FF78403020198030240D803026B
:101F30000685030298A60E2204BB0B2240420F0026
:101F4000D42701228ED00302A54303021C6603029C
:101F5000D9A4030273CA03023BE603020000C8428D
:101F600069B6030238D6040256B60302F0A403028F
:101F7000FF77050068EF00E06CA40B02D8F80000C2
:101F8000B7EE000A142140F29F127047B0EE480AE3
:101F90002047D4D4014A07CA1268104760A50B0233
:101FA000F8B51E4E0446306928B906F11401012027
:101FB00016F04AFB30614FF0FF3116F009FC0020AB
:101FC000F0601748056880688768204631F018FF80
:101FD000024628462146B84768B1306900210022F0
:101FE000002316F03BFB1420142400F03DF81420CD
:101FF00000F03AF80FE0C82434B1F06820B90120AD
:1020000017F06AF9013CF7E730690021002200234C
:10201000002416F023FB2046F8BD00BF78270122DC
:1020200060A50B020079012815D002280FD00428E2
:1020300010D10B4800228168B2EB912F0AD1094AD6
:102040005278022A94BF01310231816070470448FE
:102050000121C1607047024801214160704700BF03
:102060007827012240A50B020138162800F26C8067
:1020700080B5DFE800F00C34252D1A404B30572195
:1020800053171E47142910384F5F3C435B002F48FD
:102090004549372251E02D48324951224DE02B4825
:1020A000354913E0294835493AE028483A4947225A
:1020B00043E026482E493FE0244832495A223CE07A
:1020C00022483749412238E020482A49502234E04A
:1020D0001E48324924E01D482C4948222DE01B4867
:1020E00030493E2229E019481D494F2225E0174872
:1020F0001949522221E01548264919E0134815498B
:1021000056221AE0114819495C2216E00F4820496E
:102110004A2212E00D48144953220EE00B48184998
:1021200042220AE009481849552206E007480849B2
:10213000462202E005480949542231F03AFE03489C
:10214000FFF72EFFBDE8804000BE704778230122D4
:1021500028DD0402ACD8040260DB0402E4D70402E8
:10216000D4DE040264DA04028CDC040230DC0402F3
:10217000B8DA04026CD6040204D70402CCD90402F3
:10218000B4DF04021CDE040274D90402BCD60402CB
:1021900018DA040218DB040264D8040270DD0402B9
:1021A00004D90402F0DB0402E4DD040210B50446A5
:1021B00044F6140000F0B8FE00F03F0040EA84103E
:1021C000C1B244F61400BDE8104000F097BE44F2DE
:1021D0000220002100F092BE44F202200F2100F004
:1021E0008DBED4D4D4D4D4D42DE9F84F2DED141B06
:1021F000DFF8244CDFF8241C204613F05FFF204654
:1022000014F098F800F0A4FEDFF8144C00F071FE12
:1022100000F0E2FE00F0FCFE00F016FF14204FF488
:102220007A71A047DFF8FC9B43F20310C84700F027
:10223000FD01DFF8F45B43F20310A84743F2080006
:10224000C84740F0800143F20800A84700F051FE63
:1022500043F203101121A84743F208008221A84746
:1022600005204FF47A714FF0050AA04743F20800A9
:102270004221A84743F203100321A84700200790FA
:10228000002143F21700A84743F218000021A84795
:1022900043F234001821A84743F237001321A8471E
:1022A00043F208100121A84743F230603621A847C5
:1022B00043F231600E21A84743F23260E221A84781
:1022C00043F233601221A84743F22160E021A8477E
:1022D00043F20470A021A84743F203705A21A84793
:1022E00043F215707821A84743F217700121A847DF
:1022F00043F20B706021A84743F205701A21A847EA
:1023000043F6051002210226A84743F606101021C5
:10231000A84743F601100A21A84743F23170122161
:10232000A8474FF458500821A84743F201603321D1
:10233000A84743F22D006021A84743F220605221B4
:10234000A84743F21B702021A84744F21C7050217B
:10235000A84743F613204321A84743F6182000213D
:10236000A84743F61920F821A84743F23560132106
:10237000A84743F236600321A84743F23460402166
:10238000A84743F222600121A84743F601403421C7
:10239000A84743F604402821A84743F60540982162
:1023A000A84743F606400021A84743F6084000210D
:1023B000A84743F609401C21A84743F60A409C2140
:1023C000A84743F60B404021A8474FF46050002136
:1023D000A84743F601000021A84743F60200002168
:1023E000A84743F603000421A84743F604000A2146
:1023F000A84743F605003F21A84743F606000721FA
:10240000A84743F607009F21A84743F61000002184
:10241000A84743F611001021A84743F612000021F7
:10242000A84743F613000021A84743F2087064212F
:10243000A84743F608200121A84744F201000221E1
:10244000A84744F205001A21A8474FF44050002144
:10245000A84743F202001C21A84743F20400FF21D1
:10246000A84743F20600C321A84743F20E004521C6
:10247000A84743F22E000821A8474FF48640322196
:10248000A84743F234001821A84745F21F00002155
:10249000A84744F207400421A84744F20E40002117
:1024A000A8474FF4A040A721A8474FF4A340FF211D
:1024B000A84745F28110F221A84745F28210002179
:1024C000A84745F283101421A84745F2841025211E
:1024D000A84745F285102421A84745F28610092116
:1024E000A84745F287100921A84745F2881009211D
:1024F000A84745F289107521A84745F28A10542152
:10250000A84745F28B10E021A84745F28C10B22174
:10251000A84745F28D104221A84745F28E103D2173
:10252000A84745F28F105621A84745F29010462142
:10253000A84745F29110F821A84745F292100421CE
:10254000A84745F293107021A84745F29410F02156
:10255000A84745F29510F021A84745F296100321AF
:10256000A84745F297100121A84745F29810042189
:10257000A84745F299101221A84745F29A10042164
:10258000A84745F29B100021A84745F29C10062160
:10259000A84745F29D108221A84745F29E10382198
:1025A000A84745F281301E21A84745F282305B21C1
:1025B000A84745F283300821A84745F284300A2114
:1025C000A84745F285307E21A84745F2863088210C
:1025D000A84745F287307C21A84745F288306C2116
:1025E000A84745F289301021A84745F28A300121D9
:1025F000A84745F28B309821A8474FF4A640082100
:10260000A84745F201303021A84745F20230102199
:10261000A84745F203300021A84745F204300821BD
:10262000A84745F205303021A84745F20630082179
:10263000A84745F207301621A84745F2093008217E
:10264000A84745F20A303021A84745F20B30042153
:10265000A84745F20C300621A8474FF4A9400121B4
:10266000A84745F281400821A84745F2824014213D
:10267000A84745F283402821A84745F284405121CC
:10268000A84745F285406521A84745F2864071215B
:10269000A84745F287407D21A84745F28840872119
:1026A000A84745F289409121A84745F28A409A21DE
:1026B000A84745F28B40AA21A84745F28C40B82193
:1026C000A84745F28D40CD21A84745F28E40DD2137
:1026D000A84745F28F40EA21A84745F290401D21C6
:1026E000A8474FF4AB400621A84745F2835040214C
:1026F000A84745F284501021A84745F2895010217F
:10270000A84745F28A500021A84745F28B50F8218E
:10271000A84745F21D000421A8474FF4B0402321EB
:10272000A84745F601001421A84745F602000F21ED
:10273000A84745F603000F21A84745F604001221DB
:10274000A84745F605002621A84745F606000C21B6
:10275000A84745F607000821A84745F608000521C7
:10276000A84745F609000521A84745F60A000821B3
:10277000A84745F60B000D21A84745F60C00082197
:10278000A84745F60D000321A84745F60E00002195
:10279000A84745F60F000021A84745F61000032181
:1027A000A84745F611000921A84745F61200072160
:1027B000A84745F613000321A84745F61400002159
:1027C000A84745F615000121A84745F61600032144
:1027D000A84745F617000821A84745F618000D211F
:1027E000A84745F619000821A84745F61A00052113
:1027F000A84745F61B000621A84745F61C000821FE
:10280000A84745F61D000E21A84745F61E002921C0
:10281000A84745F61F001721A84745F620001121BB
:10282000A84745F621001121A84745F622001521A9
:10283000A84745F623002821A84745F6240046214D
:10284000A84745F625002621A84745F62600082179
:10285000A84745F627002621A84745F62800642109
:10286000A84745F629002621A84745F62A00242135
:10287000A84745F62B002221A84745F62C00242125
:10288000A84745F62D002421A84745F62E0006212D
:10289000A84745F62F002221A84745F630004021E1
:1028A000A84745F631004221A84745F632002421C9
:1028B000A84745F633002621A84745F634002421D1
:1028C000A84745F635002221A84745F636002221C3
:1028D000A84745F637002621A84745F63800442189
:1028E000A84745F639002421A84745F63A00262195
:1028F000A84745F63B002821A84745F63C00422161
:10290000A84745F63D00CE21A84745F22500002105
:10291000A84743F60F203021A84743F6102028216E
:10292000A84743F61B203021A84743F61E20262146
:10293000A84743F611206021A84743F61F20142121
:10294000A84745F23D000421A8474FF490400421D8
:10295000A84743F20700FB21A84743F217000021D4
:10296000A84743F21D00FF21A84745F20100A3211B
:10297000A84745F20100C847044643F23400C8475F
:1029800000F00F00B646B0FBFAF960090B904FF06B
:10299000FF300C9000200690BEF1000F00F09680F2
:1029A00001210122C8B2082800F2878091FAA1F023
:1029B000B0FA80FA0891012008287BD80E210990EE
:1029C000002975D00E230A91002B6FD003FB00FB6A
:1029D0004FF001080D93B8F1080F63D808FB01F020
:1029E00008FB0EF1364B0425B3FBF1FCB3FBF0F70B
:1029F000FC2D9EBF0CFB05F0324988424BD807FBEB
:102A000005F4B0FBFBF03049091AB4FBFEF048BFF7
:102A10004942B0FBF9F626FA0AF0B6FBFBF3B3FB2A
:102A2000F0F606FB10333BB90D9BB4FBF3F3B3FB9D
:102A3000F0F404FB103020B17F2D52EA929005444F
:102A4000D6E70B9B0122F6B27046E4B2022E03F0E9
:102A5000010E08BFBEF1000F08D0012E04D1BEF157
:102A6000000F01D0022C03D08646E5E7082CF4D1F4
:102A70000C9B86469942DFD808980C910195CDF8B9
:102A80001CE0CDF8148002900A9804900D980390F1
:102A900009980690D0E7B8F1030F52EA92900A998C
:102AA000804498E70D9B0998013B8DE7013987E742
:102AB000400081E70899490074E7AEF1010E6BE729
:102AC00000366E010008AF2F40E0060B0598DDF8D8
:102AD0001CA0D649C7B207FB0AF0B1FBF0F0019980
:102AE000CEB2D34970430131884280F067810299A8
:102AF000039D049C069BDFF84883EAB25FFA81F9E4
:102B0000E1B201FB09F15A43B0FBF1F1B0FBF2F085
:102B1000C8F800108142C0F05881CA494018CA491B
:102B200048BF4042884280F0578145EA0410BE4CBD
:102B3000C1B243F23500A04743F236003146A04708
:102B40000598BAF1020F08BF40F01000C1B243F27D
:102B50003700A047082F00F25481012404FA07F03F
:102B600010F4AF7F00F04D81069DB94810F80910B0
:102B7000405D00F00F0041EA001143F2081000F040
:102B8000BDF904FA05F010F48B7F00F02C810120D0
:102B900000FA09F010F48B7F00F02C810020FFF781
:102BA00005FB43F2080002219F4EB04743F6074061
:102BB0000821B04743F620004021B04743F62100EA
:102BC0000121B04743F614003121B04743F6150008
:102BD0003121B04743F6030004214FF00409B04708
:102BE0009C4D9FED9D1AB5F804A04FEA4A0000F0F5
:102BF0006BF9C0F5226084B24FF46050610AB047AF
:102C0000C4F3470143F60100B047B5F806B09FEDA5
:102C1000931A4FEA4B0000F057F9C0F5F36087B202
:102C200043F6020009EB5705290AB047E9B243F61B
:102C30000300B04740F61F20A0EB5404A0B2010AE5
:102C400043F60400B047E1B243F60500B04740F256
:102C50009770A0EB5704A0B2010A43F60600B047F4
:102C6000E1B243F60700B0474FEA1A2143F60800E5
:102C7000B0475FFA8AF143F60900B0474FEA1B21DB
:102C800043F60A00B0475FFA8BF143F60B00B047FA
:102C900098ED000A9FED728A9FED729A9FED5CABF2
:102CA00000F009F9B1EEC00B20EE0A0B00F01CF9A0
:102CB000C0F3072143F60C00B04798ED000A00F07E
:102CC000FAF8B1EEC00B20EE0A0B00F00DF9C1B21C
:102CD00043F60D00B04798ED000A00F0ECF8B1EEB5
:102CE000C00B00F001F9C0F3072143F60E00B04716
:102CF00098ED000A00F0DFF8B1EEC00B00F0F4F838
:102D0000C1B243F60F00B04743F613000621B047A7
:102D100043F218600021B04743F212602921B04706
:102D200043F209705221B04743F20C700321B047BF
:102D300043F602200321B04743F60320D821B047D1
:102D400043F609202721B04743F60A200021B04767
:102D500043F60B20F621B04743F60E200321B0477F
:102D600043F60D200421B04743F614200321B04759
:102D700043F61520D821B04744F204000221B047A1
:102D800044F213700321B04744F20B603521B04781
:102D900044F20C602221B04744F637000A21B047C4
:102DA00043F624000221B04745F20100A321B047B9
:102DB0000020BDEC141B01B0BDE8F08F1D481E4A79
:102DC0001E4B40F20B1114F068FE1A481A4A294BA8
:102DD0004FF4877114F061FE1648174A1B4B4FF4ED
:102DE000887114F05AFE1348134A204B40F22911FF
:102DF00014F053FE0F48104A1B4B40F22B1114F0F5
:102E00004CFE0C480C4A1A4B4FF4907114F045FEDE
:102E1000000000605555F53F34090E22EC9F0B026F
:102E2000A17A0102292F0002FD2E000200366E0158
:102E30000008AF2FC1C303023B890302446E0302A3
:102E4000E8270122C01FF9F4481D0E00E1E2030249
:102E500003E00402E4A30B02000022450000F34457
:102E60000000DC42ABAAAA3F5D6E030224DD030230
:102E7000EBBE0302D5AD03020178012914D1017A1A
:102E8000890611D5B0B5094DC06828606C68FEF799
:102E90001FFA01462046FEF721FA05490860FEF7B1
:102EA00017FA6860BDE8B040704700BFEC27012208
:102EB000D42701227047B8EE400A80EE080A80EE5F
:102EC000090AB7EEC00A704780B200EE100AB8EEE9
:102ED000400AB4EE401AF1EE10FA31FE000ABCEEE0
:102EE000C00A10EE100A7047BCEEC00B10EE100ABC
:102EF00070474FF496704FF47A7120471CB5044622
:102F0000002001908DF804103C210122054812F0A8
:102F10006FFD01A92046FEF72DFC204600F004F8C5
:102F20001CBD00BF08A80E221CB5044600208DF869
:102F300007003C210122054812F05AFD0DF107015E
:102F40002046FEF749FC9DF807001CBD08A80E228C
:102F500080B500F00FF80548054A016811400431BA
:102F60000160BDE8804000F01DB800BFE4094040AA
:102F7000FA3FFEFF0121EFF3108081F3108807492B
:102F80000A6822B9064A00231370402313700A68A6
:102F900001320A6080F31088704700BF10AF0E2224
:102FA000140D40400121EFF3108081F3108808498F
:102FB0000A6812B10A68013A0A60096821B905492C
:102FC00000220A7080220A7080F31088704700BFC8
:102FD00010AF0E22140D4040B0B5FFF7CBFF0A4CE6
:102FE0000A4D20682840043000F046F814F058FDDF
:102FF000FFF7C0FF20682840053000F03DF8BDE82D
:10300000B04014F04DBD00BFE4094040FA3FFEFF60
:10301000B0B5FFF7AFFF0A4C0A4D206828400430D6
:1030200000F02AF814F03CFDFFF7A4FF20682840C8
:10303000053000F021F8BDE8B04014F031BD00BF0C
:10304000E4094040FA3FFEFF80B543F20310FFF76A
:103050006BFF00F0FD0143F20310FFF74FFF43F257
:1030600008008221FFF74AFF4FF496704FF47A71FF
:10307000BDE8804014F014BD4DF808ED2060FFF766
:1030800091FF14204FF47A715DF808EB704710B58A
:10309000044624681CB1606930F0CAFEF9E710BD2F
:1030A00080B5B1EE400A33F019F9B7EE001A30EEF0
:1030B000010A81EE000A80BD91ED050A90ED051A26
:1030C000B4EE401AF1EE10FA5FEA5F907047B0B5C7
:1030D00086B004460B9804900A9D8DE82E00226865
:1030E0000C991346059100EE101A002153B193ED8F
:1030F000061AB4EE401AF1EE10FA03DC1D68194608
:103100002B46F3E793420CD06A46204600F00EF8B7
:103110002068406930F08CFE204600F00EF806B0C2
:10312000B0BD06B0BDE8B04030F082BE10B50C4670
:10313000096800F0B6FC206010BD01680A680260F2
:1031400008461C2125F09ABD2DE9F84F2DED108B76
:1031500096B0B0EE408A00EE103A8E68DDF8C0906E
:1031600000250C469FEDC8CA0E900560B8EEC0AAB7
:1031700000EE102A06F1050BCDF834B0B8EEC0BA57
:10318000C9F80050E068854280F26E8169012069CB
:103190000023425800EB451100EE102A0592B8EECC
:1031A000C0DA496809910BFB01F108915143049180
:1031B0000521079111468B4280F25481059A00EE59
:1031C000103A0693DDF81CA0B8EE40EA5A430023FB
:1031D0000A928B4280F23F810A9900EE103A099AD6
:1031E0004FF000080C93CDF82CA0B8EE40FA19442B
:1031F00051430F9100EB45114A68904580F22381BD
:103200000F9891ED052A91ED041AB8EEC22A08EB49
:103210000007C86807FB0B0090F9040000EE100AD5
:10322000B8EEC00A30EE420A21EE000AFFF738FF7E
:1032300000F0DAFD40F3F18030460421B0EE409A10
:1032400007FB0BF730F0E4FD149020698DED159A23
:1032500000EB4510C16890ED051A90ED040AB8EE38
:10326000C11AC95702EE101A00F0D1FD8DED100AF7
:1032700000F0BFFD91F9011003EE101A00F0ADFD52
:103280008DED111A00F0B5FD91F9021003EE101A40
:1032900000F0A3FD8DED121A90ED052A90ED041AB1
:1032A000C0683844B8EEC22A90F9030003EE100A51
:1032B00000F093FD8DED131AFFF7F2FE30EE0F0ACA
:1032C000C0EE0D8A9DED110AFFF7EAFE30EE0E0A00
:1032D000CDED108A80EE0D0A8DED110A9DED120ADA
:1032E00032F0FCFF206900EB4510806800EBC8005D
:1032F00090ED001A20EE010A94ED001AB8EEC11A02
:1033000080EE010A8DED120A9DED130A32F0E6FF00
:1033100020694FF0000B57464FF0000900EB4510B5
:10332000806800EBC80090ED011A20EE010A94EDD0
:10333000011AB8EEC11A80EE010A8DED130AB145EB
:1033400026DA206900EB451090ED051A90ED040A8D
:10335000C068B8EEC11AC05702EE100A00F057FD5F
:10336000FFF79EFE149829EE000A09F1010958445E
:1033700080ED000A149858440BF1040B90ED000AFC
:1033800000F032FD30FE0C0A80ED000A0137D6E76E
:103390009DED103A9DED112A9DED121A9DED130A37
:1033A000DDF8C090606920EE0A0A21EE0B1A22EEC9
:1033B0000A2A23EE0B3AD9F800108DED130A8DED91
:1033C000121A8DED112A8DED103A81421ADB002878
:1033D00018DD8142DDF834B024D10E9F29493846EA
:1033E00000F05DF810ABDDE9130ECDE9000EDDF85D
:1033F00054C0CDF808C038460ECBFFF768FED9F8A8
:10340000000007E00E9810A900F040F8D9F800007D
:10341000DDF834B00130C9F80000DA44206908F161
:103420000108E7E6DDE91470029011EE103A12EEA1
:10343000102A13EE101A10EE10CA0E98CDE900C72C
:10344000FFF745FEE9E70C9B089ADDF82CA0096818
:1034500092440133BDE6049A079B13440793069BED
:103460000133A8E601358DE6D9F80000616988428C
:1034700002DD0138C9F8000016B0BDEC108B01B0B8
:10348000BDE8F08FB93000020000000010B50A4618
:103490000168044600F005FB2060043010BDBCB597
:1034A0000568044601910021284600F06CFB0146A6
:1034B00001AA284600F032FB2060BCBDB6EE002A0F
:1034C00021EE823A20EE822A31EE434A30EE425A11
:1034D00030EE020A31EE031AB4EE445AF1EE10FA5D
:1034E000B4EE401A35FE044AF1EE10FA30FE010A3D
:1034F00030EE440A7047D4D480B52DED0A8BB0EE7F
:1035000061BAB0EE60CAF0EE410AB0EE421AF0EED7
:10351000431AB0EE639AB0EE62AAFFF7CFFFB0EEA7
:10352000408AB0EE4C0AF0EE4B0AB0EE4A1AF0EECA
:10353000491AFFF7C3FFB5EE408AB0EE401A9FED7F
:10354000070AF1EE10FA06D4B5EE401AF1EE10FAC1
:1035500001D428EE010ABDEC0A8B80BD00000000FA
:1035600080B52DED088BB0EE638AB0EE439AB0EED5
:1035700061AAB0EE41BAFFF7BFFF29EE081AABEE21
:103580000A1A31EE400ABDEC088B80BD80B52DEDE6
:10359000108BB0EE639AB0EE43AAB0EE62BAB0EE12
:1035A00042CAB0EE61DAB0EE41EAB0EE60FAF0EE97
:1035B000408AFFF7A1FFB0EE408AB0EE680AF0EE55
:1035C0004F0AB0EE4E1AF0EE4D1AB0EE4C2AF0EE65
:1035D0004B2AB0EE4A3AF0EE493AFFF7C1FFB5EE9A
:1035E000408AB0EE401A9FED070AF1EE10FA06D0BD
:1035F000B5EE401AF1EE10FA01D088EE010ABDECEA
:10360000108B80BD00000000094A0969006912683A
:1036100001EB820100EB820091ED000A90ED001AAF
:10362000B4EE401AF1EE10FA5FEADF90704700BF87
:10363000F4270122E0B5019001A800F028FA0198D2
:103640008CBDB6EE004A23EE045A21EE041A32EE87
:10365000453A30EE416A32EE052A30EE010A80FE2C
:10366000022A23EE840A21EE844A86FE433A32EE91
:10367000C01A30EEC45A30EE844A32EE800AF0EEC0
:10368000420AC4FE001A85FE411AB0EE430A704792
:1036900080B52DED108BB0EE63CAB0EE43DAB0EE1C
:1036A000628AB0EE429AB0EE61EAB0EE41FAB0EE54
:1036B00060AAB0EE40BAFFF7C4FF31EEC11A30EE97
:1036C000C00AF0EE4A0AF0EE4E1AB0EE492AF0EEC9
:1036D000482AB0EE4D3AF0EE4C3A61EE018AB0EE77
:1036E0004F1AE0EE008AB0EE4B0AFFF74FFFF5EEFF
:1036F000408AB0EE40CAF1EE10FA13D03AEE481A02
:103700003BEE490A21EE011AA0EE001A81EE280ACA
:103710009FED071BB7EEC00A32F046FAB7EEC00BBA
:103720003CEE40CAB0EE4C0ABDEC108B80BD00BF31
:10373000333333333333E33F2DE9F84F2DED028B31
:10374000B0EE408A894683460024DFF85CA0DFF8AB
:103750005C8000254D4525DA58464146CAF80050A0
:10376000FFF79DFE5F463F68D7B1786900F02CFBFC
:10377000F9D038460121FFF75DFF0646002EF2D052
:10378000706900F021FB09D000F048FBFFF780FFD3
:1037900000F02AFB02DD706940F825403668EDE74D
:1037A0000135D7E700F02EBBF427012209360002CD
:1037B00000285BD02DE9F84F0C9DDDE90A484FF059
:1037C000000B04FB01362C44009601FB043301EB93
:1037D00041014A4306EB4609FF264C4603EB430CE6
:1037E000A2F1010EC3451ADA02272546E24687B147
:1037F00073469542B8BF25EAE573C65492450D4419
:103800007346B8BF2AEAEA73C654AAEB010A013F1D
:10381000EDE703340CF1030C0BF1010BE2E7009B25
:10382000FF27DDF830A003EB08044FF0000804EB9D
:10383000440CD04518DA02254E4664467DB17346E5
:103840009642B8BF26EAE673C75494427346B8BF9F
:1038500024EAE473C7540336033C013DEEE7894490
:103860008C4408F10108E4E7BDE8F84F7047D4D470
:103870002DE9F84F2DED068BA2B082460020CDE950
:103880002000059220AA022018B108C9013808C2F8
:10389000FAE70220202130F0BBFADFF8C4E10DF195
:1038A000680CDFF8C081B6EE008A62469EE8FA0036
:1038B0000DF1500EFAC2724698E8FA00FAC20325DA
:1038C0000626DDE9204162682369A769D2E9002460
:1038D00052686468C0E902C300F11003C0E90065E2
:1038E00094C300F120074B680A698969D3E9004352
:1038F00066685B68C0E90D3155A10C24C0E90B2650
:103900000022A7E83040C02391ED001F0EA9CDE9A9
:1039100012020490C02281ED001F0DA800900CAF90
:10392000B0EE480A3846FFF70FFC9FED4F0A3846C5
:103930000121FFF701FF9FED4D9A9FED4DAA0DF17B
:10394000180B3F68002F73D097ED043A97ED021AD9
:1039500097ED010A97ED032A23EE083A31EE434A28
:1039600031EE031AB5EE404AF1EE10FAB4EE4A1AFF
:1039700048BFB0EE494AF1EE10FA3AFE011A31EEB4
:10398000441ABDEEC11A11EE105A22EE081A30EE9A
:10399000412A30EE010AB5EE402AF1EE10FAB4EEFB
:1039A0004A0A48BFB0EE492AF1EE10FA3AFE000A80
:1039B0000020012130EE420ABDEEC00A10EE106A6E
:1039C000BDEEC40A10EE108ABDEEC20A10EE104A17
:1039D0008146C807B5D07869002100EB890090EDD9
:1039E000000A0120B5EE400AF1EE10FAF0DD58466B
:1039F000182130F0D0F97869594600EB890090ED34
:103A0000000A0598CDE90A65CDE90848B7EEC00A75
:103A10008DED060B00F00FF95046C021C022234661
:103A2000CDE900860295FFF7C3FE01200021CFE714
:103A30000CAC2046FFF72BFB049830F0F9F9204638
:103A400000F018F822B0BDEC068B01B0BDE8F08F95
:103A5000C0000000C00000000100000002000000E3
:103A60000CE0040224E004026666E63E000000006A
:103A700000004043B0B50446006828B11C21056829
:103A800025F0FCF82846F8E700202060B0BD00F0E3
:103A900000B80268012903DB126802600139F9E706
:103AA00070472DE9FE439046684601220D4600F01E
:103AB00010F802990D60DDF8089098E8FC0009F113
:103AC0000401FCC10021029100F01EF84846BDE847
:103AD000FE8310B511460446426000F003F8A06072
:103AE000204610BD044881423EBFC1EBC1008000AA
:103AF000BAF0EDBC00F002F84A92240901482FF018
:103B0000FFFF00BF65EA03020146806828B14968EB
:103B1000C1EBC101890025F0B1B870472DE9F04132
:103B20000446022902D22046BDE8F08115460CD198
:103B300021462A6801C9043090470028F3D0206844
:103B4000002104602160BDE8F08102200E4691FB57
:103B5000F0F72046791EFFF76DFD0021D0F80080B8
:103B6000016020462A463946FFF7D8FF0446F11B7C
:103B700040462A46FFF7D2FF014620462A46BDE8C6
:103B8000F04100F008B8024600208A4202D01268D4
:103B90000130FAE770472DE9F0478846002842D007
:103BA0000546B8F1000F16D02F1D9146126808F196
:103BB00004003946904780B1C246DAF80000544606
:103BC00070B1D9F80020043039469047D4F800A0ED
:103BD0000028F2D106E0A84625E0C246A84602E049
:103BE0004FF0000A25600AF104042E462D68ADB19D
:103BF000BAF1000F12D02F1DD9F800202046394607
:103C000090470028F1D05446206878B1D9F80020B8
:103C100004303946904748B12468F5E7BAF1000FFF
:103C200018BFC6F800A04046BDE8F087C6F800A05F
:103C3000D4F800A0D6E72DE9F041D0E901C28046D2
:103C4000944506D2624691E8F900F9C20CF11800D9
:103C500002E0404600F005F8C8F804001838BDE856
:103C6000F0812DE9F04385B089460446D0E9000192
:103C70001826081A90FBF6F0411C204600F020F8A8
:103C80000146D4E90002E8462346101A90FBF6F2FA
:103C9000404600F02DF8DDF808C099E8ED006146D7
:103CA000EDC10CF1180002902046414600F03AF8B0
:103CB0004046646800F059F8204605B0BDE8F0833E
:103CC000094A91420ED803688068C01A182390FBF5
:103CD000F3F0064BB1EB400F38BF4100984251EA78
:103CE0003280704700F04EF8AAAAAA0A5555550529
:103CF00070B50446002016460D46C4E9030319B109
:103D00001846294600F04AF806EB460105EB450245
:103D100000EBC10100EBC202C4E900012046C4E986
:103D2000021270BD70B50C460546D0E90010421A6B
:103D30006FF01700636892FBF0F000EB400003EBBC
:103D4000C006304630F035F8666028686860616803
:103D5000296060606868A1686960A060A868E1681F
:103D6000A960E0606068206070BD10B5044600F096
:103D700021F8206818B1E168091A24F07FFF204675
:103D800010BDD4D4014800F003F800BFEBC6030215
:103D9000014601482FF0B4FE5389030204488142D2
:103DA0003EBF01EB4100C000BAF091BBFFF7A6FE99
:103DB000ABAAAA0A416800F000B882688A4202D021
:103DC000183A8260FAE7704700EB850090ED000A30
:103DD000B5EE400AF1EE10FA7047B8EEC33A33EE92
:103DE000422A21EE021A7047B4EE480AF1EE10FAA8
:103DF0007047C16890ED052A90ED041A3944B8EE79
:103E0000C22A7047BDEC028B01B0BDE8F08FB8EE5E
:103E1000C22A32EE411A20EE010A7047301D90ECA2
:103E2000042A381D90EC040A7047D4D480B500F001
:103E30001FFD0021C0F83812C0F8C4110349083131
:103E4000816303490831016080BD00BF3CE004028A
:103E500070E4040200F0A8BC01488068704700BF0D
:103E600000BB0B2270B50A4CA568A8420FD200EB2C
:103E70004000DDE9046504EB8000048B0C80418B7D
:103E80001180818B1980C18B3180006A286070BDE0
:103E900000BB0B22F8B5224C6A464FF48001002685
:103EA00000962046FDF72EFB48B11E4C03461E4AE5
:103EB000C021204630F076FA00F0D4FC28E0A56856
:103EC00004F1200119482A462FF073FF184F04F11E
:103ED00010010F2207F10A002FF06BFF1548C7F8F9
:103EE00002007E7646F67300C7F80500E088388049
:103EF000284600F025F808B10120F8BD094C0E490C
:103F0000382220462FF055FF00F0ACFCFDF74EFBA9
:103F100000F0E4F80948C06800F012F8F8BD00BFEE
:103F200000004068342A01229DEA03020000006874
:103F300012000022666C617354DF040200BB0B2286
:103F40002DE9F04186B0554E04460128F06017DB9C
:103F50005348BFF34F8F00F010012144A1F120021C
:103F600002EAE272D2431144012202EB511E4D4992
:103F7000086020300FF005C0BFF34F8FBFF36F8F85
:103F8000494D284600F010FC4FF40F712FF003FF4D
:103F90002846FFF74BFF0020CDE900404349404B46
:103FA0004FF42022284600F077FCE0B13E48002183
:103FB00000F070FFD8B140690168042917D1D0E939
:103FC00002580769C02D04D1B8F1C00F08BF012FF6
:103FD0001AD0354800F074FD012852D1012F1AD1B2
:103FE000202D1CDA4DE0324832491D2202E03048D3
:103FF00039492E222FF0DDFE00242D48FDF7D0FF99
:10400000204606B0BDE8F081274800F059FD02289F
:10401000DFD100270AE0202D33DB032F31D1E02D43
:104020002FD8A8F12000C1282BD20127DFF88C80DF
:10403000234920220025B560377008F11A002FF0BF
:10404000B8FE75614546184835F80A6B00F0BAFEAF
:104050001C491D4A002851EA12802B4604901B4837
:104060001B49002F1B4A50EA1180C021CDE90240B4
:1040700008F10200CDE900600D4830F093F9012409
:10408000BBE7094800F01CFD029009480A4AC0211C
:104090002B46CDE9008730F085F9ADE700BB0B2258
:1040A0000000006868EF00E0F827012200BB012251
:1040B000342A012248D904020F9803021200002278
:1040C00058E00402D4940302F6C303026CBF030257
:1040D000C7EA030247980302B4DB0402B0B501F05B
:1040E000BBF9044601F0BCF905460B4821462A46B7
:1040F0002FF05FFE09480A4C0A490F22C56004F1FF
:104100000A002FF056FE0848C4F802000120208063
:104110000648C4F80500B0BD0000006800BB0B22D3
:1041200012000022F8E004026275696C6C74696E1A
:1041300010B510B1074C0A34046011B1054800886D
:10414000086012B103480230106013B10248C06821
:10415000186010BD1200002200BB0B22074B024664
:104160001878012809D12AB110B5054C1A34146009
:10417000BDE8104009B15A690A60704700BB0B22C4
:10418000120000222DE9F84F2DED102BDFF82885C5
:10419000D8F8100000286FD0DFF82075D8F81090FC
:1041A000DFF81C55DFF81C2507F11006F888B96800
:1041B0003346CDE900012846C02130F0F3F800F085
:1041C00054FBBD6807F12001DFF8FC042A462FF0FC
:1041D000F0FDDFF8F84431460F2204F10A002FF019
:1041E000E8FD002060760722F888DFF8E47420807C
:1041F0003046394630F048F80646DFF8D804002E3D
:1042000057EA0081A01C072230F05DF82846FFF72E
:1042100097FE60B16EB3DFF8A4044946FDF7D0F80D
:10422000B0B1DFF89C44DFF8B4143D221CE0DFF8A5
:104230009044DFF8A414252220462FF0BAFD00F0A8
:1042400011FBFFF74BFFD8F80C00FFF779FE10E0E9
:1042500046F27540C4F80500DFF884142A22E148CC
:10426000C4F80200DFF8584420462FF0A2FD00F009
:10427000F9FA0020C8F81000DFF8680400F0F0FC3C
:10428000002800F03C81DFF85C04002100F002FE11
:10429000044698F80000002858D0606900F1080A28
:1042A000DFF840049AE8600400F086FD002818BF9B
:1042B0006FF07F0021694FF01D0B05950023002250
:1042C000AB4280F298800693C3EBC303DFF81C4433
:1042D0004FF000084FF0000C5B0193FBF5F34FF437
:1042E000287503FB0543B4452CDA98FBF6F4BAF1C4
:1042F000030F04EB440403EB040E13F804900DD1F8
:1043000089EA00048C549EF801508C180332454011
:1043100065709EF802504540A5700EE09EF8014081
:1043200096279EF802507C434D2719FB074415FB46
:104330000B4480EA14248C54013208F1E0080CF19B
:10434000010CD0E7069B059D0133B9E706944FF0B9
:104350000009DFF894834FF0C00B4FF4287E4FF034
:10436000960C4D271D24B9F1C00F29D0C9EBC90106
:10437000DE480025490189B2B1FBFBF111FB0E03B8
:104380004146C02D17D0C5EBC5000135400180B2B4
:10439000B0FBFBF000EB40001A5C184490F801A061
:1043A00080780AFB0CF612FB076210FB0420000A5F
:1043B00001F8010BE5E708F1C00809F10109D2E7AE
:1043C000069CC848A569B5F5104F28BF4FF41045A5
:1043D00000F0F2FC0146206949B1C3495DB111F812
:1043E000012B013D82F0800200F8012BF6E7BE4967
:1043F0002A462FF0DEFCFCF76BFF0446B94800F0BC
:104400002FFD0546FCF764FF001B6421DFF8A8823E
:1044100048434FF47A71C8F80400002DD8F804001E
:1044200000F2E730B0FBF1F0B149086167D098F8CD
:104430000000012822D1AB48002100F046FD0028F1
:104440005DD0D0F8188004466FF0FF074FF0000BE6
:10445000DFF8909200264546002D57D0484600F0E0
:10446000ABFC21690028895708BFC9B2B94251EA9B
:10447000C78756EACB8B013D0136EDE7994C002109
:10448000204600F022FD05460A902046012100F05A
:104490001CFD0B909DB390B300240994CDE9074413
:1044A0000AA9914807AAFFF7E3F9DDE907101822E6
:1044B00008F12006C8F80840401A90FBF2F0324696
:1044C000082828BF08200C31A0425BD051F8043CDA
:1044D00022F8083C01340B6822F8063C4B6822F8AD
:1044E000043C8B6822F8023C11ED030B1831B7EE47
:1044F000C00B82ED000AC8F808400C32E4E7022441
:104500002046BDEC102B01B0BDE8F08F94ED031AEE
:1045100002EE107A94ED020AB8EEC11AB8EEC22A81
:1045200032EE411A20EE018A9FED750AB4EE408A00
:10453000F1EE10FA5CDD00279FED729ADFF8A4918E
:104540004546002D50D0484600F036FC2169002831
:10455000C95708BFC9B200EE101A94ED032A94EDB2
:10456000021AB8EEC00AB8EEC22A30EE422AB0EE05
:10457000480A11EE020A31F0B1FE39EE009A013D0F
:104580000137DEE7002C65D04D4D5A4AC021234645
:1045900028462FF007FF00F068F900279FED568AA4
:1045A000564CD8F8080087424DD296ED000A36F9ED
:1045B000060C36F9083C36F9041C36F9022C20EEBC
:1045C000080A8DE807002846C0212246BDEEC00A31
:1045D0008DED030A2FF0E6FE00F047F90C360137A7
:1045E000DFE700BF636C6F75B7EE000A80EE098AE3
:1045F0009FED410AB6EE001AA8EE001ABDEEC10A00
:1046000010EE10AABAF1640FD146A8BF4FF06409AA
:10461000B8F1020F06D83E483E49BBF1010F50EAFF
:1046200001861EE000F024FF411C884504D1BBF147
:10463000000F15D0ABF1010B83450FD200F014FF32
:1046400050F82B600DE00020A87040F60D20288067
:1046500000F00BF907A800F063F82AE02B4E00E009
:10466000294E1A48DFF8508031461F22002400F1FD
:104670001A052846C8F808402FF014FE0746264AB7
:104680002846202133462FF08DFE002FC8F81490C5
:104690003FF436AFBAF11E0FFFF632AF084C1F4A97
:1046A000C0212B46CDF8009020462FF07BFE00F075
:1046B000D9F8002424E700BF00BB0B2200004068AB
:1046C000342A0122936E03020000006812000022C7
:1046D00010DA0402D894030278DE040270D70402D0
:1046E00038D80402F8270122F42A0122A0BB0B22A9
:1046F000D4270122836E03020000C842CF7E03024A
:10470000C520803F00000000126A030218730302F4
:10471000839803027CB603027F9C0302E6C3030274
:104720001CB50446019001A800F07FF820461CBD8E
:10473000202901D100207047A0F11802D0F88C0187
:10474000431C013BF6D002F11C00126B8A42024668
:10475000F7D1704770B50C4600F11C05D0F88C619C
:104760005EB155F8040C202804D1286821462FF0AA
:1047700003FB20B11C35013EF2E7002070BDA5F11E
:10478000180070BD00F5E472D0F8000230B152F8A4
:10479000383C8B4204D001380432F7E700207047E0
:1047A0001068704770477047B0B504460848254602
:1047B000083045F8080B04F1280000F00BF804F16C
:1047C0001C0000F007F8284600F00CF82046B0BDA9
:1047D00008E104021CB50446019001A800F009F8A4
:1047E00020461CBD10B50021044600F00DF82046FF
:1047F00010BD01680A6832B14A60016808688968BA
:10480000091A24F03BBA70470A460168026009B1F0
:1048100000F001B87047084621B180B50BF0C1F92E
:10482000BDE88040C42124F029BA01680A6832B189
:104830004A60016808688968091A24F01FBA70473D
:1048400010B5054C2046FFF7F1FA0448044A21460A
:10485000BDE810402FF0ECBCF8270122553E0002C5
:104860006CE10B022046FDF79BBB2846FDF798BB89
:1048700010B50849044600200831C4E9001020742E
:10488000C4E9020004F1140021212FF084FA20462B
:1048900010BD00BF08E104022DE9F8431E46904612
:1048A0008946044613B13068304400E000202546B4
:1048B00045F8040F00F0CEF803283FD1DDE90807E2
:1048C000C4E905602068016920468847264646F805
:1048D0000C7F77B958482FF031FD584849462FF0E2
:1048E0002DFD4846414600220AF002FD00283060B6
:1048F0007ED02068C1682046884701462846324657
:1049000000F0B3F80146002004F1080500902846A5
:10491000FFF77AFF6846FFF765FFA068D0B1464809
:104920002FF00CFD46482FF01BFD28680BF062FAB3
:10493000A8B13F482FF002FD424862E03C482FF00A
:10494000FDFC286800F086F801463A4803222FF063
:10495000F5FC58E036482FF0F1FC3C4851E0204689
:1049600000F0A6F804F11C080146404600F08DF85E
:104970000026204600F09CF8864209D2286831467D
:104980000BF044FBD8F8001041F826000136F0E7A0
:10499000204600F095F804F128070146384600F05B
:1049A00074F80026204600F08BF8864208D228686A
:1049B00031460BF041FB396841F826000136F1E73A
:1049C000D4E90701884218D0D4E90A12914214D0E0
:1049D00000680025007F84F83400204600F068F865
:1049E000854213D2D8F8000000F0BEFB0135F4E791
:1049F0000F482FF0A3FC164803E00D482FF09EFC53
:104A000011482FF0ADFC0020BDE8F88300252046BA
:104A100000F056F8854204D2386800F0A5FB013555
:104A2000F5E7204600F054F801202074BDE8F88333
:104A3000138503028A980302DE94030286CA0302E6
:104A4000A3660302CFB60302D5D8030295BF0302C3
:104A500094E603020168411A0A88052A03D389886B
:104A600009B140587047002070477CB50646C42005
:104A700014460D46B9F02BFD002231682368CDE9BC
:104A800000222A460BF066F87CBD10B5D0E9002361
:104A90009C1AA310B1EBA40F04D9C91ABDE81040A9
:104AA00000F097BA994202D202EB8101416010BD39
:104AB000416819B1806808B100F017BA002070474A
:104AC000416819B1806808B100F01ABA0020704737
:104AD0002DE9F04F89B004468068002800F0A080DE
:104AE00054482FF02BFC54482FF03AFCD4E90765CA
:104AF000AE4203D002CE00F0B5F8F9E74D482FF0F2
:104B00001DFC4E482FF02CFCD4E90A65AE4203D0C0
:104B100002CE00F0A7F8F9E7464F494D3846A847BE
:104B2000A06800F01FF901464648A84760680021C8
:104B30004FF0000A09F062FE06463846A847424890
:104B40003146A847606800F010F950F8042F6168FA
:104B500010440190084600F00BF905AD00F1040B7C
:104B600004274FF000080094002E56D0019800F062
:104B700002F9C1593844084400F000F95BF82010EC
:104B80000BEB8000CDF820A000EB01092068C16884
:104B9000204688470146484608AA0BF007FD0898BA
:104BA000CDF81CA0CDE905AA10B34269202A0DD189
:104BB000816902AC204600F0ECF82846214600F05E
:104BC000F5F82046009C2EF0C7FE11E01F49D12ABF
:104BD0009CBF1F4850F8221002AC204600F0D9F8C4
:104BE0002846214600F0E2F820462EF0B5FE009C53
:104BF00010482FF0A3FB9DF91F100598002950EADB
:104C00004582144841462FF099FB28462EF0A4FE19
:104C10000437013E08F10108A6E709B0BDE8F08FAE
:104C20000D482FF08BFB0D4809B0BDE8F04F2FF079
:104C300097BB00BFDE94030278C70302F6D00302DD
:104C40003D4303021D6A0302E794030284810302C9
:104C500024E1040262B10302138503023AC4030291
:104C6000007C70472DE9F041002948D0334D344E87
:104C70000C462846B047207F0BF08EFF0146314896
:104C8000B0472846B047A1692F48B0470026324FA9
:104C90006069006886420CDA28462FF04FFB606995
:104CA000314600EB8600426838462FF047FB01365C
:104CB000EEE7206801283ED1DFF880806768404633
:104CC0002FF03CFBB96821482FF038FB0025042465
:104CD000204E38680068854219DA40462FF02EFBD6
:104CE00038682946204490ED000A3046B7EEC00AE5
:104CF00053EC102B2FF022FB04340135E9E7174861
:104D00002FF01CFB1648BDE8F0412FF029BB002412
:104D10000A4D0F4E7868006884420CDA28462FF05E
:104D20000DFB7868214600EB8400426830462FF086
:104D300005FB0134EEE7BDE8F08100BFDE9403021D
:104D40003D430302C66E030236B103021A73030227
:104D5000B5CA03029EA803027981030213850302E8
:104D600090A00302C06E0AF0C9BB082100F0D4B8BD
:104D7000062100F0DEB80A2100F0E8B80168411A07
:104D80000A88052A03D3898809B140587047002052
:104D90007047B0B5054608460C462FF031F802467C
:104DA000284621462EF0A5FD2846B0BD10B5044684
:104DB00000F0F9F8204610BD90F8340009285FEAA9
:104DC0001F9070472DE9FE4F0546406800210026E0
:104DD00009F014FD82466868FFF7C7FF50F8042FFA
:104DE000696800EB020B0846FFF7C2FF041D0425AB
:104DF000E946DFF86080B24527D05846FFF7BBFF91
:104E0000415928440844FFF7B9FF54F8201004EB37
:104E10008000471838460CF01FFA202812D1384677
:104E200000F01AF870B1384600F016F8011D484637
:104E3000FFF7AFFF414600F06FF9074648462EF0F6
:104E40008BFD17B904350136D5E756455FEA2F903B
:104E5000BDE8FE8F30660302062100F084B8D4D48A
:104E600010B54168084C29B1806818B10BF0B2F850
:104E700040B1064C06482FF061FA20462FF070FA38
:104E8000002010BD012010BDA3D403027FDD03026A
:104E900013850302B0B50C460546FFF709FE8442B0
:104EA00024BF0020B0BD05F11C00214600F002F82F
:104EB0000068B0BDD0E90002121AB1EBA20F3CBFEE
:104EC00000EB8100704700F049F9B0B50C4605468B
:104ED000FFF7F6FD844224BF0020B0BD05F1280095
:104EE0002146FFF7E7FF0068B0BD80B50068FFF717
:104EF0003CFF50F8041F084400F042F8006880BDF1
:104F000080B50068FFF731FF50F8041F084400F037
:104F100047F8006880BDFEDE0268821A1388994255
:104F200005D2515A19B14258084410447047002024
:104F300070470268821A1388994205D2515A19B1F2
:104F40004258084410447047002070470268821A93
:104F50001388994205D2515A19B142580844104455
:104F60007047002070470268821A1388994205D260
:104F7000515A19B1425808441044704700207047F4
:104F8000062100F000B80268821A1388994205D2FF
:104F9000515A19B1425808441044704700207047D4
:104FA0000821FFF7F0BFB0B5054690F90B000C469D
:104FB000B0F1FF3F05DCA968286821F0004123F02B
:104FC0005DFE204690E80E0000200EC52070E072C5
:104FD000B0BD2DE9F04186B00D460446D0E901018F
:104FE000091AB5EBA10F13D92168401A05EBA001EE
:104FF000204600F03BF80646D4E90001002705945E
:10500000A1EB00085EB12046314600F073F807E0DE
:105010002046294606B0BDE8F04100F01AB800204D
:1050200000EB8601019040440491AA00029000EB3D
:10503000850112B180C0043AFBE7039101AD20461F
:10504000294600F029F8284600F042F806B0BDE8ED
:10505000F08110B54368002403EB8102890011B18F
:1050600010C30439FBE7426010BDD4D4B1F1804FC6
:105070000DD202688068801A064AB1EB600F38BF13
:105080004110904228BF6FF040410846704700F041
:105090002BF800BFFCFFFF7F70B505460C46486843
:1050A000D5E90012521A861A30462EF082FE66604A
:1050B000286868606168296060606868A1686960E4
:1050C000A060A868E168A960E0606068206070BDC9
:1050D00010B5044600F016F8206818B1E168091A06
:1050E00023F0CCFD204610BD0148FEF751FE00BF65
:1050F000EBC60302B1F1804F3CBF8800B9F0E7B9BD
:10510000FEF7FCFC416800F000B882688A4202D0D9
:10511000043A8260FAE77047BCB5054608460C467B
:105120002EF06EFE95F90B206968002A58BFD1B2A7
:1051300088421CBF0020BCBD0090284600214FF0D3
:10514000FF3223462EF017FC00285FEA1F90BCBDFB
:10515000014601482EF0D4FCE5B103020148FFF7F7
:10516000F7FF00BFEBC6030250F8251008698969F4
:105170002EF011BE38307047B0B588B001AD04468E
:10518000284605F03DFF38342946204600F050F807
:1051900001AD284605F0D6F92046294600F050F822
:1051A00001AD284604F004FB2046294600F050F8E3
:1051B000204600F055F801AD284607F043FF204691
:1051C000294600F05FF801AD284606F095FC204620
:1051D000294600F05FF8204600F064F801AD28464B
:1051E00006F03EFC2046294600F06EF8204600F00E
:1051F00073F8204600F082F8044630B108482FF0DA
:105200009DF808482FF09AF805E007482FF096F827
:1052100006482FF0A5F8002C5FEA1F9008B0B0BD3B
:10522000138503029FA00302DE940302B4BF0302AE
:105230000A46024B042100F07BB800BF6D0E01024C
:105240000A46024B032100F073B800BF350D01027E
:105250000A46024B002100F06BB800BF390C010276
:10526000B0B588B001AD0446284608F0CDFE044B29
:10527000204661212A4600F05BF808B0B0BD00BFAF
:10528000511101020A46024B222100F051B800BF21
:105290008D0F01020A46024B112100F049B800BFF0
:1052A000910F0102B0B588B001AD0446284606F062
:1052B00073FD044B204602212A4600F039F808B05D
:1052C000B0BD00BFC50C01020A46024B012100F02F
:1052D0002FB800BF910F0102B0B588B001AD0446F0
:1052E000284608F047FD044B204616212A4600F0C8
:1052F0001FF808B0B0BD00BF95100102B0B504465C
:1053000003F07EFD48B1054603F076FE01462046D7
:105310002A46BDE8B04000F069B80020B0BD80B5B5
:10532000FFF742FA4FF40F71BDE8804023F0A6BCAE
:105330002DE9F041202906D12A480BF02BF92A4803
:105340000BF028F91AE00546006817461E460C4681
:1053500002682846904728B11E480BF01BF91E48EA
:10536000214609E0D5F88C010E280AD31B482146B6
:105370000BF010F91A480E210BF00CF90120BDE8D2
:10538000F081C0EBC00005F1040839461C2208EB8F
:1053900080002EF00EFDD5F88C01D5F80012C0EB80
:1053A000C00205EB81010130C5F88C0108EB8202D7
:1053B0005461C1F89041D5F8001205EB8101C1F8A4
:1053C000C861D5F800020130C5F800020020BDE830
:1053D000F08100BF71760302CDA0030290BA0302F0
:1053E0001A6F0302E9B60302BAD40302F8B50646FF
:1053F000D0F88C010C460E2805D3164821460E2203
:105400000BF0C8F80DE0306815462146426830467A
:10541000904740B10D480BF0BDF80D4821460BF008
:10542000B9F80120F8BDD6F88C01411CC6F88C11E2
:10543000C0EBC00006EB800C95E8CD000CF1040138
:10544000CDC12020CCE906040020F8BDEBD8030232
:105450004EC403020DD103020048704790E40402D9
:105460000048704700BB0600004870474C0000220F
:105470004FF47A707047D4D482B0204C03210022BC
:1054800001234FF0FF3500950026206812F008FF39
:105490001B481C490CF0E2FD2068042112F0AEFE0E
:1054A000194809F07DF8FEF7F5FC10B90120FCF76A
:1054B000DBFD2068082112F0A1FE144F20684FF494
:1054C000005101220123009512F0EAFE0520394621
:1054D00018B1E1E802660138FAE7FEF753FE022848
:1054E00002D10220FCF7C0FD20684FF4804112F089
:1054F00085FE4FF4C87013F0EFFEDFE724A70E22FD
:105500006811002250A20B021155000278BB0B2239
:10551000FCF746BD2DE9F04F044605201CB111B142
:105520009A4202D20320BDE8F08FD01A0225DDE9AD
:10553000099C4FF000084FF01F0B4FF03F0A90FB03
:10554000F5F004EB400EE04529D008FB03F50024FC
:10555000B5FBFCF555430EEB45064D46E5B1B4FBF6
:10556000F9F01C44013D36F8100000F01F07C7EBAE
:105570000727B7FBFBF78F70C0F34517C7EB07276B
:10558000B7FBFAF74F70C70A3F02A7EBD020B0FB7A
:10559000FBF008700331E1E708F10108D3E70020D0
:1055A000BDE8F08F86B0474CEFF31080012181F306
:1055B0001088216821B9444900220A7040220A70EB
:1055C000216800220131216080F310883F484FF4A8
:1055D000847110F0DDF8EFF31080012181F3108861
:1055E000216811B1216801392160216821B936494A
:1055F00000220A7080220A7080F3108834483549EE
:1056000010F0AAF910B11020FCF72EFD32483349F2
:105610000CF0ACFD10B11720FCF726FD30480168F6
:105620008088FBF72DFEFBF73FFEFCF7DDFDFCF766
:10563000D3FD43F208004221FDF760FC00F05EF864
:10564000254800210CF038FE00F058F843F208001D
:105650000221FDF753FCFCF7BAFD22480221006845
:1056600012F0CCFD20480DF10C09204C4FF0E00861
:10567000DFF87CB01F4FDFF880A0C5888688164809
:1056800049460CF057FEFBF723FE2060584639468A
:1056900032462B46CDE90088FFF73CFF11484FF416
:1056A0000051006812F0AAFDFBF712FE606020684E
:1056B0006168FBF713FECAF80C001E2013F00CFE05
:1056C000DDE700BF10AF0E22140D404098A60E2259
:1056D00008A80E22F8A50B0274A60E22B8A30B028E
:1056E00020E0014024A70E22E4A30B02A0070E2213
:1056F00000008068A0BB0B22D427012201204FF4B8
:105700007A7112F0CDB9D4D4F8B51D4C1D491522CB
:1057100020462EF04EFB1C4F2046B8471B4E3568E6
:105720002846FBF7E0FD0346194900F09CF82046A7
:10573000B847F5682846FBF7D6FD0346154900F043
:1057400092F82046B847144802681AB11348B0FBD3
:10575000F2F300E000230A4C114920462EF052FEDD
:105760002046FCF71DFCB5682846FBF7BCFD034648
:105770000C4900F078F82046BDE8F840FCF710BC72
:105780007823012248D60402A11F0002D427012257
:10579000EE8F0302E1BB030204BB0B2240420F0069
:1057A000B667030225A6030282B0FCF7F3FBFCF701
:1057B0005BF9234800F052F8224800F04FF82248E5
:1057C00000F04CF8FCF7BCF9204E012101273068AD
:1057D00012F014FD0025DFF878901E4CDFF8788079
:1057E00030684FF4806100220123009712F058FDC9
:1057F000E80702D089F8007003E099F8000001285A
:105800000DD12068FCF778F821684046002211F09D
:1058100083F905F00100FCF741FAFFF775FF3068E6
:10582000002112F0CFFD054630684FF4804112F0A0
:10583000C9FD962013F050FDC5F38035D0E700BFB9
:10584000000080680060896800C0926824A70E226A
:10585000A8070E22EC27012288A60E224FF416215B
:1058600055222EF093BA20462A462EF0CBBDD4D432
:10587000022818BF704780B5044805490FF064FF3F
:105880000120BDE8804012F0D7B900BF98A60E22D3
:105890006CAA0B02B0B5074DA8470446A8470649B5
:1058A0006FF3DF3401EAC0300444A84744EA807053
:1058B000B0BD00BFCF4103020080FF3F10B50446DA
:1058C0000748017839B90121017013F0BDFE80F05D
:1058D000A5302EF09FFCFFF7DDFF2060012010BDFA
:1058E000AC070E2210B510440844C418FFF7D2FFCD
:1058F000604010BD012805D038B905484168013124
:10590000416002E00248012101700020704700BFA1
:10591000B0080E22004870470E75030200B17047B0
:105920000248816801318160704700BFB0080E22D3
:105930009CB0784C7849282220462EF03AFA20462E
:10594000FCF72EFB754800F11001009100F10802F0
:1059500000F10C03011D15F075FD58B96D4D70492E
:10596000232228462EF025FA2846FCF719FB0020B2
:1059700013F0D8FC002101256A4EDFF898B14FF0F2
:1059800000094FF0000A0024652007903C20B04633
:105990000691B9FBF0F0C0EB001001EB800616F0A9
:1059A00091F807461EB1012F46461AD01BE098F821
:1059B0000000D8F80810012F5FEA1F935A4A4646A4
:1059C000CDE9000100F0CAF82EF0ECFC5846FCF7D7
:1059D000E7FA012F07D116F065F80821642215F0C7
:1059E0005FFF377800E000270A200799B5FBF0F049
:1059F00000EB8000A1EB4000F06087F0010040EA7E
:105A00000401C90706D047EA0A01C9075FD04AEA7C
:105A1000000A67E0C820F0601BA81AA919AA18ABF1
:105A200015F032FF1B9814A9404CA0471A9810A9F2
:105A3000A04719980CA9A047189808A9A047307842
:105A40003C493D4ADFF8F4A0C007394850EA1183C9
:105A50004FF480715846D04705954D465846DFF8BB
:105A6000E090C8472D4E707C337CB17CF27C347D55
:105A7000767D8DE8570000F071F8324A4646D047EF
:105A80005846C84700F06AF82F4A14ABD04758462A
:105A9000C84700F063F82D4A10ABD0475846C847B6
:105AA00000F05CF82A4A0CABD0475846C84700F0D3
:105AB00055F8284A08ABD0475846C847A946059D1F
:105AC000C920C8F80C0001244FF0000A0AE058462B
:105AD000214927222EF06DF95846FCF761FA00247F
:105AE0004FF0010A4FF49670F06007F00100FBF7E9
:105AF00079FD40F22D10F0604FF4FA7013F0ECFBDA
